:10077900E4FAEF6405703343F620C2F8C2F9D2FAFD
:1007890043E180C2FCD2FBADF8EDC413135403FD61
:10079900AFE2AB07EB7E007802C333CE33CED8F994
:1007A9007C002DFBEC3EAF03FE22EF640670344360
:1007B900F640D2F8C2F9D2FA43E180C2FCD2FBADCD
:1007C900F8EDC413135403FDAFE27A00AB07EB7ED7
:1007D900007802C333CE33CED8F97C002DFBEC3E32
:0307E900FEAF035D
:0107EC0022EA
:10063B008E088F09C3E50994FBE5089401400CD2A1
:10064B00947F1C120A607F3C0206D8C3E50994FB19
:10065B00E50894015016C3E50994EFE508940140B1
:10066B000BD2947F0A120A607F648061C3E5099400
:10067B00EFE50894015016C3E50994E3E5089401EE
:10068B00400BD2947F09120A607F648040C3E50956
:10069B0094E3E50894015016C3E50994D7E5089453
:1006AB0001400BD2947F08120A607F64801FC3E560
:1006BB000994D7E5089401501AC3E50994C9E508D4
:1006CB009401400FD2947F07120A607F64120CC70B
:1006DB00C29422C3E50994C9E50894015003120D95
:0206EB002622C5
:0C0580000756000000000000000155FFBD
:1009D100750DAAE4F50CE4F50BE50DC2907D157CCF
:1009E100007F17120BC5D290E50D25E0F50D7D15A1
:1009F1007C007F2B120BC5050BE50BC3940840D976
:100A0100750DAA7D157C007F17120BC5050CE50C31
:070A1100C3940340C1D29021
:010A180022BB
:02097D008F0BDE
:10097F00E4F50CE4F50D7456250CF8E630E70BC2E0
:10098F0090E50BFD7C007F248009C290E50BFD7C78
:10099F00007F17120BC5D2907456250CF8C000E6D5
:1009AF0025E0D000F6E50BFD7C007F0F120BC5058F
:1009BF000DE50DC3940840BE050CE50CC394034030
:0109CF00B275
:0109D0002204
:100C14008F088C098D0AD2937F14120CC7C2A77552
:100C240056C87557E08508581209D1AF0A12097DD4
:050C3400D2A7C29322CB
:100B6F00D2937F14120CC7C2A7E4F556F557F55868
:100B7F00755913755AEC85555B1209D17B007A00B4
:0C0B8F0079567D06120C39D2A7C29322C1
:1008C60020910D0553E553B47803E4F553C2002295
:1008D600200038D200E553D394234012E553D39435
:1008E60050500BE52825E0F5285328FE8010E553E7
:1008F600D394504010E52825E0F528432801053912
:10090600E4F55280020552E4F553220552E552C33E
:0C091600943C4007E4F539D200F5312292
:100B0600E53964087030F539742A2531F8A628E5E8
:100B1600317009E52AB4C80475310122E531B40102
:100B260009E52BB4E00475310222E531B40204D2A2
:070B3600068000E4F5312206
:040922008C0C8D0D9F
:100926007556C87557E08F58E4F50EE4F50F745602
:10093600250EF8E630E70AC2A2AD0DAC0C7F248086
:1009460008C2A2AD0DAC0C7F17120BC5D2A274560D
:10095600250EF8C000E625E0D000F6AD0DAC0C7F04
:100966000F120BC5050FE50FC3940840C1050EE530
:060976000EC3940340B51E
:01097C002258
:100CC700AE071FEE60107C137D88ED1DAA0470012E
:060CD7001C4A60EC80F4F1
:010CDD0022F4
:100BC500E4FBFAEFF582C3EB9582EA94005018E452
:100BD500FEEEC39DEC6480F874809850030E80F19E
:070BE5000BBB00010A80DCDC
:010BEC0022E6
:100C5D00E4FDFCC3ED9FEC9E5015E4FBFA0BBB00CD
:0F0C6D00010AEB64644A70F50DBD00010C80E4D0
:010C7C002255
:100CAF00E4FDFCC3ED9FEC9E500DE4FB0BBB04FC7D
:070CBF000DBD00010C80ECEB
:010CC600220B
:100B3D00E4F9E4FAFBC3EB9FEA9E50070BBB0001FF
:100B4D000A80F209B932EBE4F9209215E4FAFBC3FD
:100B5D00EB9DEA9C50070BBB00010A80F209B932EC
:010B6D00E89F
:010B6E002264
:02058C00C11A92
:0D000E00120C96D21AE4F5497F14020CC7BB
:100D1600120D53AF35AE3412063B120A19020ACE33
:100BED008E088F098C0A8D0BEBFD7C007FC11209DD
:100BFD0022C2A2D2A3AD0BAC0AAF09AE08120B3DB7
:070C0D00D2A2D2A3C285228E
:0E0E1600D285D2A2C2A3120B3DD2A2D2A32239
:100ACE00C216C205C20AC218E4F524F53DF532F588
:100ADE0036F537F53AF53BF54CF54DF538F546C29A
:100AEE0004C20FF54AC211F54BC201F533C209C259
:080AFE001AF549C215F5252285
:0E0E2400D216D205E4F524F53DC21AF5492296
:0A0E3D00C2A47F05120CC7D2A42244
:100D040053A2BF75985A758920758BFD758DFDD2D8
:020D14008E222D
:080003008F993099FDC299228A
:100C39008B618A628963AF051DEF6017AB6105633C
:100C4900E563AA627002056214F912041DFF12001D
:040C59000380E3220F
:03058E00011E014A
:040A5C00D2947F0EA3
:020A60008F0AFB
:100A6200C2A07F647E00120C5DD2A07F967E00122F
:100A72000C5DE4F50BE50BC3950A5016D2A17F1469
:100A82007E00120CAFC2A17F147E00120CAF050BC8
:020A920080E3FF
:010A9400223F
:100C7D00C294C2A1C2A07F5E7E01120CAFD2A07F32
:090C8D005E7E01120CAFD294222C
:100A1900E51E24FE6025047039120A5C7F2D120C34
:100A2900C77F12120A607F32120CC77F0B120A604D
:100A39007F46120CC7C294751E0222120A5C7F28D7
:100A4900120CC77F0C120A607F3C120CC7C2947546
:030A59001E012259
:0F0D2600D2947F06120A607F50120CC7C294222B
:100CDE00D2947F02120A607F5A120CC7C2947F1EF2
:030CEE00020CC72E
:0F0D3500D2947F1B120A607F8C120CC7C29422CB
:0F0D4400D2947F03120A607FB4120CC7C29422AC
:100CF100D2947F16120A607FB4120CC7C2947F147B
:030D0100020CC71A
:0F0D5300D2947F17120A607F3C120CC7C2942201
:100C9600D2947F18120A607F3C120CC77F0D120A8D
:090CA600607F46120CC7C29422C3
:0F0D6200D2947F13120A607F50120CC7C29422E2
:0F0D7100D2947F14120A607F78120CC7C29422AA
:0F0D8000D2947F13120A607F96120CC7C294227E
:0F0D8F00D2947F09120A607F78120CC7C2942297
:0B0E3200120A5C7F78120CC7C29422E9
:0F0D9E00D2947F04120A607F96120CC7C294226F
:0F0DAD00D2947F03120A607F8C120CC7C294226B
:0F0DBC00D2947F02120A607F78120CC7C2942271
:0F0DCB00D2947F07120A607F50120CC7C2942285
:0F0DDA00D2947F0B120A607F32120CC7C2942290
:0F0DE900D2947F0F120A607F32120CC7C294227D
:0F0DF800D2947F0C120A607F50120CC7C2942253
:0F0E0700D2947F0D120A607F50120CC7C2942242
:0407ED008C108D11CE
:1007F1007E007C2B7D33120553E47B0CFAF9F81251
:1008010004C18F158E148D138C12C3E49FFFE49ED7
:10081100F55D8F5FAE10AF11EE3395E0FDFCE47B2B
:100821000BFAF9F8120436E47B0CFAF9F81204C158
:100831008F198E188D178C16C3E49FFFE49EF55E09
:100841008F60758911855D8C855F8A855E8D856078
:0D0851008BD2A9C28CD2ABD28ED2BBD2AF5B
:01085E002277
:100B9B007E007C2B7D33120553E47B0CFAF9F812A3
:100BAB0004C18F1D8E1C8D1B8C1AC3E49FFFE49E0A
:090BBB00F55D8F5F758921C28C84
:010BC400220E
:040E470043870122BA
:10059100C104C116C10FC111014A00014B00C10ABA
:1005A100C118013200023A00000146000138000280
:1005B1004C0000C10101240002360000013D000190
:1005C100480001540001290002440000072A0000EC
:1005D1000000000000C106013100012800013900BE
:1005E100C180015200015300014000013E00025050
:1005F1000000C103014101013C000234000001334C
:1006010000C115012500C10202260000C1100242ED
:100611000000C109C112014700C105014900C1071C
:10062100C114024E0000013F00C10EC193C10DC1B2
:090631008BC197C10CC188C119ED
:100A95007D647C007F011207EDD28CC205C216125F
:100AA5000C7DC294D284D283D290D287D2A7C2932E
:100AB500D2A2D2A3D2A6D281D2853080032087FAD2
:090AC500D210E4F542F54380F182
:03000B0002001ED2
:10001E00C0E0C0F0C083C082C0D075D000C000C0A8
:10002E0001C002C003C004C005C006C007855D8CB8
:10003E00855F8A0545E54570020544C394D0E544C5
:10004E00940750030201397544007545007F06126E
:10005E0007798E348F35300A16E529C39405500F73
:10006E00C2A67D1C7C007FC5120C14D2A6052930B9
:10007E001816E554C39405500FC2A67D1C7C007F54
:10008E00C4120C14D2A6055430151CE525C39404D5
:10009E00501520A512C2A67D1C7C007FC2120C1426
:1000AE00D2A6120D620525301A110549E549C394F1
:1000BE00054008754900C21A120E24300F35E54A64
:1000CE00C39404502ED20420A517C2A67D1C7C001A
:1000DE002009047FC380027FC6120C14D2A6120D13
:1000EE0044054AE54AC394044009754A00C20FC24A
:1000FE0004C207301135E54BC39404502ED20420B0
:10010E00A517C2A67D1C7C002009047FC380027F38
:10011E00C6120C14D2A6120CF1054BE54BC3940477
:10012E004009754B00C211C204C20730A51AE54141
:10013E0070167F05120CC730A50E754101753C0077
:10014E00C213753F00120ACE300C22201715200460
:10015E00127B1C7D947C117FE87E03120BEDD2176F
:10016E00120D16300402D219C20C120ACE20A5228C
:10017E00E53C701E20101B2014187F05120CC720A2
:10018E00A510754100753C01C20DD21A7549007556
:10019E003F0A30082C30171D20101A201417AF35C7
:1001AE00AE3412063B7DA07C0F7FE87E03120E1646
:1001BE00C21712000E301907C219D21A754900C2A1
:1001CE0008308003208708D2107542007543003036
:1001DE0010190543E54370020542D394D0E54294CD
:1001EE00074008C210754200754300308208D214D1
:1001FE00754E00754F00301419054FE54F7002050E
:10020E004EC394D0E54E94074008C214754E007547
:10021E004F0020840302033B20830302033B20058F
:10022E000302033BE52414603114606D2402600365
:10023E000202F630800320871B200418053DE53DA1
:10024E00C3940250030202F6753D00752401120C90
:10025E00DE0202F6753D000202F63080032087149E
:10026E000532E532C39402400E7532007524021237
:10027E000D3580037532000537E53770020536C33C
:10028E0094A0E536940F4060752400753200753DDC
:10029E0000753600753700804F30800320871405B7
:1002AE0038E538C39401400E753800D20FD211D202
:1002BE00078003753800053BE53B7002053AC39491
:1002CE00A0E53A940F4021752400753D007532006B
:1002DE00753600753700753A00753B00754C037521
:1002EE004D2075380075460020811AE533C39433CE
:1002FE0050130533E53394324018D20FD2117533B3
:10030E0033D209800D30810A200707753300C20FE2
:10031E00C211C3E53494015004D2158010D3E535D3
:10032E009400E53494014005C21575250030164839
:10033E00208417053EE53EC394034018D218C20A26
:10034E00753E0B20030ED201800AC218755400753B
:10035E003E00C2012083170540E540C394034018B8
:10036E00D20AC21875400B20030ED201800AC20AAF
:10037E00752900754000C20130013C0551E55170F0
:10038E00020550C394A0E550940F402BC201755046
:10039E0000755100D203752400753D00753200754D
:1003AE003600753700753A00753B00754C03754D78
:1003BE002075380075460030870320801ED3E52750
:1003CE009488E526941340137F03120CC7308703DD
:1003DE00208008D2027526007527000527E52770B4
:1003EE00020526C39488E5269413400875261375D6
:1003FE002789C202D007D006D005D004D003D00280
:0F040E00D001D000D0D0D082D083D0F0D0E03257
:03001B0002085F79
:10085F00C0E0C0F0C083C082C0D075D000C000C05F
:10086F0001C002C003C004C005C006C007855E8D6D
:10087F0085608B1208C6120B06300620C206E52CC7
:10088F002439601224DF601224277010D2127547AA
:10089F0000120ACE8006D20C8002D208D007D006F2
:1008AF00D005D004D003D002D001D000D0D0D08258
:0708BF00D083D0F0D0E0323D
:030000000206ED08
:0C06ED00787FE4F6D8FD758163020734C5
:10041D00BB010689828A83E0225002E722BBFE02DD
:09042D00E32289828A83E4932210
:10043600E88FF0A4CC8BF0A42CFCE98EF0A42CFC65
:100446008AF0EDA42CFCEA8EF0A4CDA8F08BF0A4E3
:100456002DCC3825F0FDE98FF0A42CCD35F0FCEB42
:100466008EF0A4FEA9F0EB8FF0A4CFC5F02ECD3907
:0F047600FEE43CFCEAA42DCE35F0FDE43CFC2274
:1004850075F008758200EF2FFFEE33FECD33CDCC2E
:1004950033CCC58233C5829BED9AEC99E5829840B1
:1004A5000CF582EE9BFEED9AFDEC99FC0FD5F0D68E
:1004B500E4CEFBE4CDFAE4CCF9A88222B800C1B9B8
:1004C5000059BA002DEC8BF084CFCECDFCE5F0CBF6
:1004D500F97818EF2FFFEE33FEED33FDEC33FCEB2F
:1004E50033FB10D703994004EB99FB0FD8E5E4F9EA
:1004F500FA227818EF2FFFEE33FEED33FDEC33FCD7
:10050500C933C910D7059BE99A4007EC9BFCE99ACA
:10051500F90FD8E0E4C9FAE4CCFB2275F010EF2F0F
:10052500FFEE33FEED33FDCC33CCC833C810D7070F
:100535009BEC9AE899400AED9BFDEC9AFCE899F84A
:0E0545000FD5F0DAE4CDFBE4CCFAE4C8F922DD
:10055300EC8EF0A4CCC5F0CCCDF8EFA4CEC5F02D35
:10056300FDE43CFCE8A42EC8C5F03DFDE43CFCEFF3
:0D057300A4FFE5F028FEE43DFDE43CFC2281
:1006F900020A95E493A3F8E493A34003F68001F278
:1007090008DFF48029E493A3F85407240CC8C33301
:10071900C4540F4420C8834004F456800146F6DFD0
:10072900E4800B0102040810204080900580E47EDB
:10073900019360BCA3FF543F30E509541FFEE493C5
:10074900A360010ECF54C025E060A840B8E493A38C
:10075900FAE493A3F8E493A3C8C582C8CAC583CAB7
:10076900F0A3C8C582C8CAC583CADFE9DEE780BE6F
:01063A0000BF
:00000001FF
