:1002F100C104C110C10AC10C014800014900C10972
:10030100C11101310002390000014400013700022E
:100311004A0000C10101230002350000013C000137
:100321004600015200012800024200000729000096
:100331000000000000C10601300001270001380063
:10034100C180015000015100013E00013D00024EFB
:100351000000C103013F0002330000013200C10F60
:10036100012400C10202250000C10B02400000C1AE
:1003710008C10D014500C105014700C107C10E02B9
:060381004C0000013B00EE
:100A26007D647C007F32120499D2A4D2A0C29012B7
:040A36000BBB80FB7B
:03000B00020746A3
:10074600C0E0C0D085638C85658A0543E5437002A9
:100756000542C3940AE54294004008754200754379
:1007660000B2A720A40E053BE53BC3946440057583
:090776003B00D2A4D0D0D0E03247
:03001B000201815E
:10018100C0E0C0D075D000C00085648D85668B301D
:10019100B00EC2000551E55164787054F55180509C
:1001A10020003CD200E551D394144015E551D3947D
:1001B10050500EE52725E0F5275327FE05387550E9
:1001C10000E551D394504010E52725E0F52743275A
:1001D10001053875500080020550755100801105E8
:1001E10050E550C3943C4008753800D2007530008A
:1001F100E53864087032F53874292530F8A627E50A
:1002010030700AE529B4C805753001801BE530B4AA
:10021100010AE52AB4E005753002800CE530B4022C
:1002210004D206800075300030060DC206E52B248D
:0F0231003F7005C2A4753B00D000D0D0D0E032A2
:10042500E4FAEF6405703343F620C2F8C2F9D2FA54
:1004350043E180C2FCD2FBADF8EDC413135403FDB8
:10044500AFE2AB07EB7E007802C333CE33CED8F9EB
:100455007C002DFBEC3EAF03FE22EF6406703443B7
:10046500F640D2F8C2F9D2FA43E180C2FCD2FBAD24
:10047500F8EDC413135403FDAFE27A00AB07EB7E2E
:10048500007802C333CE33CED8F97C002DFBEC3E89
:03049500FEAF03B4
:010498002241
:100240008E1E8F1FC3E51F9401E51E9403400BD241
:10025000947F1C1207837F3C41DCC3E51F9401E5BA
:100260001E94035016C3E51F94F4E51E9402400B40
:10027000D2947F0A1207837F648061C3E51F94F4E0
:10028000E51E94025016C3E51F94E5E51E94024056
:100290000BD2947F091207837F648040C3E51F94CB
:1002A000E5E51E94025016C3E51F94D5E51E9402A1
:1002B000400BD2947F081207837F64801FC3E51F21
:1002C00094D5E51E9402501AC3E51F94C8E51E9408
:1002D00002400FD2947F071207837F64120A0FC275
:1002E0009422C3E51F94C8E51E94025003120A84A9
:0102F00022EB
:0C0387000713000000000000000112FF3E
:1006BB007569AAE4F568E4F567E569C2907D157C78
:1006CB00007F171208BFD290E56925E0F5697D150B
:1006DB007C007F2B1208BF0567E567C3940840D9E0
:1006EB007569AA7D157C007F171208BF0568E56840
:0706FB00C3940340C1D2903B
:0107020022D4
:02061D008F6AE2
:10061F00E4F56BE4F56C7413256BF8E630E70BC269
:10062F0090E56AFD7C007F248009C290E56AFD7C1D
:10063F00007F171208BFD2907413256BF8C000E625
:10064F0025E0D000F6E56AFD7C007F0F1208BF059C
:10065F006CE56CC3940840BE056BE56BC394034017
:01066F00B2D8
:010670002267
:10095C008F6D8C6E8D6FD2937F14120A0FC2A77598
:10096C0013C87514E0856D151206BBAF6F12061D0A
:05097C00D2A7C2932286
:1008E7008F708C718D72D2937F14120A0FC2A77505
:1008F70013C87514E08570151206BBAF7212061D7A
:07090700C2A7C293C29022B7
:10086900D2937F14120A0FC2A7E4F513F514F515F4
:100879007516137517EC8512181206BB7B007A00E2
:0C08890079137D06120981D2A7C29322C8
:10050B0020910D0551E551B47803E4F551C2002259
:10051B00200038D200E551D394234012E551D394F7
:10052B0050500BE52725E0F5275327FE8010E551AA
:10053B00D394504010E52725E0F5274327010538D4
:10054B00E4F55080020550E4F551220550E550C307
:0C055B00943C4007E4F538D200F5302253
:10080000E53864087030F53874292530F8A627E5F6
:10081000307009E529B4C80475300122E530B4010F
:1008200009E52AB4E00475300222E530B40204D2AE
:07083000068000E4F5302210
:040567008C1A8D1B42
:10056B007513C87514E08F15E4F51CE4F51D7413B1
:10057B00251CF8E630E70AC2A2AD1BAC1A7F24801B
:10058B0008C2A2AD1BAC1A7F171208BFD2A27413FC
:10059B00251CF8C000E625E0D000F6AD1BAC1A7F99
:1005AB000F1208BF051DE51DC3940840C1051CE5CE
:0605BB001CC3940340B5CF
:0105C1002217
:0405C2008C538D5475
:1005C6007513C87514E08F15E4F555E4F5567413E4
:1005D6002555F8E630E70AC281AD54AC537F248036
:1005E60008C281AD54AC537F171208BFD281741371
:1005F6002555F8C000E625E0D000F6AD54AC537F93
:100606000F1208BF0556E556C3940840C10555E5C7
:0606160055C3940340B53A
:01061C0022BB
:100A0F00AE071FEE60107C137D88ED1DAA047001E8
:060A1F001C4A60EC80F4AB
:010A250022AE
:1008BF00E4FBFAEFF582C3EB9582EA94005018E45B
:1008CF00FEEEC39DEC6480F874809850030E80F1A7
:0708DF000BBB00010A80DCE5
:0108E60022EF
:1009A500E4FDFCC3ED9FEC9E5015E4FBFA0BBB0088
:0F09B500010AEB64644A70F50DBD00010C80E48B
:0109C4002210
:1009F700E4FDFCC3ED9FEC9E500DE4FB0BBB04FC38
:070A07000DBD00010C80ECA5
:010A0E0022C5
:10083700E4F9E4FAFBC3EB9FEA9E50070BBB000108
:100847000A80F209B932EBE4F9209215E4FAFBC306
:10085700EB9DEA9C50070BBB00010A80F209B932F5
:01086700E8A8
:01086800226D
:02039300C11295
:0D000E001209DED212E4F5477F14020A0F3A
:1007F000120AB1AF34AE331202401207030207B837
:10090E008E578F588C598D5AEBFD7C007FC1120586
:10091E0067C2A2D2A3AD5AAC59AF58AE5712083720
:07092E00D2A2D2A3C2852270
:100935008E5B8F5C8C5D8D5EEBFD7C007FC112054F
:10094500C2D2A2C2A3AD5EAC5DAF5CAE5B1208378E
:07095500C2A2C2A3C2852269
:0E0B7400D285D2A2C2A3120837D2A2D2A322E7
:0E0B8200D285C2A2D2A3120837C2A2C2A322F9
:1007B800C210C205C209C211E4F523F53CF531F5B2
:1007C80035F536F539F53AF54AF54BF537F544C2BE
:1007D80004C20AF548C20CF549C201F532C208C282
:0807E80012F547C20FF52422AF
:0E0B9000D210D205E4F523F53CC212F547223F
:0A0BA900C2A47F05120A0FD2A42295
:100A600075DCC075760075771DE576F5D1E577F50F
:020A7000D92289
:10067100EF1460191460251460312403703B757602
:100681000075770DE576F5D2E577F5DA2275760115
:10069100757700E576F5D3E577F5DB22757600759C
:1006A1007780E576F5D5E577F5DD22757600757706
:0A06B10040E576F5D6E577F5DE2288
:08000300E4FF120671020A601D
:040499008C088D0935
:10049D007E007C2B7D33120154E47B0CFAF9F812AB
:1004AD0000C28F0D8E0C8D0B8C0AC3E49FFFE49E52
:1004BD00F5638F65AE08AF09EE3395E0FDFCE47B87
:1004CD000BFAF9F8120037E47B0CFAF9F81200C2B6
:1004DD008F118E108D0F8C0EC3E49FFFE49EF5647B
:1004ED008F6675891185638C85658A85648D8566B2
:0D04FD008BD2A9C28CD2ABD28ED2BBD2AFB3
:01050A0022CE
:100895007E007C2B7D33120154E47B0CFAF9F812AF
:1008A50000C28F628E618D608C5FC3E49FFFE49E02
:0908B500F5638F65758921C28C81
:0108BE002217
:040BBB004387012249
:100A720053A2BF75985A758920758BFD758DFDD26D
:020A82008E22C2
:080BB3008F993099FDC29922CF
:100981008B738A748975AF051DEF6017AB7305759D
:10099100E575AA747002057414F912001EFF120B9A
:0409A100B380E3221A
:03039500017A01E9
:04077F00D2947F0E83
:020783008F786D
:10078500C2A07F647E001209A5D2A07F967E0012CA
:1007950009A5E4F579E579C395785016D2A17F14BA
:1007A5007E001209F7C2A17F147E001209F70579B0
:0207B50080E3DF
:0107B700221F
:1009C500C294C2A1C2A07F5E7E011209F7D2A07FA8
:0909D5005E7E011209F7D29422A2
:10070300E57A24FE602504703912077F7F2D120AD3
:100713000F7F121207837F32120A0F7F0B12078398
:100723007F46120A0FC294757A022212077F7F282E
:10073300120A0F7F0C1207837F3C120A0FC29475B3
:030743007A012216
:0F0A8400D2947F061207837F50120A0FC294226A
:100A3A00D2947F021207837F5A120A0FC2947F1E32
:030A4A00020A0F8E
:0F0A9300D2947F1B1207837F8C120A0FC294220A
:0F0AA200D2947F031207837FB4120A0FC29422EB
:100A4D00D2947F161207837FB4120A0FC2947F14BB
:030A5D00020A0F7B
:0F0AB100D2947F171207837F3C120A0FC2942240
:1009DE00D2947F181207837F3C120A0F7F0D1207E5
:0909EE00837F46120A0FC2942215
:0F0AC000D2947F131207837F50120A0FC2942221
:0F0ACF00D2947F141207837F78120A0FC29422E9
:0F0ADE00D2947F131207837F96120A0FC29422BD
:0F0AED00D2947F091207837F78120A0FC29422D6
:0B0B9E0012077F7F78120A0FC294221A
:0F0AFC00D2947F041207837F96120A0FC29422AE
:0F0B0B00D2947F031207837F8C120A0FC29422A9
:0F0B1A00D2947F021207837F78120A0FC29422AF
:0F0B2900D2947F071207837F50120A0FC29422C3
:0F0B3800D2947F0B1207837F32120A0FC29422CE
:0F0B4700D2947F0F1207837F32120A0FC29422BB
:0F0B5600D2947F0C1207837F50120A0FC2942291
:0F0B6500D2947F0D1207837F50120A0FC2942281
:030000000203995F
:0C039900787FE4F6D8FD75817A0203E05D
:10001E00BB010689828A83E0225002E722BBFE02E0
:09002E00E32289828A83E4932213
:10003700E88FF0A4CC8BF0A42CFCE98EF0A42CFC68
:100047008AF0EDA42CFCEA8EF0A4CDA8F08BF0A4E6
:100057002DCC3825F0FDE98FF0A42CCD35F0FCEB45
:100067008EF0A4FEA9F0EB8FF0A4CFC5F02ECD390A
:0F007700FEE43CFCEAA42DCE35F0FDE43CFC2277
:1000860075F008758200EF2FFFEE33FECD33CDCC31
:1000960033CCC58233C5829BED9AEC99E5829840B4
:1000A6000CF582EE9BFEED9AFDEC99FC0FD5F0D691
:1000B600E4CEFBE4CDFAE4CCF9A88222B800C1B9BB
:1000C6000059BA002DEC8BF084CFCECDFCE5F0CBF9
:1000D600F97818EF2FFFEE33FEED33FDEC33FCEB32
:1000E60033FB10D703994004EB99FB0FD8E5E4F9ED
:1000F600FA227818EF2FFFEE33FEED33FDEC33FCDA
:10010600C933C910D7059BE99A4007EC9BFCE99ACD
:10011600F90FD8E0E4C9FAE4CCFB2275F010EF2F12
:10012600FFEE33FEED33FDCC33CCC833C810D70712
:100136009BEC9AE899400AED9BFDEC9AFCE899F84D
:0E0146000FD5F0DAE4CDFBE4CCFAE4C8F922E0
:10015400EC8EF0A4CCC5F0CCCDF8EFA4CEC5F02D38
:10016400FDE43CFCE8A42EC8C5F03DFDE43CFCEFF6
:0D017400A4FFE5F028FEE43DFDE43CFC2284
:1003A500020A26E493A3F8E493A34003F68001F23E
:1003B50008DFF48029E493A3F85407240CC8C33359
:1003C500C4540F4420C8834004F456800146F6DF28
:1003D500E4800B01020408102040809002F1E47EC5
:1003E500019360BCA3FF543F30E509541FFEE4931D
:1003F500A360010ECF54C025E060A840B8E493A3E4
:10040500FAE493A3F8E493A3C8C582C8CAC583CA0E
:10041500F0A3C8C582C8CAC583CADFE9DEE780BEC6
:010398000064
:00000001FF
