:10038A00C105C118C110C112014D00014E00C10DB5
:10039A00C11A013400023C0000014900013A00027E
:1003AA004F0000C10101240002380000013E000193
:1003BA004B00015900012B0002470000072C0000E6
:1003CA000000000000C107013300012A00013B00C0
:1003DA00C180015700015800014100014000025349
:1003EA000000C10401440002360000013500C117B3
:1003FA00012500C10302260000C11102450000C107
:10040A000CC113014A00C106014C00C10BC1140200
:10041A0051000002280000C11BC115C109C102C157
:10042A000802550000C116C10F02420000C18E0128
:06043A003F00C18AC11958
:1007800012001E7D647C007F32120603D28CD28060
:10079000D28143EC0343EB0353EAFC43E903D2AFBA
:1007A000D2A4D290C2947F0612058F8E368F37E482
:1007B000F528F529C205C2A7C293D2827D1BFC7F12
:1007C000E8120A28300AFDD2E9C20A43870280F4FF
:03000B000201A14E
:1001A100C0E0C0F0C083C082C0D075D000C000C024
:1001B10001C002C003C004C005C006C007856E8C23
:1001C10085708A0548E54870020547C3943CE547B8
:1001D100940040377F0612058F8E368F37301B1201
:1001E100D3E5379465E53694035007C21B120B9C87
:1001F1008013201B10C3E5379470E5369403400546
:10020100D21B120C3F75470075480020800DC28239
:10021100D2917D1B7C007FC7120A2820810DC282EA
:10022100D2917D1B7C007FE8120A2830A60CD28275
:10023100C293C2A7C291C290D20A30052C0529E50A
:100241002970020528C39403E52894005008120B75
:10025100AB120C4A8013C3E5299478E52894004039
:1002610008752800752900C205301508120BBA124D
:100271000C4AC215300908120BC9120C4AC20930C6
:100281000205120BD8C202301705120BE7C2173054
:100291000805120BF6C208D007D006D005D004D04D
:1002A10003D002D001D000D0D0D082D083D0F0D002
:0202B100E03239
:03001B000202B32B
:1002B300C0E0C0F0C083C082C0D075D000C000C011
:1002C30001C002C003C004C005C006C007856F8D0E
:1002D30085718B120675120946200702616FC207EA
:1002E300E52E24F07002616A2428606F2427B40984
:1002F30000507990030025E0500205837361126179
:100303002061246130614161526159616F616512FD
:100313000C4A7D2A7C007FC1120A28804FD21780A5
:1003230030D205120C4A755900C215800AD21575D0
:100333002800752900C205752B00C209802ED20939
:10034300752800752900C205755900C215801DD294
:1003530008120C4A8016120C058011120C4AC216A0
:10036300800A120C148005120C4AD216D007D0064C
:10037300D005D004D003D002D001D000D0D0D08299
:07038300D083D0F0D0E0327E
:03003B00020003BD
:08000300C2E953EAFCD2E93224
:10058F00E4FAEF6405703343F620C2F8C2F9D2FAE9
:10059F0043E180C2FCD2FBADF8EDC413135403FD4D
:1005AF00AFE2AB07EB7E007802C333CE33CED8F980
:1005BF007C002DFBEC3EAF03FE22EF64067034434C
:1005CF00F640D2F8C2F9D2FA43E180C2FCD2FBADB9
:1005DF00F8EDC413135403FDAFE27A00AB07EB7EC3
:1005EF00007802C333CE33CED8F97C002DFBEC3E1E
:0305FF00FEAF0349
:0106020022D5
:100452008E1E8F1FC3E51F94FBE51E9401400BD235
:10046200947F1C1208D97F3C81EEC3E51F94FBE503
:100472001E94015016C3E51F94EFE51E9401400B34
:10048200D2947F0A1208D97F648061C3E51F94EF7A
:10049200E51E94015016C3E51F94E3E51E94014046
:1004A2000BD2947F091208D97F648040C3E51F9460
:1004B200E3E51E94015016C3E51F94D7E51E94018F
:1004C200400BD2947F081208D97F64801FC3E51FB6
:1004D20094D7E51E9401501AC3E51F94C9E51E94F2
:1004E20001400FD2947F071208D97F64120AC2C258
:1004F2009422C3E51F94C9E51E94015003120B33E5
:0105020022D6
:0C044000075B00000000000000015AFFF4
:10084A007519AAE4F518E4F517E519C2907D157C27
:10085A00007F171209D9D290E51925E0F5197D15FF
:10086A007C007F2B1209D90517E517C3940840D9D4
:10087A007519AA7D157C007F171209D90518E51884
:07088A00C3940340C1D290AA
:010891002244
:02072C008F1725
:10072E00E4F518E4F519745B2518F8E630E70BC20A
:10073E0090E517FD7C007F248009C290E517FD7CB3
:10074E00007F171209D9D290745B2518F8C000E605
:10075E0025E0D000F6E517FD7C007F0F1209D905C4
:10076E0019E519C3940840BE0518E518C394034053
:01077E00B2C8
:01077F002257
:100A28008F148C158D16D2937F14120AC2C2A77523
:100A38005BC8755CE085145D12084AAF1612072C76
:050A4800D2A7C29322B9
:1007D000D2937F14120AC2C2A7E4F55BF55CF55D03
:1007E000755E13755FEC855A6012084A7B007A00CB
:0C07F000795B7D06120A4DD2A7C293224D
:1006750020910D0558E558B47803E4F558C20022D9
:10068500200038D200E558D394234012E558D3947E
:1006950050500BE52A25E0F52A532AFE8010E5582F
:1006A500D394504010E52A25E0F52A432A01053B5D
:1006B500E4F55780020557E4F558220557E557C379
:0C06C500943C4007E4F53BD200F53322E2
:10094600E53B64087030F53B742C2533F8A62AE5A0
:10095600337009E52CB4C80475330122E533B401BC
:1009660009E52DB4E00475330222E533B40204D25E
:07097600078000E4F53322C5
:0406D1008C628D6347
:1006D500755BC8755CE08F5DE4F564E4F565745B96
:1006E5002564F8E630E70AC2A2AD63AC627F2480D8
:1006F50008C2A2AD63AC627F171209D9D2A2745B9E
:100705002564F8C000E625E0D000F6AD63AC627F55
:100715000F1209D90565E565C3940840C10564E56F
:0607250064C3940340B51B
:01072B0022AB
:100AC200AE071FEE60107C137D88ED1DAA04700135
:060AD2001C4A60EC80F4F8
:010AD80022FB
:1009D900E4FBFAEFF582C3EB9582EA94005018E440
:1009E900FEEEC39DEC6480F874809850030E80F18C
:0709F9000BBB00010A80DCCA
:010A000022D3
:100A7100E4FDFCC3ED9FEC9E5015E4FBFA0BBB00BB
:0F0A8100010AEB64644A70F50DBD00010C80E4BE
:010A90002243
:100AAA00E4FDFCC3ED9FEC9E500DE4FB0BBB04FC84
:070ABA000DBD00010C80ECF2
:010AC1002212
:10097D00E4F9E4FAFBC3EB9FEA9E50070BBB0001C1
:10098D000A80F209B932EBE4F9209215E4FAFBC3BF
:10099D00EB9DEA9C50070BBB00010A80F209B932AE
:0109AD00E861
:0109AE002226
:02044C00C11CD1
:0D000E00120A91D21CE4F54C7F14020AC2C4
:100B2300120B60AF37AE3612045212089202090E4E
:100A01008E668F678C688D69EBFD7C007FC1120655
:100A1100D1C2A2D2A3AD69AC68AF67AE6612097D3F
:070A2100D2A2D2A3C285227C
:0E0C2300D285D2A2C2A312097DD2A2D2A322F0
:10090E00C218C206C20DC21AE4F524F53EF534F53E
:10091E0038F539F53CF53DF54FF550F53AF549C248
:10092E0005C210F54DC212F54EC201F535C20CC20C
:08093E001CF54CC217F525223F
:0E0C3100D218D206E4F524F53EC21CF54C2282
:0A0C4A00C2A47F05120AC2D2A42240
:100AFF0075DCC075750075761DE575F5D1E576F574
:020B0F00D922E9
:10080000EF1460191460251460312403703B757572
:100810000075760DE575F5D2E576F5DA2275750188
:10082000757600E575F5D3E576F5DB22757500750F
:100830007680E575F5D5E576F5DD2275750075767A
:0A08400040E575F5D6E576F5DE22F9
:080C5400E4FF120800020AFF90
:040603008C148D15B1
:100607007E007C2B7D33120174E47B0CFAF9F8121F
:1006170000E28F198E188D178C16C3E49FFFE49E96
:10062700F56E8F70AE14AF15EE3395E0FDFCE47BED
:100637000BFAF9F8120057E47B0CFAF9F81200E20A
:100647008F1D8E1C8D1B8C1AC3E49FFFE49EF56FD4
:100657008F71758911856E8C85708A856F8D85710F
:0D0667008BD2A9C28CD2ABD28ED2BBD2AF47
:010674002263
:1009AF007E007C2B7D33120174E47B0CFAF9F81274
:1009BF0000E28F6D8E6C8D6B8C6AC3E49FFFE49E9B
:0909CF00F56E8F70758921C28C50
:0109D80022FC
:0400370043870122D8
:100B110053A2BF75985A758920758BFD758DFDD2CD
:020B21008E2222
:080C5C008F993099FDC2992225
:100A4D008B728A738974AF051DEF6017AB720574D5
:100A5D00E574AA737002057314F912003EFF120CAF
:040A6D005C80E322A4
:03044E0001770132
:0408D500D2947F0E2C
:0208D9008F0E80
:1008DB00C2A07F647E00120A71D2A07F967E0012A6
:1008EB000A71E4F50FE50FC3950E5016D2A17F14D4
:1008FB007E00120AAAC2A17F147E00120AAA050F5B
:02090B0080E387
:01090D0022C7
:10001E00C294C2A1C2A07F5E7E01120AAAD2A07FA4
:09002E005E7E01120AAAD294229E
:10089200E57724FE60250470391208D57F2D120AEF
:1008A200C27F121208D97F32120AC27F0B1208D9F4
:1008B2007F46120AC2C294757702221208D57F2897
:1008C200120AC27F0C1208D97F3C120AC2C2947566
:0308D20077012289
:0F0B3300D2947F061208D97F50120AC2C29422B0
:100AD900D2947F021208D97F5A120AC2C2947F1E89
:030AE900020AC23C
:0F0B4200D2947F1B1208D97F8C120AC2C2942250
:0F0B5100D2947F031208D97FB4120AC2C2942231
:100AEC00D2947F161208D97FB4120AC2C2947F1412
:030AFC00020AC229
:0F0B6000D2947F171208D97F3C120AC2C2942286
:100A9100D2947F181208D97F3C120AC27F0D120826
:090AA100D97F46120AC2C2942258
:0F0B6F00D2947F131208D97F50120AC2C2942267
:0F0B7E00D2947F141208D97F78120AC2C294222F
:0F0B8D00D2947F131208D97F96120AC2C2942203
:0F0B9C00D2947F091208D97F78120AC2C294221C
:0B0C3F001208D57F78120AC2C294226E
:0F0BAB00D2947F041208D97F96120AC2C29422F4
:0F0BBA00D2947F031208D97F8C120AC2C29422F0
:0F0BC900D2947F021208D97F78120AC2C29422F6
:0F0BD800D2947F071208D97F50120AC2C294220A
:0F0BE700D2947F0B1208D97F32120AC2C2942215
:0F0BF600D2947F0F1208D97F32120AC2C2942202
:0F0C0500D2947F0C1208D97F50120AC2C29422D7
:0F0C1400D2947F0D1208D97F50120AC2C29422C7
:03000000020503F3
:0C050300787FE4F6D8FD75817702054A88
:10003E00BB010689828A83E0225002E722BBFE02C0
:09004E00E32289828A83E49322F3
:10005700E88FF0A4CC8BF0A42CFCE98EF0A42CFC48
:100067008AF0EDA42CFCEA8EF0A4CDA8F08BF0A4C6
:100077002DCC3825F0FDE98FF0A42CCD35F0FCEB25
:100087008EF0A4FEA9F0EB8FF0A4CFC5F02ECD39EA
:0F009700FEE43CFCEAA42DCE35F0FDE43CFC2257
:1000A60075F008758200EF2FFFEE33FECD33CDCC11
:1000B60033CCC58233C5829BED9AEC99E582984094
:1000C6000CF582EE9BFEED9AFDEC99FC0FD5F0D671
:1000D600E4CEFBE4CDFAE4CCF9A88222B800C1B99B
:1000E6000059BA002DEC8BF084CFCECDFCE5F0CBD9
:1000F600F97818EF2FFFEE33FEED33FDEC33FCEB12
:1001060033FB10D703994004EB99FB0FD8E5E4F9CC
:10011600FA227818EF2FFFEE33FEED33FDEC33FCB9
:10012600C933C910D7059BE99A4007EC9BFCE99AAD
:10013600F90FD8E0E4C9FAE4CCFB2275F010EF2FF2
:10014600FFEE33FEED33FDCC33CCC833C810D707F2
:100156009BEC9AE899400AED9BFDEC9AFCE899F82D
:0E0166000FD5F0DAE4CDFBE4CCFAE4C8F922C0
:10017400EC8EF0A4CCC5F0CCCDF8EFA4CEC5F02D18
:10018400FDE43CFCE8A42EC8C5F03DFDE43CFCEFD6
:0D019400A4FFE5F028FEE43DFDE43CFC2264
:10050F00020780E493A3F8E493A34003F68001F27B
:10051F0008DFF48029E493A3F85407240CC8C333ED
:10052F00C4540F4420C8834004F456800146F6DFBC
:10053F00E4800B010204081020408090038AE47EBF
:10054F00019360BCA3FF543F30E509541FFEE493B1
:10055F00A360010ECF54C025E060A840B8E493A378
:10056F00FAE493A3F8E493A3C8C582C8CAC583CAA3
:10057F00F0A3C8C582C8CAC583CADFE9DEE780BE5B
:0104510000AA
:00000001FF
