:1003A200C105C118C110C112812900812A00C10DE5
:1003B200C11A811000821800008125008116008276
:1003C2002B0000C10181000082140000811A00810B
:1003D2002700813500810700822300008708000082
:1003E2000000000000C107810F0081060081170094
:1003F200C180813300813400811D00811C00822F65
:100402000000C10481200082120000811100C11786
:10041200810100C10382020000C11182210000C1DA
:100422000CC113812600C106812800C10BC11482B0
:100432002D000082040000C11BC115C109C102C107
:100442000882310000C116C10F821E0000C18E81D8
:060452001B00C18AC11964
:10091400120D207D647C007F321205B1D28CD2800E
:10092400D28143EC0343EB0353EAFC43E903D2AF24
:10093400D2A4D290C2947F061206267812EEF20850
:10094400EFF2E47804F208F2C205C2A7C293D2829D
:100954007D0DFC7FE8120B26300AFDD2E9C20A8025
:01096400F79B
:03000B000201A14E
:1001A100C0E0C0F0C083C082C0D075D000C000C024
:1001B10001C002C003C004C005C006C0077858E2F0
:1001C100F58C785AE2F58A782308E22401FFF218C7
:1001D100E23400FEF2C3EF943CEE9400403A7F0615
:1001E1001206267812EEF208EFF2301B11D3E294D8
:1001F1006518E294035007C21B120E2E8014201BB7
:1002010011C37813E2947018E294034005D21B12D3
:100211000EDF7823E4F208F220800DC282D2917DB4
:100221000D7C007FC7120B2620810DC282D2917DE9
:100231000D7C007FE8120B2630A60CD282C293C23D
:10024100A7C291C290D20A300531780408E2240194
:10025100FFF218E23400FEF2C3EF9403EE94005073
:1002610008120E3D120EEA8012C37805E294781846
:10027100E294004006E4F208F2C205301508120EBD
:100281004C120EEAC215300908120E5B120EEAC2B8
:1002910009300205120E6AC202301705120E79C228
:1002A10017300805120E88C208D007D006D005D035
:1002B10004D003D002D001D000D0D0D082D083D0DE
:0402C100F0D0E03267
:03001B000202C519
:1002C500C0E0C0F0C083C082C0D075D000C000C0FF
:1002D50001C002C003C004C005C006C0077859E2CA
:1002E500F58D785BE2F58B120780120A3420070240
:1002F5006187C207780AE224F070026182242860CF
:10030500702427B40900507A90031725E0500205A0
:10031500837361296137613B61486159616A617124
:100325006187617D120EEA7D157C007FC1120B2667
:100335008050D2178031D205120EEA7835E4F2C228
:1003450015800AD2157804E4F208F2C2057807F29E
:10035500C209802ED2097804E4F208F2C205783584
:10036500F2C215801DD208120EEA8016120E978071
:1003750011120EEAC216800A120EA68005120EEAA6
:10038500D216D007D006D005D004D003D002D001B4
:0D039500D000D0D0D082D083D0F0D0E032A4
:03003B00020003BD
:08000300C2E953EAFCD2E93224
:10062600E4FAEF6405703343F620C2F8C2F9D2FA51
:1006360043E180C2FCD2FBADF8EDC413135403FDB5
:10064600AFE2AB07EB7E007802C333CE33CED8F9E8
:100656007C002DFBEC3EAF03FE22EF6406703443B4
:10066600F640D2F8C2F9D2FA43E180C2FCD2FBAD21
:10067600F8EDC413135403FDAFE27A00AB07EB7E2B
:10068600007802C333CE33CED8F97C002DFBEC3E86
:03069600FEAF03B1
:01069900223E
:0D000E007F061206267812EEF208EFF222AD
:10046B007836EEF208EFF2C39401EE9403400BD210
:10047B00947F1C1209F67F3CA10F7836E2FE08E24E
:10048B00FFC39401EE94035014C3EF94F4EE940263
:10049B00400BD2947F0A1209F67F6480677836E2AC
:1004AB00FE08E2FFC394F4EE94025014C3EF94E5FC
:1004BB00EE9402400BD2947F091209F67F648044BC
:1004CB007836E2FE08E2FFC394E5EE94025014C3C3
:1004DB00EF94DBEE9402400BD2947F081209F67F67
:1004EB006480217836E2FE08E2FFC394DBEE9402CF
:1004FB005018C3EF94D0EE9402400FD2947F0712A2
:10050B0009F67F64120D52C29422C37837E294D05D
:0A051B0018E294025003120DC522ED
:09045800874300000000000000D1
:1008C200787974AAF2E418F2E47877F27879E2C2DD
:1008D200907D157C007F17120A75D2907879E225F7
:1008E200E0F27D157C007F2B120A757877E204F224
:1008F200E2C3940840D6787974AAF27D157C007F11
:1009020017120A757878E204F2E2C3940340B9D26E
:010912009054
:0109130022C1
:040862007877EFF2C2
:10086600E408F2E47879F27878E22443F8E230E7B3
:100876000CC2907877E2FD7C007F24800AC29078D3
:1008860077E2FD7C007F17120A75D2907878E22411
:1008960043F8C000E225E0D000F27877E2FD7C0064
:1008A6007F0F120A757879E204F2E2C3940840B722
:0B08B6007878E204F2E2C3940340A84B
:0108C1002214
:100B26007874EFF208ECF208EDF2D2937F14120D0E
:100B360052C2A7784374C8F20874E0F27874E27877
:100B460045F21208C2787508E2FF120862D2A7C2FF
:020B56009322E8
:100AF2007838EFF208ECF208EDF2D2937F14120D7F
:100B020052C2A7784374C8F20874E0F27838E278E7
:100B120045F21208C2783908E2FF120862C2A7C27F
:040B220093C29022C8
:100B5800D2937F14120D52C2A778437412F208740C
:100B680034F2087456F2087478F2087490F2120895
:100B7800C27BFE7A0079437D06120C16D2A7C29377
:010B8800224A
:1007800020910D7834E204F2B47802E4F2C200223F
:10079000200041D2007834E2FFD394234010EFD3FD
:1007A0009450500A7806E225E0F254FE8010783426
:1007B000E2D3945040147806E225E0F24401F27846
:1007C00017E204F2E47833F280057833E204F2E4CD
:1007D0007834F2227833E204F2C3943C4009E4789E
:0807E00017F2D200780FF2229B
:100A34007817E264087039F27806E2FF780FE2FE74
:100A44002408F8EFF2EE700C7808E2B4C806780FC8
:100A54007401F222EEB4010C7809E2B4E006780FD6
:100A64007402F222EEB40204D2078000E4780FF29A
:010A7400225F
:07069A00783BECF208EDF2E1
:1006A100784374C8F20874E0F208EFF2E4783DF29E
:1006B100E4783EF2783DE22443F8E230E70DC2A34C
:1006C100783BE2FC08E2FD7F24800BC2A3783BE289
:1006D100FC08E2FD7F17120A75D2A3783DE224439C
:1006E100F8C000E225E0D000F2783BE2FC08E2FD30
:1006F1007F0F120A75783EE204F2E2C3940840B417
:0B070100783DE204F2E2C3940340A53F
:01070C0022CA
:07070D00783FECF208EDF269
:10071400784374C8F20874E0F208EFF2E47841F226
:10072400E47842F27841E22443F8E230E70DC281F2
:10073400783FE2FC08E2FD7F24800BC281783FE22F
:10074400FC08E2FD7F17120A75D2817841E2244346
:10075400F8C000E225E0D000F2783FE2FC08E2FDB8
:100764007F0F120A757842E204F2E2C3940840B49F
:0B0774007841E204F2E2C3940340A5C8
:01077F002257
:04046100824C0000C9
:10001E00784C74FFF2087493F2784C08E22401FFD6
:0A002E00F218E23400F24F70F022E5
:100C8600784C74FDF20874E3F2784C08E22401FF14
:0A0C9600F218E23400F24F70F02271
:100CA000784C74FBF20874C7F2784C08E22401FF18
:0A0CB000F218E23400F24F70F02257
:100CBA00784C74EAF20874E7F2784C08E22401FFEF
:0A0CCA00F218E23400F24F70F0223D
:100CD400784C742DF208740FF2784C08E22401FF6A
:0A0CE400F218E23400F24F70F02223
:100D5200AE071FEE60107C137D88ED1DAA047001A2
:060D62001C4A60EC80F465
:010D68002268
:070A7500787AECF208EDF2C3
:100A7C00E408F208F2EFFDC3787DE29D18E29400E1
:100A8C005025E4FEEEFDD3787BE29D7480F5F018E2
:100A9C00E2648095F040030E80EA787DE22401F256
:070AAC0018E23400F280CED5
:010AB3002220
:100C6600E4FDFCC3ED9FEC9E5015E4FBFA0BBB00C4
:0F0C7600010AEB64644A70F50DBD00010C80E4C7
:010C8500224C
:100CEE00E4FDFCC3ED9FEC9E500EE4FB0BEBB40455
:080CFE00FB0DBD00010C80EBB1
:010D060022CA
:070AB400784AEEF208EFF2B0
:100ABB00E4F9E4FAFBD3784BE29B18E29A40070B7C
:100ACB00BB00010A80EF09E9B432E7E4F920921682
:100ADB00E4FAFBC3EB9DEA9C50070BBB00010A80B9
:060AEB00F209E9B432E754
:010AF10022E2
:02046500C11CB8
:100BEB0020000A7812E2FE08E2FF12046B120000EA
:100BFB00200003120D39D21CE47828F27F14120D59
:0B0C0B0052E47800F2300002C2002228
:100D0700200010120DF27812E2FE08E2FF12046BC7
:090D170012096578207401F22232
:100B8900784EEEF208EFF208ECF208EDF2EBFD7C9C
:100B9900007FC112069AD2A2C2A3784EE2FE08E2F1
:100BA900FF08E2FC08E2FD120AB4D2A2D2A3C28570
:010BB9002219
:100BBA007852EEF208EFF208ECF208EDF2EBFD7C67
:100BCA00007FC112070DD2A2C2A37852E2FE08E248
:100BDA00FF08E2FC08E2FD120AB4C2A2C2A3C2855F
:010BEA0022E8
:0E0EB500D285C2A2D2A3120AB4D2A2D2A32224
:0E0EC300D285C2A2D2A3120AB4C2A2C2A32236
:1009AD00C218C206C20DC21AE47800F2781AF278A3
:1009BD0010F27814F208F27818F208F2782BF20897
:1009CD00F27816F27825F2C205C2107829F2C21219
:1009DD00782AF2C2017811F2C20CC21C7828F2C238
:0509ED00177801F22261
:100DB400D218D206E47800F2781AF2C21C7828F22B
:010DC400220C
:0A0EEA00C2A47F05120D52D2A4220B
:1007E80075DCC07856E4F208741DF218E2FC08E2E1
:0807F800FDECF5D1EDF5D9226D
:10080000EF14601F14603114604324037053785652
:10081000E4F208740DF218E2FC08E2FDECF5D2ED0A
:10082000F5DA2278567401F208E4F218E2FC08E2E4
:10083000FDECF5D3EDF5DB227856E4F2087480F296
:1008400018E2FC08E2FDECF5D5EDF5DD227856E482
:10085000F2087440F218E2FC08E2FDECF5D6EDF582
:02086000DE2296
:080EF400E4FF1208000207E808
:0705B1007874ECF208EDF292
:1005B8007E007C2B7D33120174E47B0CFAF9F8126F
:1005C80000E2C3E49FFFE49E7858F2785AEFF2788D
:1005D80074E2FE08E2FFEE3395E0FDFCE47B0BFAE3
:1005E800F9F8120057E47B0CFAF9F81200E2C3E4B8
:1005F8009FFFE49EAD07FF7859F2AE05785BEEF2F7
:100608007589117858E2F58C785AE2F58A8F8D8EC3
:0D0618008BD2A9C28CD2ABD28ED2BBD2AF96
:0106250022B2
:100C41007E007C2B7D33120174E47B0CFAF9F812DF
:100C510000E2C3E49FFFE49E7858F2785AEFF27500
:040C61008921C28C97
:010C6500226C
:040F040043870122FC
:100DA20053A2BF75985A758920758BFD758DFDD23A
:020DB2008E228F
:080EFC008F993099FDC2992283
:100C1600785CEBF208EAF208E9F2AF051DEF601A1C
:100C2600785CE2FB0808E2F92401F218E2FA3400E3
:0B0C3600F212003EFF120EFC80E022D4
:03046700815F01B1
:0409F200D2947F0E0E
:0409F600786AEFF23A
:1009FA00C2A07F647E00120C66D2A07F967E00128F
:100A0A000C66E4786BF2786AE2FF08E2C39F501939
:100A1A00D2A17F147E00120CEEC2A17F147E0012B6
:090A2A000CEE786BE204F280DDB1
:010A330022A0
:100D2000C294C2A1C2A07F5E7E01120CEED2A07F4F
:090D30005E7E01120CEED2942249
:10096500785FE224FE602704703D1209F27F2D12A4
:100975000D527F121209F67F32120D527F0B1209AA
:10098500F67F46120D52C294785F7402F222120964
:10099500F27F28120D527F0C1209F67F3C120D5280
:0809A500C294785F7401F22294
:0F0DC500D2947F061209F67F50120D52C294226B
:100D6900D2947F061209F6120CA0120CA0120CA044
:030D7900C29422FF
:0E0ED100120D697F0A120D52120D69C2002225
:100D7C00D2947F021209F67F5A120D52C2947F1E32
:030D8C00020D5203
:0F0DD400D2947F1B1209F67F8C120D52C294220B
:0F0DE300D2947F031209F67FB4120D52C29422EC
:100D8F00D2947F161209F67FB4120D52C2947F14BB
:030D9F00020D52F0
:0F0DF200D2947F171209F67F3C120D52C2942241
:100D3900D2947F181209F67F3C120D527F0D1209C9
:090D4900F67F46120D52C29422FD
:0F0E0100D2947F131209F67F50120D52C2942221
:0F0E1000D2947F141209F67F78120D52C29422E9
:0F0E1F00D2947F131209F67F96120D52C29422BD
:0F0E2E00D2947F091209F67F78120D52C29422D6
:0B0EDF001209F27F78120D52C294221B
:0F0E3D00D2947F041209F67F96120D52C29422AE
:0F0E4C00D2947F031209F67F8C120D52C29422AA
:0F0E5B00D2947F021209F67F78120D52C29422B0
:0F0E6A00D2947F071209F67F50120D52C29422C4
:0F0E7900D2947F0B1209F67F32120D52C29422CF
:0F0E8800D2947F0F1209F67F32120D52C29422BC
:0F0E9700D2947F0C1209F67F50120D52C2942292
:0F0EA600D2947F0D1209F67F50120D52C2942282
:03000000020525D1
:0C052500787FE4F6D8FD75812302056C98
:10003E00BB010689828A83E0225002E722BBFE02C0
:09004E00E32289828A83E49322F3
:10005700E88FF0A4CC8BF0A42CFCE98EF0A42CFC48
:100067008AF0EDA42CFCEA8EF0A4CDA8F08BF0A4C6
:100077002DCC3825F0FDE98FF0A42CCD35F0FCEB25
:100087008EF0A4FEA9F0EB8FF0A4CFC5F02ECD39EA
:0F009700FEE43CFCEAA42DCE35F0FDE43CFC2257
:1000A60075F008758200EF2FFFEE33FECD33CDCC11
:1000B60033CCC58233C5829BED9AEC99E582984094
:1000C6000CF582EE9BFEED9AFDEC99FC0FD5F0D671
:1000D600E4CEFBE4CDFAE4CCF9A88222B800C1B99B
:1000E6000059BA002DEC8BF084CFCECDFCE5F0CBD9
:1000F600F97818EF2FFFEE33FEED33FDEC33FCEB12
:1001060033FB10D703994004EB99FB0FD8E5E4F9CC
:10011600FA227818EF2FFFEE33FEED33FDEC33FCB9
:10012600C933C910D7059BE99A4007EC9BFCE99AAD
:10013600F90FD8E0E4C9FAE4CCFB2275F010EF2FF2
:10014600FFEE33FEED33FDCC33CCC833C810D707F2
:100156009BEC9AE899400AED9BFDEC9AFCE899F82D
:0E0166000FD5F0DAE4CDFBE4CCFAE4C8F922C0
:10017400EC8EF0A4CCC5F0CCCDF8EFA4CEC5F02D18
:10018400FDE43CFCE8A42EC8C5F03DFDE43CFCEFD6
:0D019400A4FFE5F028FEE43DFDE43CFC2264
:10053100020914E493A3F8E493A34003F68001F2C3
:1005410008DFF48029E493A3F85407240CC8C333CB
:10055100C4540F4420C8834004F456800146F6DF9A
:10056100E4800B01020408102040809003A2E47E85
:10057100019360BCA3FF543F30E509541FFEE4938F
:10058100A360010ECF54C025E060A840B8E493A356
:10059100FAE493A3F8E493A3C8C582C8CAC583CA81
:1005A100F0A3C8C582C8CAC583CADFE9DEE780BE39
:01046A000091
:00000001FF
