:10023200C104C110C10AC10C014800014900C10931
:10024200C1110131000239000001440001370002EE
:100252004A0000C10101230002350000013C0001F7
:100262004600015200012800024200000729000056
:100272000000000000C10601300001270001380023
:10028200C180015000015100013E00013D00024EBB
:100292000000C103013F0002330000013200C10F20
:1002A200012400C10202250000C10B02400000C16E
:1002B20008C10D014500C105014700C107C10E0279
:0602C2004C0000013B00AE
:1009BD007D647C007F321203DAC2A4D2A0D28C12E5
:0409CD000B5080FB50
:03000B000206DB0F
:1006DB00C0E0C0D085638C85658A0543E543700215
:1006EB000542C3940AE542940040087542007543E5
:1006FB0000B2A730A40E053BE53BC3943240057511
:09070B003B00C2A4D0D0D0E032C2
:03001B0002055E7D
:10055E00C0E0C0F0C083C082C0D075D000C000C063
:10056E0001C002C003C004C005C006C00785648D6B
:10057E0085668B12044C12078530060DC206E52BDC
:10058E00243F7005D2A4753B00D007D006D005D00D
:10059E0004D003D002D001D000D0D0D082D083D0EE
:0405AE00F0D0E03277
:10036600E4FAEF6405703343F620C2F8C2F9D2FA14
:1003760043E180C2FCD2FBADF8EDC413135403FD78
:10038600AFE2AB07EB7E007802C333CE33CED8F9AB
:100396007C002DFBEC3EAF03FE22EF640670344377
:1003A600F640D2F8C2F9D2FA43E180C2FCD2FBADE4
:1003B600F8EDC413135403FDAFE27A00AB07EB7EEE
:1003C600007802C333CE33CED8F97C002DFBEC3E49
:0303D600FEAF0374
:0103D9002201
:100181008E1E8F1FC3E51F9401E51E9403400BD201
:10019100947F1C1207187F3C411DC3E51F9401E5A4
:1001A1001E94035016C3E51F94F4E51E9402400B00
:1001B100D2947F0A1207187F648061C3E51F94F40B
:1001C100E51E94025016C3E51F94E5E51E94024016
:1001D1000BD2947F091207187F648040C3E51F94F6
:1001E100E5E51E94025016C3E51F94D5E51E940261
:1001F100400BD2947F081207187F64801FC3E51F4C
:1002010094D5E51E9402501AC3E51F94C8E51E94C7
:1002110002400FD2947F071207187F641209A6C209
:100221009422C3E51F94C8E51E94025003120A19D3
:0102310022AA
:0C02C8000713000000000000000112FFFE
:100650007569AAE4F568E4F567E569C2907D157CE3
:10066000007F17120856D290E56925E0F5697D15DF
:100670007C007F2B1208560567E567C3940840D9B4
:100680007569AA7D157C007F171208560568E56814
:07069000C3940340C1D290A6
:010697002240
:0205B2008F6A4E
:1005B400E4F56BE4F56C7413256BF8E630E70BC2D5
:1005C40090E56AFD7C007F248009C290E56AFD7C89
:1005D400007F17120856D2907413256BF8C000E6FA
:1005E40025E0D000F6E56AFD7C007F0F1208560571
:1005F4006CE56CC3940840BE056BE56BC394034083
:01060400B243
:0106050022D2
:1008F3008F6D8C6E8D6FD2937F141209A6C2A7756C
:1009030013C87514E0856D15120650AF6F1205B24A
:05091300D2A7C29322EF
:10087E008F708C718D72D2937F141209A6C2A775D8
:10088E0013C87514E0857015120650AF721205B2BA
:07089E00C2A7C293C2902221
:10080000D2937F141209A6C2A7E4F513F514F515C7
:100810007516137517EC8512181206507B007A00B6
:0C08200079137D06120918D2A7C293229A
:10044C0020910D0551E551B47803E4F551C2002219
:10045C00200038D200E551D394234012E551D394B7
:10046C0050500BE52725E0F5275327FE8010E5516A
:10047C00D394504010E52725E0F527432701053894
:10048C00E4F55080020550E4F551220550E550C3C7
:0C049C00943C4007E4F538D200F5302213
:10078500E53864087030F53874292530F8A627E572
:10079500307009E529B4C80475300122E530B4018B
:1007A50009E52AB4E00475300222E530B40204D22A
:0707B500068000E4F530228C
:0404A8008C1A8D1B02
:1004AC007513C87514E08F15E4F51CE4F51D741371
:1004BC00251CF8E630E70AC2A2AD1BAC1A7F2480DB
:1004CC0008C2A2AD1BAC1A7F17120856D2A2741325
:1004DC00251CF8C000E625E0D000F6AD1BAC1A7F59
:1004EC000F120856051DE51DC3940840C1051CE5F7
:0604FC001CC3940340B58F
:0105020022D6
:040503008C538D5434
:100507007513C87514E08F15E4F555E4F5567413A3
:100517002555F8E630E70AC281AD54AC537F2480F5
:1005270008C281AD54AC537F17120856D281741399
:100537002555F8C000E625E0D000F6AD54AC537F52
:100547000F1208560556E556C3940840C10555E5F0
:0605570055C3940340B5FA
:01055D00227B
:1009A600AE071FEE60107C137D88ED1DAA04700152
:0609B6001C4A60EC80F415
:0109BC002218
:10085600E4FBFAEFF582C3EB9582EA94005018E4C4
:10086600FEEEC39DEC6480F874809850030E80F110
:070876000BBB00010A80DC4E
:01087D002258
:10093C00E4FDFCC3ED9FEC9E5015E4FBFA0BBB00F1
:0F094C00010AEB64644A70F50DBD00010C80E4F4
:01095B002279
:10098E00E4FDFCC3ED9FEC9E500DE4FB0BBB04FCA1
:07099E000DBD00010C80EC0F
:0109A500222F
:1007BC00E4F9E4FAFBC3EB9FEA9E50070BBB000184
:1007CC000A80F209B932EBE4F9209215E4FAFBC382
:1007DC00EB9DEA9C50070BBB00010A80F209B93271
:0107EC00E824
:0107ED0022E9
:0202D400C11255
:0D000E00120975D212E4F5477F140209A60D
:100A0900120A46AF34AE3312018112069802074D1D
:1008A5008E578F588C598D5AEBFD7C007FC11204F1
:1008B500A8C2A2D2A3AD5AAC59AF58AE571207BCC5
:0708C500D2A2D2A3C28522DA
:1008CC008E5B8F5C8C5D8D5EEBFD7C007FC11205B9
:1008DC0003C2A2D2A3AD5EAC5DAF5CAE5B1207BC33
:0708EC00C2A2C2A3C28522D3
:0E0B0900D285D2A2C2A31207BCD2A2D2A322CE
:0E0B1700D285D2A2C2A31207BCC2A2C2A322E0
:10074D00C210C205C209C211E4F523F53CF531F51D
:10075D0035F536F539F53AF54AF54BF537F544C229
:10076D0004C20AF548C20CF549C201F532C208C2ED
:08077D0012F547C20FF524221A
:0E0B2500D210D205E4F523F53CC212F54722AA
:0A0B3E00C2A47F051209A6D2A4226A
:1007EE0075DCC075760075771DE576F5D1E577F584
:0207FE00D922FE
:10060600EF1460191460251460312403703B75766D
:100616000075770DE576F5D2E577F5DA2275760180
:10062600757700E576F5D3E577F5DB227576007507
:100636007780E576F5D5E577F5DD22757600757771
:0A06460040E576F5D6E577F5DE22F3
:08000300E4FF1206060207EEFD
:0403DA008C088D09F5
:1003DE007E007C2B7D33120154E47B0CFAF9F8126B
:1003EE0000C28F0D8E0C8D0B8C0AC3E49FFFE49E12
:1003FE00F5638F65AE08AF09EE3395E0FDFCE47B47
:10040E000BFAF9F8120037E47B0CFAF9F81200C275
:10041E008F118E108D0F8C0EC3E49FFFE49EF5643A
:10042E008F6675891185638C85658A85648D856671
:0D043E008BD2A9C28CD2ABD28ED2BBD2AF72
:01044B00228E
:10082C007E007C2B7D33120154E47B0CFAF9F81218
:10083C0000C28F628E618D608C5FC3E49FFFE49E6B
:09084C00F5638F65758921C28CEA
:010855002280
:040B500043870122B4
:1009F70053A2BF75985A758920758BFD758DFDD2E9
:020A07008E223D
:080B48008F993099FDC299223A
:100918008B738A748975AF051DEF6017AB73057506
:10092800E575AA747002057414F912001EFF120B03
:040938004880E322EE
:0302D600017A01A9
:04071400D2947F0EEE
:020718008F78D8
:10071A00C2A07F647E0012093CD2A07F967E00129E
:10072A00093CE4F579E579C395785016D2A17F148E
:10073A007E0012098EC2A17F147E0012098E0579ED
:02074A0080E34A
:01074C00228A
:10095C00C294C2A1C2A07F5E7E0112098ED2A07F7A
:09096C005E7E0112098ED2942274
:10069800E57A24FE60250470391207147F2D1209AB
:1006A800A67F121207187F321209A67F0B120718AD
:1006B8007F461209A6C294757A02221207147F286F
:1006C8001209A67F0C1207187F3C1209A6C294755E
:0306D8007A012282
:0F0A1900D2947F061207187F501209A6C29422AA
:1009D100D2947F021207187F5A1209A6C2947F1E71
:0309E1000209A662
:0F0A2800D2947F1B1207187F8C1209A6C294224A
:0F0A3700D2947F031207187FB41209A6C294222B
:1009E400D2947F161207187FB41209A6C2947F14FA
:0309F4000209A64F
:0F0A4600D2947F171207187F3C1209A6C2942280
:10097500D2947F181207187F3C1209A67F0D120723
:09098500187F461209A6C2942253
:0F0A5500D2947F131207187F501209A6C2942261
:0F0A6400D2947F141207187F781209A6C2942229
:0F0A7300D2947F131207187F961209A6C29422FD
:0F0A8200D2947F091207187F781209A6C2942216
:0B0B33001207147F781209A6C294225A
:0F0A9100D2947F041207187F961209A6C29422EE
:0F0AA000D2947F031207187F8C1209A6C29422EA
:0F0AAF00D2947F021207187F781209A6C29422F0
:0F0ABE00D2947F071207187F501209A6C2942204
:0F0ACD00D2947F0B1207187F321209A6C294220F
:0F0ADC00D2947F0F1207187F321209A6C29422FC
:0F0AEB00D2947F0C1207187F501209A6C29422D2
:0F0AFA00D2947F0D1207187F501209A6C29422C2
:030000000202DA1F
:0C02DA00787FE4F6D8FD75817A020321DC
:10001E00BB010689828A83E0225002E722BBFE02E0
:09002E00E32289828A83E4932213
:10003700E88FF0A4CC8BF0A42CFCE98EF0A42CFC68
:100047008AF0EDA42CFCEA8EF0A4CDA8F08BF0A4E6
:100057002DCC3825F0FDE98FF0A42CCD35F0FCEB45
:100067008EF0A4FEA9F0EB8FF0A4CFC5F02ECD390A
:0F007700FEE43CFCEAA42DCE35F0FDE43CFC2277
:1000860075F008758200EF2FFFEE33FECD33CDCC31
:1000960033CCC58233C5829BED9AEC99E5829840B4
:1000A6000CF582EE9BFEED9AFDEC99FC0FD5F0D691
:1000B600E4CEFBE4CDFAE4CCF9A88222B800C1B9BB
:1000C6000059BA002DEC8BF084CFCECDFCE5F0CBF9
:1000D600F97818EF2FFFEE33FEED33FDEC33FCEB32
:1000E60033FB10D703994004EB99FB0FD8E5E4F9ED
:1000F600FA227818EF2FFFEE33FEED33FDEC33FCDA
:10010600C933C910D7059BE99A4007EC9BFCE99ACD
:10011600F90FD8E0E4C9FAE4CCFB2275F010EF2F12
:10012600FFEE33FEED33FDCC33CCC833C810D70712
:100136009BEC9AE899400AED9BFDEC9AFCE899F84D
:0E0146000FD5F0DAE4CDFBE4CCFAE4C8F922E0
:10015400EC8EF0A4CCC5F0CCCDF8EFA4CEC5F02D38
:10016400FDE43CFCE8A42EC8C5F03DFDE43CFCEFF6
:0D017400A4FFE5F028FEE43DFDE43CFC2284
:1002E6000209BDE493A3F8E493A34003F68001F268
:1002F60008DFF48029E493A3F85407240CC8C33319
:10030600C4540F4420C8834004F456800146F6DFE7
:10031600E4800B0102040810204080900232E47E43
:10032600019360BCA3FF543F30E509541FFEE493DC
:10033600A360010ECF54C025E060A840B8E493A3A3
:10034600FAE493A3F8E493A3C8C582C8CAC583CACE
:10035600F0A3C8C582C8CAC583CADFE9DEE780BE86
:0102D9000024
:00000001FF
