:10054B00C105C115C10EC110014900014A00C10A04
:10055B00C116013200023A000001460001380002C8
:10056B004B0000C10101230002360000013D0001D8
:10057B00530001290002440000072A00000000007C
:10058B000000C107013100012800013900C18001C1
:10059B005100015200014000013E00024F0000C11A
:1005AB0004014101013C0002340000013300C1147D
:1005BB00012400C10302260000C10F02420000C14A
:1005CB00090125FFC111014700C106014800C108FF
:1005DB00C113024D0000013F00C10DC192C10CC1FE
:0305EB008BC1823F
:100A93007D647C007F011207AFC206C215120C4CA5
:100AA300C294D284D283D290D287D2A7D293D2A235
:100AB300D2A3D2A6D281D28CD2853080032087FAEA
:090AC300D20FE4F542F54380F185
:03000B0002001ED2
:10001E00C0E0C0F0C083C082C0D075D000C000C0A8
:10002E0001C002C003C004C005C006C007855B8CBA
:10003E00855D8A0545E54570020544C394D0E544C7
:10004E00940750030200FB7544007545007F0612AD
:10005E00073B8E348F35053FE53FC394015016E5BF
:10006E004164016005E53CB4010E7D1C7C007FC13E
:10007E00120C0B8003753F1F0547E547D3940440D0
:10008E000D754708D20B201705300C02D21730170A
:10009E0014300C110548E548C39405400875480016
:1000AE00C217120E05300E21E549C39404501AD220
:1000BE0005300C03120D250549E549C3940440098A
:1000CE00754900C20EC205C208301021E54AC3941C
:1000DE0004501AD205300C03120CC0054AE54AC36F
:1000EE0094044009754A00C210C205C20830A52208
:1000FE00E541701E30021B7F05120C9630A513755C
:10010E004101753C00754700C211C20B753F1F12AD
:10011E000A58E5416401702530112220121F300269
:10012E001C7B1C7DA07C0F7FD07E07120BC07547F9
:10013E0000C211120CF7D212C20C753F1F20A51D62
:10014E00E53C70193002167F05120C9620A50E752F
:10015E004100753C01753F1FD217754800300B2CBE
:10016E00200C29300226200F23201320AF35AE3469
:10017E001205FD7D107C277F707E17120DF7120081
:10018E000E753F1FC20BC212D20CC211308003205B
:10019E008708D20F754200754300300F190543E5ED
:1001AE004370020542D394A0E542940F4008C20F5B
:1001BE00754200754300308208D213754D00754E9E
:1001CE0000301319054EE54E7002054DC394A0E59F
:1001DE004D940F4008C213754D00754E00208403D8
:1001EE00020306208303020306200603020306E52C
:1001FE002314603114606D240260030202C130804A
:10020E000320871B200518053DE53DC394025003CE
:10021E000202C1753D00752301120CAD0202C175BB
:10022E003D000202C13080032087140532E532C33F
:10023E009402400E753200752302120D168003755E
:10024E0032000537E53770020536C394A0E53694C3
:10025E000F4060752300753200753D0075360075D0
:10026E003700804F3080032087140538E538C3945B
:10027E0001400E753800D20ED210D20880037538A8
:10028E0000053BE53B7002053AC394A0E53A940F96
:10029E004021752300753D007532007536007537A7
:1002AE0000753A00753B00754B03754C2075380090
:1002BE0075460020811AE533C3943350130533E598
:1002CE003394324018D20ED210753333D209800DCA
:1002DE0030810A200807753300C20EC210C3E53400
:1002EE0094015004D2148010D3E5359400E5349473
:1002FE00024005C214752400301548208417053EAF
:10030E00E53EC394034018D216C20A753E0B200474
:10031E000ED201800AC216755300753E00C201202E
:10032E0083170540E540C394034018D20AC21675E0
:10033E00400B20040ED201800AC20A7529007540B6
:10034E0000C20130013C0550E5507002054FC394C8
:10035E00A0E54F940F402BC201754F00755000D28F
:10036E0004752300753D0075320075360075370033
:10037E00753A00753B00754B03754C20753800754A
:10038E00460030870320801ED3E5279488E5269407
:10039E001340137F03120C96308703208008D2037C
:1003AE007526007527000527E52770020526C394DC
:1003BE0088E52694134008752613752789C203D045
:1003CE0007D006D005D004D003D002D001D000D083
:0A03DE00D0D082D083D0F0D0E032FE
:03001B000208D800
:1008D800C0E0C0F0C083C082C0D075D000C000C0E6
:1008E80001C002C003C004C005C006C007855C8DF6
:1008F800855E8B120821120B05300710C207E52C04
:10090800243F7008D211754700120A58D007D00644
:10091800D005D004D003D002D001D000D0D0D082EE
:07092800D083D0F0D0E032D3
:10073B00E4FAEF6405703343F620C2F8C2F9D2FA3B
:10074B0043E180C2FCD2FBADF8EDC413135403FD9F
:10075B00AFE2AB07EB7E007802C333CE33CED8F9D2
:10076B007C002DFBEC3EAF03FE22EF64067034439E
:10077B00F640D2F8C2F9D2FA43E180C2FCD2FBAD0B
:10078B00F8EDC413135403FDAFE27A00AB07EB7E15
:10079B00007802C333CE33CED8F97C002DFBEC3E70
:0307AB00FEAF039B
:0107AE002228
:1005FD008E088F09C3E50994A4E5089402400CD236
:10060D00947F1C120AD07F3C02069AC3E50994A27E
:10061D00E50894025016C3E5099491E5089402404B
:10062D000BD2947F0A120AD07F648061C3E50994CE
:10063D008FE50894025016C3E509947CE5089402F1
:10064D00400BD2947F09120AD07F648040C3E50924
:10065D00947AE50894025016C3E5099463E508946D
:10066D0002400BD2947F08120AD07F64801FC3E52D
:10067D00099461E5089402501AC3E5099450E50800
:10068D009402400FD2947F07120AD07F64120C9609
:10069D00C29422C3E509944EE50894025003120D4D
:0206AD00072222
:0905EE00075400000000000000A9
:1009CD00750CAAE4F50BE4F50AE50CC2907D157CD7
:1009DD00007F17120B98D290E50C25E0F50C7D15D4
:1009ED007C007F2B120B98050AE50AC3940840D9A9
:1009FD00750CAA7D157C007F17120B98050BE50B66
:070A0D00C3940340C1D29025
:010A140022BF
:02092F008F0A2D
:10093100E4F50BE4F50C7454250BF8E630E70BC233
:1009410090E50AFD7C007F248009C290E50AFD7CC8
:10095100007F17120B98D2907454250BF8C000E653
:1009610025E0D000F6E50AFD7C007F0F120B98050B
:100971000CE50CC3940840BE050BE50BC394034082
:01098100B2C3
:010982002252
:100C0B008C088D09D293D2A6C2A77554C87555E02E
:100C1B008F561209CDAF0912092FD2A7C293D2A6B4
:010C2B0022A6
:1008210020910D0552E552B47803E4F552C200223D
:10083100200038D200E552D394234012E552D394DC
:1008410050500BE52825E0F5285328FE8010E5528D
:10085100D394504010E52825E0F5284328010539B7
:10086100E4F55180020551E4F552220551E551C3E9
:0C087100943C4007E4F539D200F5312238
:100B0500E53964087030F539742A2531F8A628E5E9
:100B1500317009E52AB4C80475310122E531B40103
:100B250009E52BB4E00475310222E531B40204D2A3
:070B3500078000E4F5312206
:04087D008C0C8D0D45
:100881007554C87555E08F56E4F50EE4F50F7454B0
:10089100250EF8E630E70AC2A2AD0DAC0C7F24802C
:1008A10008C2A2AD0DAC0C7F17120B98D2A27454E2
:1008B100250EF8C000E625E0D000F6AD0DAC0C7FAA
:1008C1000F120B98050FE50FC3940840C1050EE503
:0608D1000EC3940340B5C4
:0108D70022FE
:100C9600AE071FEE60107C137D88ED1DAA0470015F
:060CA6001C4A60EC80F422
:010CAC002225
:100B9800E4FBFAEFF582C3EB9582EA94005018E47F
:100BA800FEEEC39DEC6480F874809850030E80F1CB
:070BB8000BBB00010A80DC09
:010BBF002213
:100C2C00E4FDFCC3ED9FEC9E5015E4FBFA0BBB00FE
:0F0C3C00010AEB64644A70F50DBD00010C80E401
:010C4B002286
:100C7E00E4FDFCC3ED9FEC9E500DE4FB0BBB04FCAE
:070C8E000DBD00010C80EC1C
:010C9500223C
:100B3C00E4F9E4FAFBC3EB9FEA9E50070BBB000100
:100B4C000A80F209B932EBE4F9209215E4FAFBC3FE
:100B5C00EB9DEA9C50070BBB00010A80F209B932ED
:010B6C00E8A0
:010B6D002265
:0205F700C1172A
:0D000E00120C65D217E4F5487F14020C9621
:100CF700120D34AF35AE341205FD120A15020A582B
:100BC0008E088F098C0A8D0BEBFD7C007FC112080B
:100BD0007DC2A2D2A3AD0BAC0AAF09AE08120B3C8A
:070BE000D2A2D2A3C28522BC
:0E0DF700D285D2A2C2A3120B3CD2A2D2A3225A
:100A5800C215C206C20AC216E4F523F53DF532F501
:100A680036F537F53AF53BF54BF54CF538F546C212
:100A780005C20EF549C210F54AC201F533C209C2D2
:0B0A880017F548300204C214F52422C8
:0E0E0500D215D206E4F523F53DC217F54822BA
:0A0E1E00C2A47F0A120C96D2A4228F
:100CD30075DCC0751E00751F1DE51EF5D1E51FF5FA
:020CE300D92214
:10098300EF1460191460251460312403703B751E45
:1009930000751F0DE51EF5D2E51FF5DA22751E0160
:1009A300751F00E51EF5D3E51FF5DB22751E0075E7
:1009B3001F80E51EF5D5E51FF5DD22751E00751FA9
:0A09C30040E51EF5D6E51FF5DE2223
:08000300E4FF120983020CD393
:100CE50053A2BF75985A758920758BFD758DFDD2F8
:020CF5008E224D
:080E28008F993099FDC2992257
:100BE7008B5F8A608961AF051DEF6017AB5F056199
:100BF700E561AA607002056014F91203E8FF120E9E
:040C07002880E3223C
:0305F9000162019B
:040ACC00D2947F1130
:020AD0008F0A8B
:100AD200C2A07F647E00120C2CD2A07F967E0012F0
:100AE2000C2CE4F50BE50BC3950A5016D2A17F142A
:100AF2007E00120C7EC2A17F147E00120C7E050BBA
:020B020080E38E
:010B040022CE
:100C4C00C294C2A1C2A07F5E7E01120C7ED2A07F94
:090C5C005E7E01120C7ED294228E
:100A1500E56224FE6025047039120ACC7F28120C89
:100A2500967F12120AD07F32120C967F0B120AD0D3
:100A35007F46120C96C29475620222120ACC7F235D
:100A4500120C967F0C120AD07F3C120C96C294753C
:030A550062012219
:0F0D0700D2947F06120AD07F50120C96C294220B
:100CAD00D2947F02120AD07F5A120C96C2947F1EE4
:030CBD00020C9690
:0F0D1600D2947F1B120AD07F8C120C96C29422AB
:0F0D2500D2947F03120AD07FB4120C96C294228C
:100CC000D2947F16120AD07FB4120C96C2947F146D
:030CD000020C967D
:0F0D3400D2947F17120AD07F3C120C96C29422E1
:100C6500D2947F18120AD07F3C120C967F0D120A7F
:090C7500D07F50120C96C29422AB
:0F0D4300D2947F13120AD07F50120C96C29422C2
:0F0D5200D2947F14120AD07F78120C96C294228A
:0F0D6100D2947F13120AD07F96120C96C294225E
:0F0D7000D2947F09120AD07F78120C96C2942277
:0B0E1300120ACC7F78120C96C29422C9
:0F0D7F00D2947F04120AD07F96120C96C294224F
:0F0D8E00D2947F03120AD07F8C120C96C294224B
:0F0D9D00D2947F02120AD07F78120C96C2942251
:0F0DAC00D2947F07120AD07F50120C96C2942265
:0F0DBB00D2947F0B120AD07F32120C96C2942270
:0F0DCA00D2947F0F120AD07F32120C96C294225D
:0F0DD900D2947F0C120AD07F50120C96C2942233
:0F0DE800D2947F0D120AD07F50120C96C2942223
:0407AF008C108D110C
:1007B3007E007C2B7D3312051EE47B0CFAF9F812C4
:1007C300048C8F158E148D138C12C3E49FFFE49E4B
:1007D300F55B8F5DAE10AF11EE3395E0FDFCE47B6E
:1007E3000BFAF9F8120401E47B0CFAF9F812048C01
:1007F3008F198E188D178C16C3E49FFFE49EF55C4A
:100803008F5E758911855B8C855D8A855C8D855EC0
:0D0813008BD2A9C28CD2ABD28ED2BBD2AF99
:0108200022B5
:100B6E007E007C2B7D3312051EE47B0CFAF9F81205
:100B7E00048C8F1D8E1C8D1B8C1AC3E49FFFE49E6C
:090B8E00F55B8F5D758921D28CA5
:010B9700223B
:040E300043870122D1
:030000000206AF46
:0C06AF00787FE4F6D8FD7581620206F643
:1003E800BB010689828A83E0225002E722BBFE0213
:0903F800E32289828A83E4932246
:10040100E88FF0A4CC8BF0A42CFCE98EF0A42CFC9A
:100411008AF0EDA42CFCEA8EF0A4CDA8F08BF0A418
:100421002DCC3825F0FDE98FF0A42CCD35F0FCEB77
:100431008EF0A4FEA9F0EB8FF0A4CFC5F02ECD393C
:0F044100FEE43CFCEAA42DCE35F0FDE43CFC22A9
:1004500075F008758200EF2FFFEE33FECD33CDCC63
:1004600033CCC58233C5829BED9AEC99E5829840E6
:100470000CF582EE9BFEED9AFDEC99FC0FD5F0D6C3
:10048000E4CEFBE4CDFAE4CCF9A88222B800C1B9ED
:100490000059BA002DEC8BF084CFCECDFCE5F0CB2B
:1004A000F97818EF2FFFEE33FEED33FDEC33FCEB64
:1004B00033FB10D703994004EB99FB0FD8E5E4F91F
:1004C000FA227818EF2FFFEE33FEED33FDEC33FC0C
:1004D000C933C910D7059BE99A4007EC9BFCE99A00
:1004E000F90FD8E0E4C9FAE4CCFB2275F010EF2F45
:1004F000FFEE33FEED33FDCC33CCC833C810D70745
:100500009BEC9AE899400AED9BFDEC9AFCE899F87F
:0E0510000FD5F0DAE4CDFBE4CCFAE4C8F92212
:10051E00EC8EF0A4CCC5F0CCCDF8EFA4CEC5F02D6A
:10052E00FDE43CFCE8A42EC8C5F03DFDE43CFCEF28
:0D053E00A4FFE5F028FEE43DFDE43CFC22B6
:1006BB00020A93E493A3F8E493A34003F68001F2B8
:1006CB0008DFF48029E493A3F85407240CC8C33340
:1006DB00C4540F4420C8834004F456800146F6DF0F
:1006EB00E4800B010204081020408090054BE47E4F
:1006FB00019360BCA3FF543F30E509541FFEE49304
:10070B00A360010ECF54C025E060A840B8E493A3CA
:10071B00FAE493A3F8E493A3C8C582C8CAC583CAF5
:10072B00F0A3C8C582C8CAC583CADFE9DEE780BEAD
:0105FC0000FE
:00000001FF
