:1005DE00C104C110C10AC10C014900014A00C10980
:1005EE00C111013200023A0000014500013800023B
:1005FE004B0000C10101230002360000013D000145
:10060E00470001530001290002430000072A0000A1
:10061E000000000000C10601310001280001390070
:10062E00C180015100015200013F00013E00024F06
:10063E000000C103014001013C00023400000133FF
:10064E0000C10F012400C10202260000C10B0241AD
:10065E000000C1080125FFC10D014600C10501487A
:09066E0000C107C10E024D00009D
:100CAE00120FD57F01120E73C299C298D2ACD2A97F
:100CBE00D2BCD2AFC205C210120F19C294D284D2C6
:100CCE0083D290D287D2A7C293754706D2A2D2A35F
:100CDE00D2A6D281D2853080032087FAD20BE4F5DA
:050CEE0041F54280F118
:03000B00020026CA
:10002600C0E0C0F0C083C082C0D075D000C000C0A0
:1000360001C002C003C004C005C006C007851B8CF2
:10004600851D8A0544E54470020543C394D0E54303
:10005600940750030201307543007544007F061271
:1000660007B78E348F3530090CE529C39405500542
:100076001209BA052930110CE553C394055005122F
:10008600095B0553300F12E524C39404500B20A5D9
:100096000812089D12104D0524300D160546E5463A
:1000A600C3940F400D754600C20DE53CB401031222
:1000B600110530121720A514200B110548E548C379
:1000C60094054008754800C212121105300A2CE545
:1000D60049C394045025D20420A50E200805120811
:1000E600FC8003120A1912102B0549E549C3940432
:1000F6004009754900C20AC204C207300C2CE54A01
:10010600C394045025D20420A50E2008051208FC2D
:100116008003120A19120FA8054AE54AC39404403F
:1001260009754A00C20CC204C20730A51EE540701C
:100136001A300D177F05FE120EFE30A50E120FBFE8
:10014600754001753C00754600C20D20A523E53CAF
:10015600701F200B1C200E197F05FE120EFE20A517
:1001660010AF35AE3412052A754000753C01120FEA
:10017600E7308003208708D20B75410075420030B6
:100186000B190542E54270020541D394D0E541942E
:10019600074008C20B754100754200308208D20E36
:1001A600754D00754E00300E19054EE54E70020570
:1001B6004DC394D0E54D94074008C20E754D0075A9
:1001C6004E002084030202E32083030202E320059B
:1001D600030202E3E52314603114606D2402600318
:1001E60002029E30800320871B200418053DE53D52
:1001F600C39402500302029E753D00752301120F3F
:100206007A02029E753D0002029E3080032087140A
:100216000532E532C39402400E7532007523021290
:100226000F9180037532000537E53770020536C336
:1002360094A0E536940F4060752300753200753D35
:1002460000753600753700804F308003208714050F
:1002560038E538C39401400E753800D20AD20CD264
:10026600078003753800053BE53B7002053AC394E9
:10027600A0E53A940F4021752300753D00753200C4
:10028600753600753700753A00753B00754B03757A
:100296004C2075380075450020811AE533C3943328
:1002A60050130533E53394324018D20AD20C753315
:1002B60033D208800D30810A200707753300C20A41
:1002C600C20CC3E53494015004D20F8010D3E53537
:1002D6009400E53494024005C20F7524003010489E
:1002E600208417053EE53EC394034018D211C20987
:1002F600753E0B20030ED201800AC211755300759C
:100306003E00C201208317053FE53FC39403401812
:10031600D209C211753F0B20030ED201800AC20911
:10032600752900753F00C20130013C0550E550704B
:1003360002054FC394A0E54F940F402BC201754FA1
:1003460000755000D203752300753D0075320075A7
:100356003600753700753A00753B00754B03754CD2
:1003660020753800754500308703208020D3E527A7
:100376009488E526941340157F037E00120EFE3006
:100386008703208008D2027526007527000527E519
:100396002770020526C39488E5269413400875261F
:1003A60013752789C202D007D006D005D004D00322
:1003B600D002D001D000D0D0D082D083D0F0D0E00F
:0103C6003204
:030023000206864C
:10068600C0E0C0F0C083C082C0D075D000C000C03A
:1006960001C002C003C004C005C006C00730986A86
:1006A600C298742A2531F8A699E5317009E52A70B1
:1006B600057531018054E531B40109E52B700575E6
:1006C60031028046E531B40209E52C700575310327
:1006D6008038E531B4030AE52DB41305753104807D
:1006E60029E531B4040AE52EB4EC05753105801A06
:1006F600E531B40512E52FB5250D753100D20D751E
:100706004600120DE78003753100D007D006D005EC
:10071600D004D003D002D001D000D0D0D082D08374
:05072600D0F0D0E0322C
:1007B700E4FAEF6405703343F620C2F8C2F9D2FABF
:1007C70043E180C2FCD2FBADF8EDC413135403FD23
:1007D700AFE2AB07EB7E007802C333CE33CED8F956
:1007E7007C002DFBEC3EAF03FE22EF640670344322
:1007F700F640D2F8C2F9D2FA43E180C2FCD2FBAD8F
:10080700F8EDC413135403FDAFE27A00AB07EB7E98
:10081700007802C333CE33CED8F97C002DFBEC3EF3
:03082700FEAF031E
:01082A0022AB
:10052A008E128F13C3E5139404E5129403400CD280
:10053A00947F1C120D7B7F3C0205C7C3E51394020E
:10054A00E51294035016C3E51394F8E51294024099
:10055A000BD2947F0A120D7B7F648061C3E51394EA
:10056A00F6E51294025016C3E51394E7E5129402D5
:10057A00400BD2947F09120D7B7F648040C3E51340
:10058A0094E5E51294025016C3E51394D5E5129446
:10059A0002400BD2947F08120D7B7F64801FC3E553
:1005AA001394D3E5129402501CC3E51394C6E512C2
:1005BA0094024011D2947F07120D7B7F647E001251
:1005CA000EFEC29422C3E51394C4E51294025003AA
:0405DA0012101A22BF
:090677000754000000000000001F
:100CF3007516AAE4F515E4F514E516C2907F507E47
:100D030000120F32D290E51625E0F5167F967E008D
:100D1300120F320514E514C3940840DD7516AA7F3B
:100D2300507E00120F320515E515C3940340C7D258
:010D3300902F
:010D3400229C
:0B0BC800C2A77554C87555E07556C1F2
:100BD3007516AAE4F515E4F514E516C2907F507E68
:100BE30000120F32D290E51625E0F5167F967E00AF
:100BF300120F320514E514C3940840DD7516AA7F5D
:100C0300507E00120F320515E515C3940340C7D279
:010C13009050
:010C140022BD
:100D35007516AAE4F515E4F514E516C2907F507E04
:100D450000120F32D290E51625E0F5167F967E004B
:100D5500120F320514E514C3940840DD7516AA7FF9
:100D6500507E00120F320515E515C3940340C7D216
:010D750090ED
:010D7600225A
:100AD400D293D2A6120BC8E4F55EE4F55F745425F4
:100AE4005EF8E630E706C2907F788004C2907F50BB
:100AF4007E00120F4AD2907454255EF8C000E62599
:100B0400E0D000F67F327E00120F4A055FE55FC336
:100B1400940840C9055EE55EC3940340BDD2A7C2F4
:030B240093D2A6C3
:010B270022AB
:100C6200120BC8E4F560E4F56174542560F8E630CF
:100C7200E706C2907F788004C2907F507E00120FF8
:100C82004AD29074542560F8C000E625E0D000F600
:100C92007F327E00120F4A0561E561C3940840C9A4
:0B0CA2000560E560C3940340BDC2A7DD
:010CAD002224
:10089D00D293C2A6C2A77554C87555E07556C2123B
:1008AD000BD3E4F512E4F51374542512F8E630E792
:1008BD0006C2907F788004C2907F507E00120F4A4E
:1008CD00D29074542512F8C000E625E0D000F67FD2
:1008DD00327E00120F4A0513E513C3940840C90573
:0E08ED0012E512C3940340BDD2A7D2A6C29357
:0108FB0022DA
:1008FC00D293C2A6C2A77554C87555E07556C312DB
:10090C000CF3E4F512E4F51374542512F8E630E711
:10091C0006C2907F788004C2907F507E00120F4AEE
:10092C00D29074542512F8C000E625E0D000F67F72
:10093C00327E00120F4A0513E513C3940840C90513
:0E094C0012E512C3940340BDD2A7D2A6C293F7
:01095A00227A
:10095B00D293C2A6C2A77554C87555E07556C4127A
:10096B000D35E4F512E4F51374542512F8E630E76F
:10097B0006C2907F788004C2907F507E00120F4A8F
:10098B00D29074542512F8C000E625E0D000F67F13
:10099B00327E00120F4A0513E513C3940840C905B4
:0E09AB0012E512C3940340BDD2A7D2A6C29398
:0109B900221B
:1009BA00D293C2A6C2A77554C87555E07556C5121A
:1009CA000D35E4F512E4F51374542512F8E630E710
:1009DA0006C2907F788004C2907F507E00120F4A30
:1009EA00D29074542512F8C000E625E0D000F67FB4
:1009FA00327E00120F4A0513E513C3940840C90555
:0E0A0A0012E512C3940340BDD2A7D2A6C29338
:010A180022BB
:100A1900D293C2A6C2A77554C87555E07556C612B9
:100A29000D35E4F512E4F51374542512F8E630E7B0
:100A390006C2907F788004C2907F507E00120F4AD0
:100A4900D29074542512F8C000E625E0D000F67F54
:100A5900327E00120F4A0513E513C3940840C905F5
:0E0A690012E512C3940340BDD2A7D2A6C293D9
:010A7700225C
:100A780020910D0552E552B47803E4F552C20022E4
:100A8800200038D200E552D394234012E552D39483
:100A980050500BE52825E0F5285328FE8010E55234
:100AA800D394504010E52825E0F52843280105395E
:100AB800E4F55180020551E4F552220551E551C390
:0C0AC800943C4007E4F539D200F53122DF
:100DB000E53964087030F539742A2531F8A628E53C
:100DC000317009E52AB4C80475310122E531B40156
:100DD00009E52BB4E00475310222E531B40204D2F6
:070DE000068000E4F531225A
:100B28007554C87555E07556C1E4F512E4F51374AB
:100B3800542512F8E630E706C2A27F788004C2A2E4
:100B48007F507E00120F4AD2A274542512F8C000BA
:100B5800E625E0D000F67F327E00120F4A0513E545
:0F0B680013C3940840C90512E512C3940340BD9E
:010B7700225B
:100B78007554C87555E07556C1E4F562E4F56374BB
:100B8800542562F8E630E706C2A37F788004C2A342
:100B98007F507E00120F4AD2A374542562F8C00019
:100BA800E625E0D000F67F327E00120F4A0563E5A5
:0F0BB80063C3940840C90562E562C3940340BD5E
:010BC700220B
:100EFE00EF1FAA0670011E4A60107C137D88ED1D3F
:0A0F0E00AA0470011C4A60E880F498
:010F180022B6
:100F3200E4FDFCC3ED9FEC9E500DE4FB0BBB15FCE6
:070F42000DBD00010C80EC65
:010F49002285
:100F4A00E4FDFCC3ED9FEC9E500DE4FB0BBB2AFCB9
:070F5A000DBD00010C80EC4D
:010F6100226D
:100EC100E4FDFCC3ED9FEC9E5015E4FBFA0BBB0067
:0F0ED100010AEB64644A70F50DBD00010C80E46A
:010EE00022EF
:100F6200E4FDFCC3ED9FEC9E500DE4FB0BBB04FCC7
:070F72000DBD00010C80EC35
:010F79002255
:100E1B00E4FDE4FEFF0FBF00010EBE0FF8BFA0F50F
:100E2B000DBD32EEE4FD209212E4FEFF0FBF000178
:0B0E3B000EBE27F8BF10F50DBD32EB16
:010E46002289
:100E4700E4FDE4FEFF0FBF00010EBE13F8BF88F5F7
:100E57000DBD32EEE4FD209212E4FEFF0FBF00014C
:0B0E67000EBE3AF8BF98F50DBD32EB4F
:010E7200225D
:10000E00E4FFE4FDFC0DBD00010CBC36F8BDB0F5FF
:04001E000FBF32EEF0
:0100220022BB
:02068000C112A5
:100FE7001210F7120EE1D212E4F5487F14FE020E3A
:010FF700FEFB
:100FBF00120FF812103CAF35AE3412052A120C1571
:060FCF00E4F547020DE706
:100FF800120B28C2A2D2A3120E1BD2A2D2A3C28560
:0110080022C5
:10100900120B78D2A2C2A312000ED2A2D2A3C28519
:0110190022B4
:0E10F700D285D2A2C2A3120E47D2A2D2A32249
:100DE700C210C205C209C211E4F523F53DF532F57B
:100DF70036F537F53AF53BF54BF54CF538F545C281
:100E070004C20AF549C20CF54AC201F533C208C249
:040E17000FF524228D
:0E110500D210D205E4F523F53DC212F54822C2
:0C112000C2A47F0A7E00120EFED2A422A0
:100FD50053A2BF75985A758920758BFD758DFDD205
:020FE5008E225A
:080003008F993099FDC299228A
:100E9D008B5B8A5C895DAF051DEF6017AB5B055DF4
:100EAD00E55DAA5C7002055C14F91203C7FF120020
:040EBD000380E322A9
:03068200011F0154
:040D7700D2947F0E85
:020D7B008F14D3
:100D7D00C2A07F647E00120EC1D2A07F967E0012AB
:100D8D000EC1E4F515E515C395145016D2A17F14C7
:100D9D007E00120F62C2A17F147E00120F62051534
:020DAD0080E3E1
:010DAF002221
:100F1900C294C2A1C2A07F5E7E01120F62D2A07FDD
:090F29005E7E01120F62D29422D7
:100C1500E51F24FE602B047043120D777F3C7E0098
:100C2500120EFE7F12120D7B7F327E00120EFE7FAA
:100C35000B120D7B7F467E00120EFEC294751F02BD
:100C450022120D777F237E00120EFE7F0C120D7B84
:0D0C55007F3C7E00120EFEC294751F01222E
:10101A00D2947F06120D7B7F507E00120EFEC29480
:01102A0022A3
:100F7A00D2947F02120D7B7F5A7E00120EFEC2941B
:070F8A007F1E7E00020EFE37
:100F9100D2947F1B120D7B7F8C7E00120EFEC294B9
:070FA1007F287E00020EFE16
:10102B00D2947F03120D7B7FB47E00120EFEC2940E
:01103B002292
:100FA800D2947F16120D7B7FB47E00120EFEC2947F
:070FB8007F147E00020EFE13
:10103C00D2947F17120D7B7F3C7E00120EFEC29461
:01104C002281
:100EE100D2947F18120D7B7F3C7E00120EFE7F0D87
:0D0EF100120D7B7F507E00120EFEC2942277
:10104D00D2947F13120D7B7F507E00120EFEC29440
:01105D002270
:10105E00D2947F14120D7B7F787E00120EFEC29406
:01106E00225F
:10106F00D2947F13120D7B7F967E00120EFEC294D8
:01107F00224E
:10108000D2947F09120D7B7F787E00120EFEC294EF
:01109000223D
:0D111300120D777F787E00120EFEC294222E
:10109100D2947F04120D7B7F967E00120EFEC294C5
:0110A100222C
:1010A200D2947F03120D7B7F8C7E00120EFEC294BF
:0110B200221B
:1010B300D2947F02120D7B7F787E00120EFEC294C3
:0110C300220A
:1010C400D2947F07120D7B7F507E00120EFEC294D5
:0110D40022F9
:1010D500D2947F0B120D7B7F327E00120EFEC294DE
:0110E50022E8
:1010E600D2947F0F120D7B7F327E00120EFEC294C9
:0110F60022D7
:04082B008C088D099F
:10082F007E007C2B7D331204FDE47B0CFAF9F81269
:10083F00046B8F0D8E0C8D0B8C0AC3E49FFFE49E0F
:10084F00F51B8F1DAE08AF09EE3395E0FDFCE47B81
:10085F000BFAF9F81203E0E47B0CFAF9F812046BC7
:10086F008F118E108D0F8C0EC3E49FFFE49EF51C2D
:10087F008F1E758911851B8C851D8A851C8D851E84
:0D088F008BD2A9D28CD2ABD28ED2BBD2AF0D
:01089C002239
:100E73007E007C2B7D331204FDE47B0CFAF9F8121F
:100E8300046B8F1A8E198D188C17C3E49FFFE49E91
:090E9300F51B8F1D758921D28C1D
:010E9C002233
:04112C0043870122D2
:0300000002072BC9
:0C072B00787FE4F6D8FD75816302077248
:1003C700BB010689828A83E0225002E722BBFE0234
:0903D700E32289828A83E4932267
:1003E000E88FF0A4CC8BF0A42CFCE98EF0A42CFCBC
:1003F0008AF0EDA42CFCEA8EF0A4CDA8F08BF0A43A
:100400002DCC3825F0FDE98FF0A42CCD35F0FCEB98
:100410008EF0A4FEA9F0EB8FF0A4CFC5F02ECD395D
:0F042000FEE43CFCEAA42DCE35F0FDE43CFC22CA
:10042F0075F008758200EF2FFFEE33FECD33CDCC84
:10043F0033CCC58233C5829BED9AEC99E582984007
:10044F000CF582EE9BFEED9AFDEC99FC0FD5F0D6E4
:10045F00E4CEFBE4CDFAE4CCF9A88222B800C1B90E
:10046F000059BA002DEC8BF084CFCECDFCE5F0CB4C
:10047F00F97818EF2FFFEE33FEED33FDEC33FCEB85
:10048F0033FB10D703994004EB99FB0FD8E5E4F940
:10049F00FA227818EF2FFFEE33FEED33FDEC33FC2D
:1004AF00C933C910D7059BE99A4007EC9BFCE99A21
:1004BF00F90FD8E0E4C9FAE4CCFB2275F010EF2F66
:1004CF00FFEE33FEED33FDCC33CCC833C810D70766
:1004DF009BEC9AE899400AED9BFDEC9AFCE899F8A1
:0E04EF000FD5F0DAE4CDFBE4CCFAE4C8F92234
:1004FD00EC8EF0A4CCC5F0CCCDF8EFA4CEC5F02D8C
:10050D00FDE43CFCE8A42EC8C5F03DFDE43CFCEF49
:0D051D00A4FFE5F028FEE43DFDE43CFC22D7
:10073700020CAEE493A3F8E493A34003F68001F21E
:1007470008DFF48029E493A3F85407240CC8C333C3
:10075700C4540F4420C8834004F456800146F6DF92
:10076700E4800B01020408102040809005DEE47E3F
:10077700019360BCA3FF543F30E509541FFEE49387
:10078700A360010ECF54C025E060A840B8E493A34E
:10079700FAE493A3F8E493A3C8C582C8CAC583CA79
:1007A700F0A3C8C582C8CAC583CADFE9DEE780BE31
:010685000074
:00000001FF
