:1006AA00C104C11BC115C117812A00812B00C109D0
:1006BA00C11C811000821B00008126008118008263
:1006CA002C0000C10181000082160000811D0081FA
:1006DA002800813400810500822400008708000078
:1006EA000000000000C106810F00810400811A0089
:1006FA00C180813200813300811F00811E00823057
:10070A000000C10381210082140000811300C11A74
:10071A00810100C10282020000C11682220000C1CA
:10072A0008C118812700C105812900C107C11982A2
:10073A002E0000C10B8206000082110000C10CC10C
:10074A000DC10EC10FC110C111812000C112811942
:07075A0000C10AC114C193A4
:1008BE001212B712138B7F01121181C299C298D2F4
:1008CE00ACD2A9D2BCD2AFC205C21BD21DD284D229
:1008DE0083D290D2A7C29378287406F2D2A2D2A362
:1008EE00D2A6C294D285D28C120CAC301522782AA4
:1008FE00E2C39404501AD20420A5031213DD782A01
:10090E00E204F2C394044008E4F2C215C204C20722
:10091E003017D5782BE2C3940450CDD20420A50312
:10092E00121352782BE204F2C3940440BBE4F2C2D9
:07093E0017C204C20780B1DB
:03000B00020026CA
:10002600C0E0C0F0C083C082C0D075D000C000C0A0
:1000360001C002C003C004C005C006C0077864E260
:10004600F58C7866E2F58A782408E22401FFF21836
:10005600E23400FEF2C3EF94D0EE9407405DE4F282
:1000660008F21214E73018197827E204F2C394054F
:10007600400FE4F2C2187819F27821E270031213E5
:100086009D301D1420A5117829E204F2C394034083
:1000960007E4F2C21D12139D300F207820E204F20D
:1000A600D3940540167806E4F208F27811F208F2C5
:1000B600C20CC20DC20EC20F7820F2300B13C20B57
:1000C60012132C7E137FDD120DAF7E137F52120D9D
:1000D600AF30A52D7811E4F208F2780608E2240183
:1000E600FFF218E23400FEF2D3EF94A0EE940F4034
:1000F60002803AD20C300D02D20E300F41D210805F
:100106003D7806E4F208F2300C02D20D300E02D22F
:100116000F301002D211781108E22401FFF218E222
:100126003400FEF2D3EF94A0EE940F4011740FF258
:100136000874A2F2C20CC20DC20EC20FC210301257
:100146001FC212D214C20CC20DC20EC20FC210C2FE
:10015600117E0F7F0BE4FBFAFDFC120B141214CB7D
:1001660030A5207821E2701B30181812120230A533
:1001760012120E407827E4F2C2187819F21213AE62
:100186001211C620A5197821E2B4011320161020F9
:10019600190D12120220A5077821E4F21210FC3084
:1001A6008003208708D2167822E4F208F230161D62
:1001B600782208E22401FFF218E23400FEF2C3EFCF
:1001C60094D0EE94074006C216E4F208F230820894
:1001D600D219782EE4F208F230191D782E08E2249E
:1001E60001FFF218E23400FEF2C3EF94D0EE94075A
:1001F6004006C219E4F208F2308003208708D216BE
:100206007822E4F208F27814E2FE08E2FFC394963C
:10021600EE9400500720A504D21A800FD3EF940065
:10022600EE94014006C21A7801E4F2208403020328
:10023600492083030203492005030203497800E2AB
:1002460014603614607B24026003020320308003AE
:1002560020871F20041C201419781DE204F2C39481
:10026600015003020320E4F2780004F212133F0265
:100276000320781DE4F202032030800320871678DD
:1002860010E204F2C394014010E4F278007402F222
:100296001213CE80047810E4F2781608E22401FFE7
:1002A600F218E23400FEF2C3EF94A0EE940F406A17
:1002B6007800E4F27810F2781DF27816F208F280EF
:1002C600593080032087147818E204F2C394014061
:1002D6000EE4F2D215D217D20780047818E4F27829
:1002E6001B08E22401FFF218E23400FEF2C3EF9489
:1002F600A0EE940F40247800E4F2781DF27810F214
:100306007816F208F2781BF208F2782C7403F208D9
:100316007420F27818E4F27826F22081187813E235
:10032600C394335010E204F294324017D215D21718
:100336007433F2800E30810B2007087813E4F2C282
:1003460015C217301B42208413781EE204F2B40A49
:1003560016D21CC20920030FD201800BC21C7834AE
:10036600E4F2781EF2C201208313781FE204F2B48D
:100376000A16D209C21C20030FD201800BC20978CB
:1003860005E4F2781FF2C201300142783008E22417
:1003960001FFF218E23400FEF2C3EF94A0EE940FD0
:1003A600402BC201E4F208F2D2037800F2781DF283
:1003B6007810F27816F208F2781BF208F2782C74AC
:1003C60003F2087420F27818E4F27826F2308703F4
:1003D60020801FD37803E2948818E2941340137F99
:1003E60003121301308703208008D2027802E4F258
:1003F60008F2780208E22401FFF218E23400FEF265
:10040600C3EF9488EE941340097413F2087489F2CA
:10041600C202D007D006D005D004D003D002D00146
:0D042600D000D0D0D082D083D0F0D0E03212
:0300230002059C37
:10059C00C0E0C0F0C083C082C0D075D000C000C025
:1005AC0001C002C003C004C005C006C007209803E8
:1005BC0002068FC298780FE2FF2408F8E599F23012
:1005CC001103020681EF701390300093FF7808E25C
:1005DC00B50708780F7401F202068F780FE2B401A8
:1005EC0014903001E493FF7809E2B50708780F7492
:1005FC0002F202068F780FE2FFB40213903002E48D
:10060C0093FE780AE2B50607780F7403F28074EF54
:10061C00B40313903003E493FF780BE2B50707782B
:10062C000F7404F2805D780FE2B40413903004E48C
:10063C0093FF780CE2B50707780F7405F2804478C5
:10064C000FE26405702990300593FF780DE2B50731
:10065C001E780FE4F2D2187827F2120E40D20B78E3
:10066C0019E2FF04F2EFC394014018D20A80147807
:10067C000FE4F2800E780FE204F2C394064004E417
:10068C00F2D212D007D006D005D004D003D002D0BD
:0E069C0001D000D0D0D082D083D0F0D0E03298
:1009BA00E4FAEF6405703343F620C2F8C2F9D2FABA
:1009CA0043E180C2FCD2FBADF8EDC413135403FD1E
:1009DA00AFE2AB07EB7E007802C333CE33CED8F951
:1009EA007C002DFBEC3EAF03FE22EF64067034431D
:1009FA00F640D2F8C2F9D2FA43E180C2FCD2FBAD8A
:100A0A00F8EDC413135403FDAFE27A00AB07EB7E93
:100A1A00007802C333CE33CED8F97C002DFBEC3EEE
:030A2A00FEAF0319
:010A2D0022A6
:0D14E7007F061209BA7814EEF208EFF22227
:100777007873EEF208EFF2C39404EE9403400CD2C0
:10078700947F1C120FCD7F3C02081C7873E2FE0891
:10079700E2FFC39404EE94035014C3EF94FCEE9469
:1007A70002400BD2947F0A120FCD7F648067787363
:1007B700E2FE08E2FFC394FCEE94025014C3EF94E8
:1007C700F6EE9402400BD2947F09120FCD7F64801E
:1007D700447873E2FE08E2FFC394F6EE94025014E5
:1007E700C3EF94EDEE9402400BD2947F08120FCD25
:1007F7007F6480217873E2FE08E2FFC394EDEE94F4
:10080700025018C3EF94E1EE9402400FD2947F0791
:10081700120FCD7F64121301C29422C37874E2943D
:0B082700E118E2940250031213BF22FC
:09076100874900000000000000BF
:100D5D00783774AAF2E418F2E47835F27837E2C203
:100D6D00907D157C007F17120F4CD2907837E225BD
:100D7D00E0F27D157C007F2B120F4C7835E204F2EA
:100D8D00E2C3940840D6783774AAF27D157C007FB3
:100D9D0017120F4C7836E204F2E2C3940340B9D235
:010DAD0090B5
:010DAE002222
:040C4C007838EFF213
:100C5000E408F2E4783AF27839E22449F8E230E73D
:100C60000CC2907838E2FD7C007F24800AC2907824
:100C700038E2FD7C007F17120F4CD2907839E224C5
:100C800049F8C000E225E0D000F27838E2FD7C00AF
:100C90007F0F120F4C783AE204F2E2C3940840B797
:0B0CA0007839E204F2E2C3940340A89C
:010CAB002226
:10103700783BEFF208ECF208EDF2D2937F1412132B
:1010470001C2A7784974C8F20874E0F2783BE278E5
:101057004BF2120D5D783C08E2FF120C4CD2A7C28E
:021067009322D2
:10100300783EEFF208ECF208EDF2D2937F1412135C
:1010130001C2A7784974C8F20874E0F2783EE27816
:101023004BF2120D5D783F08E2FF120C4CC2A7C2CF
:0410330093C29022B2
:10106900D2937F14121301C2A778497412F208743B
:1010790034F2087456F2087478F2087490F2120D7A
:101089005D7BFE7A0079497D06121156D2A7C2937B
:011099002234
:100B820020910D7833E204F2B47802E4F2C200223A
:100B9200200041D2007833E2FFD394234010EFD3F8
:100BA2009450500A7804E225E0F254FE8010783323
:100BB200E2D3945040147804E225E0F24401F27842
:100BC2001AE204F2E47832F280057832E204F2E4C6
:100BD2007833F2227832E204F2C3943C4009E4789A
:080BE2001AF2D200780FF22292
:100ECA00781AE264087039F27804E2FF780FE2FED9
:100EDA002408F8EFF2EE700C7808E2B4C806780F2E
:100EEA007401F222EEB4010C7809E2B4E006780F3C
:100EFA007402F222EEB40204D2068000E4780FF201
:010F0A0022C4
:070A2E007841ECF208EDF243
:100A3500784974C8F20874E0F208EFF2E47843F2FA
:100A4500E47844F27843E22449F8E230E70DC2A3A2
:100A55007841E2FC08E2FD7F24800BC2A37841E2E5
:100A6500FC08E2FD7F17120F4CD2A37843E224491C
:100A7500F8C000E225E0D000F27841E2FC08E2FD92
:100A85007F0F120F4C7844E204F2E2C3940840B49D
:0B0A95007843E204F2E2C3940340A5A2
:010AA0002233
:070AA1007845ECF208EDF2CC
:100AA800784974C8F20874E0F208EFF2E47847F283
:100AB800E47848F27847E22449F8E230E70DC28149
:100AC8007845E2FC08E2FD7F24800BC2817845E28C
:100AD800FC08E2FD7F17120F4CD2817847E22449C7
:100AE800F8C000E225E0D000F27845E2FC08E2FD1B
:100AF8007F0F120F4C7848E204F2E2C3940840B426
:0B0B08007847E204F2E2C3940340A52A
:010B130022BF
:04076A0082560000B3
:10120200785674FFF2087493F2785608E22401FFCC
:0A121200F218E23400F24F70F022EF
:10121C00785674FDF20874E3F2785608E22401FF64
:0A122C00F218E23400F24F70F022D5
:10123600785674FBF20874C7F2785608E22401FF68
:0A124600F218E23400F24F70F022BB
:10125000785674EAF20874E7F2785608E22401FF3F
:0A126000F218E23400F24F70F022A1
:10126A007856742DF208740FF2785608E22401FFBA
:0A127A00F218E23400F24F70F02287
:10130100AE071FEE60107C137D88ED1DAA047001ED
:061311001C4A60EC80F4B0
:0113170022B3
:070F4C007850ECF208EDF211
:100F5300E408F208F2EFFDC37853E29D18E294002F
:100F63005025E4FEEEFDD37851E29D7480F5F01830
:100F7300E2648095F040030E80EA7853E22401F2A4
:070F830018E23400F280CEF9
:010F8A002244
:1011A600E4FDFCC3ED9FEC9E5015E4FBFA0BBB007F
:0F11B600010AEB64644A70F50DBD00010C80E482
:0111C5002207
:10129E00E4FDFCC3ED9FEC9E500EE4FB0BEBB4049F
:0812AE00FB0DBD00010C80EBFB
:0112B6002215
:070F8B007854EEF208EFF2CA
:100F9200E4F9E4FAFBD37855E29B18E29A40070B96
:100FA200BB00010A80EF09E9B432E7E4F9209216A6
:100FB200E4FAFBC3EB9DEA9C50070BBB00010A80DD
:060FC200F209E9B432E778
:010FC8002206
:02076E00C11DAB
:1010FC00200A0D20130A7814E2FE08E2FF1207778B
:10110C001214D9200A031212D0D21DE47829F27FCE
:0E111C0014121301E47819F2300A02C20A22FA
:1011C600200A131213EC20130A7814E2FE08E2FF39
:0E11D600120777120DF878217401F2C213226D
:10109A007858EEF208EFF208ECF208EDF2EBFD7C7C
:1010AA00007FC1120A2ED2A2C2A37858E2FE08E239
:1010BA00FF08E2FC08E2FD120F8BD2A2D2A3C2857E
:0110CA002203
:1010CB00785CEEF208EFF208ECF208EDF2EBFD7C47
:1010DB00007FC1120AA1D2A2C2A3785CE2FE08E291
:1010EB00FF08E2FC08E2FD120F8BC2A2C2A3C2856D
:0110FB0022D2
:0E14AF00D285C2A2D2A3120F8BD2A2D2A32248
:0E14BD00D285C2A2D2A3120F8BC2A2C2A3225A
:100E4000C21BC205C209C21CE47800F2781DF27808
:100E500010F27816F208F2781BF208F2782CF208F9
:100E6000F27818F27826F2C204C215782AF2C21774
:100E7000782BF2C2017813F2C208C21D7829F2C29F
:050E80001A7801F222C6
:10139D00D21BD205E47800F2781DF2C21D7829F235
:0113AD00221D
:0A14FF00C2A47F05121301D2A4223B
:1012E90075DCC07860E4F208741DF218E2FC08E2CB
:0812F900FDECF5D1EDF5D92261
:100BEA00EF14601F1460311460432403705378605B
:100BFA00E4F208740DF218E2FC08E2FDECF5D2ED1D
:100C0A00F5DA2278607401F208E4F218E2FC08E2EC
:100C1A00FDECF5D3EDF5DB227860E4F2087480F29E
:100C2A0018E2FC08E2FDECF5D5EDF5DD227860E48A
:100C3A00F2087440F218E2FC08E2FDECF5D6EDF594
:020C4A00DE22A8
:08000300E4FF120BEA0212E90E
:070945007862ECF208EDF20C
:10094C007E007C2B7D3312056FE47B0CFAF9F812D8
:10095C0004D7C3E49FFFE49E7864F27866EFF278E4
:10096C0062E2FE08E2FFEE3395E0FDFCE47B0BFA5D
:10097C00F9F812044CE47B0CFAF9F81204D7C3E42E
:10098C009FFFE49EAD07FF7865F2AE057867EEF247
:10099C007589117864E2F58C7866E2F58A8F8D8E14
:0D09AC008BD2A9C28CD2ABD28ED2BBD2AFFF
:0109B900221B
:101181007E007C2B7D3312056FE47B0CFAF9F8129B
:1011910004D7C3E49FFFE49E7864F27866EFF275AA
:0411A1008921C28C52
:0111A5002227
:0415110043870122E9
:10138B0053A2BF75985A758920758BFD758DFDD24B
:02139B008E22A0
:081509008F993099FDC299226F
:101156007868EBF208EAF208E9F2AF051DEF601ACB
:101166007868E2FB0808E2F92401F218E2FA340092
:0B117600F2120433FF12150980E02282
:03077000816B0199
:040FC900D2947F0E31
:040FCD007877EFF250
:100FD100C2A0121250D2A0121250E47878F278779F
:100FE100E2FF08E2C39F5019D2A17F147E001212C2
:100FF1009EC2A17F147E0012129E7878E204F280D4
:01100100DD11
:0110020022CB
:1012B700C294C2A1C2A07F5E7E0112129ED2A07FFD
:0912C7005E7E0112129ED29422F7
:100DF800786BE224FE602704703D120FC97F2D1224
:100E080013017F12120FCD7F321213017F0B120FC5
:100E1800CD7F46121301C294786B7402F222120F2E
:100E2800C97F281213017F0C120FCD7F3C121301CA
:080E3800C294786B7401F222F0
:0F13BF00D2947F06120FCD7F50121301C29422D9
:10132C00D2947F06120FCD121236121236121236CA
:03133C00C2942236
:0E14CB0012132C7F0A12130112132CC21422CA
:10133F00D2947F02120FCD7F5A121301C2947F1ED7
:03134F0002130185
:0F13CE00D2947F1B120FCD7F8C121301C2942279
:0F13DD00D2947F03120FCD7FB4121301C294225A
:10135200D2947F16120FCD7FB4121301C2947F1460
:0313620002130172
:0F13EC00D2947F17120FCD7F3C121301C29422AF
:1012D000D2947F18120FCD7F3C1213017F0D120F95
:0912E000CD7F46121301C29422D5
:0F13FB00D2947F13120FCD7F50121301C2942290
:0F140A00D2947F14120FCD7F78121301C2942257
:0F141900D2947F13120FCD7F96121301C294222B
:0F142800D2947F09120FCD7F78121301C2942244
:0B14F400120FC97F78121301C294226E
:0F143700D2947F04120FCD7F96121301C294221C
:0F144600D2947F03120FCD7F8C121301C2942218
:0F145500D2947F02120FCD7F78121301C294221E
:0F146400D2947F07120FCD7F50121301C2942232
:0F147300D2947F0B120FCD7F32121301C294223D
:0F148200D2947F0F120FCD7F32121301C294222A
:0F149100D2947F0C120FCD7F50121301C2942200
:0F14A000D2947F0D120FCD7F50121301C29422F0
:1013650075AF30C2AF75C7AA75C755439F01D2AFD8
:03137500021290D1
:1013180075AF30121290C2AF75C7AA75C755539FE3
:04132800FED2AF2220
:0C128400E2FC08E2FDECF5A7AF058FA628
:0E129000C2AF75C7AA75C75543A401D2AF22DD
:10000E007873EEF208EFF212136575AF2278731261
:05001E0012840213181A
:04112A00E2FD7E3034
:10112E007873EEF208EFF208EDF212136575AF2147
:10113E007873E2FC08E2FDECF5A7AF058FA608E296
:08114E00F5AE12129002131815
:0711E400786CEEF208EFF257
:1011EB00121365E4F5AF786C12128408E5AEF212B7
:0611FB001318786EE2FFFC
:0112010022CA
:100F0B007F007E3012000E78087F0012112A7809BC
:100F1B007F0112112A780AE2FD7F027E3012112E18
:100F2B00780BE2FD7F037E3012112E780CE2FD7FF1
:100F3B00047E3012112E780DE2FD7F057E300211FA
:010F4B002E77
:1013AE00120D07D2A2C2A3121378D2A2D2A3C28563
:0113BE00220C
:0E14D900D285C2A2D2A3121378D2A2D2A3222D
:100D0700784974C8F20874E0F20874C1F2E47873A1
:100D1700F2E47874F27873E22449F8E230E707C224
:100D2700A31212368005C2A312121CD2A37873E253
:100D37002449F8C000E2FF25E0D000F212121C7827
:100D470074E204F2E2C3940840CB7873E204F2E25F
:050D5700C3940340BC41
:010D5C002274
:1013780012126A12126A20920912126A12126A1260
:03138800126A22C4
:03077300816F0093
:100CAC00E47877F27877E2FFC3940A5048EF75F056
:100CBC0007A4242AF8E6D3940040337877E2FF7532
:100CCC00F007A4242AF816EF75F007A42424F8E6FC
:100CDC00FE08E6AA06F91205697877E2FF75F007B7
:100CEC00A42428F8E6FC08E64C7003120E857877ED
:0B0CFC00E204F280AF1215190215157A
:070B14007873EEF208EFF226
:100B1B00E4FFEF75F007A42424F8E6F58308E64517
:100B2B00836009EFC3940A50030F80E6EFB40A0801
:100B3B00786F7401F27F0A227873E2F58308E2F58D
:100B4B0082EF75F007A42424F8A68308A682EF751C
:100B5B00F007A42426F8A60408A605AC02AD03EF03
:100B6B0075F007A42428F8A60408A605EF75F0076E
:060B7B00A4242AF8760113
:010B81002251
:100E8500EF75F007A42424F8E6FC08E64C70057815
:100E95006F7402F2EF75F007A42424F8E4F608F65F
:100EA500EF75F007A42426F8E4F608F6EF75F007C9
:100EB500A42428F8E4F608F6EF75F007A4242AF828
:040EC500E4F6A21E8F
:010EC9002206
:100DAF00E4FDED75F007A42424F8E6FA08E66F7069
:100DBF0002EA6E702EED75F007A42424F8E4F6080D
:100DCF00F6ED75F007A42426F8E4F608F6ED75F0B5
:100DDF0007A42428F8E4F608F6ED75F007A4242AF2
:080DEF00F8E4F60DEDB40ABAB8
:010DF70022D9
:0115190022AF
:0415150043870122E5
:03000000020832C1
:0C083200787FE4F6D8FD75816902087932
:10043300BB010689828A83E0225002E722BBFE02C7
:09044300E32289828A83E49322FA
:10044C00E88FF0A4CC8BF0A42CFCE98EF0A42CFC4F
:10045C008AF0EDA42CFCEA8EF0A4CDA8F08BF0A4CD
:10046C002DCC3825F0FDE98FF0A42CCD35F0FCEB2C
:10047C008EF0A4FEA9F0EB8FF0A4CFC5F02ECD39F1
:0F048C00FEE43CFCEAA42DCE35F0FDE43CFC225E
:10049B0075F008758200EF2FFFEE33FECD33CDCC18
:1004AB0033CCC58233C5829BED9AEC99E58298409B
:1004BB000CF582EE9BFEED9AFDEC99FC0FD5F0D678
:1004CB00E4CEFBE4CDFAE4CCF9A88222B800C1B9A2
:1004DB000059BA002DEC8BF084CFCECDFCE5F0CBE0
:1004EB00F97818EF2FFFEE33FEED33FDEC33FCEB19
:1004FB0033FB10D703994004EB99FB0FD8E5E4F9D4
:10050B00FA227818EF2FFFEE33FEED33FDEC33FCC0
:10051B00C933C910D7059BE99A4007EC9BFCE99AB4
:10052B00F90FD8E0E4C9FAE4CCFB2275F010EF2FF9
:10053B00FFEE33FEED33FDCC33CCC833C810D707F9
:10054B009BEC9AE899400AED9BFDEC9AFCE899F834
:0E055B000FD5F0DAE4CDFBE4CCFAE4C8F922C7
:060569008A838982E4731D
:10056F00EC8EF0A4CCC5F0CCCDF8EFA4CEC5F02D19
:10057F00FDE43CFCE8A42EC8C5F03DFDE43CFCEFD7
:0D058F00A4FFE5F028FEE43DFDE43CFC2265
:10083E000208BEE493A3F8E493A34003F68001F20A
:10084E0008DFF48029E493A3F85407240CC8C333BB
:10085E00C4540F4420C8834004F456800146F6DF8A
:10086E00E4800B01020408102040809006AAE47E6A
:10087E00019360BCA3FF543F30E509541FFEE4937F
:10088E00A360010ECF54C025E060A840B8E493A346
:10089E00FAE493A3F8E493A3C8C582C8CAC583CA71
:1008AE00F0A3C8C582C8CAC583CADFE9DEE780BE29
:010776000082
:00000001FF
