:1007AB00C104C119C113C115812A00812B00C109D4
:1007BB00C11A811000821B00008126008118008263
:1007CB002C0000C10181000082160000811D0081F8
:1007DB002800813400810500822400008708000076
:1007EB000000000000C106810F00810400811A0087
:1007FB00C180813200813300811F00811E00823055
:10080B000000C10381210082140000811300C11874
:10081B00810100C10282020000C11482220000C1CA
:10082B0008C116812700C105812900C107C11782A4
:10083B002E0000C10B8206000082110000C10CC10A
:10084B000DC10EC10FC110C111812000C112811940
:03085B0000C10ACF
:1006E30012106912112D7F01120FD3C299C298D231
:1006F300ACD2A9D2BCD2AFC205C219D21BD284D20A
:1007030083D290D287D2A7C29378287406F2D2A25A
:10071300D2A3D2A6C294C285D28C30800320871381
:100723007F021210B3308003208708D214E47822AA
:10073300F208F2301322782AE2C39404501AD20446
:1007430020A50312118E782AE204F2C39404400810
:10075300E4F2C213C204C207301522782BE2C39419
:1007630004501AD20420A503121107782BE204F2D5
:10077300C394044008E4F2C215C204C2077814E229
:10078300FE08E2FFC39496EE9400500720A504D21E
:10079300188087D3EF9400EE9401500302071DC223
:0807A30018E47801F202071DC1
:03000B00020026CA
:10002600C0E0C0F0C083C082C0D075D000C000C0A0
:1000360001C002C003C004C005C006C0077854E270
:10004600F58C7856E2F58A782408E22401FFF21846
:10005600E23400FEF2C3EF94D0EE9407406BE4F274
:1000660008F220850C7F06120A297814EEF208EFB2
:10007600F230161B7827E204F2C394054011E4F22D
:10008600C2167819F2C20A7821E2700312115030B2
:100096001B1420A5117829E204F2C394034007E457
:1000A600F2C21B121150300F207820E204F2D394D2
:1000B6000540167806E4F208F27811F208F2C20C4E
:1000C600C20DC20EC20F7820F2300B05C20B121100
:1000D6007030A52D7811E4F208F2780608E22401C2
:1000E600FFF218E23400FEF2D3EF94A0EE940F4034
:1000F60002803AD20C300D02D20E300F41D210805F
:100106003D7806E4F208F2300C02D20D300E02D22F
:100116000F301002D211781108E22401FFF218E222
:100126003400FEF2D3EF94A0EE940F4011740FF258
:100136000874A2F2C20CC20DC20EC20FC210301257
:1001460062C212C20CC20DC20EC20FC210C2117F11
:10015600007E3012000E7808E2FD7F007E30120F1E
:10016600AB7809E2FD7F017E30120FAB780AE2FD23
:100176007F027E30120FAB780BE2FD7F037E3012DA
:100186000FAB780CE2FD7F047E30120FAB780DE2E8
:10019600FD7F057E30120FAB1211707F0A1210B36D
:1001A60012117030A52E7821E270293016267F05AF
:1001B6001210B330A51E7B1C7D347C087F707E1721
:1001C600120EF21210CA78217401F27827E4F2C2F4
:1001D600167819F220A53D7821E2640170362014C4
:1001E600332017307F051210B320A528200A0A787D
:1001F60014E2FE08E2FF12086D7821E4F27D347CF9
:10020600087F887E1312126012113F7819E4F230CB
:100216000A02C20A308003208708D2147822E4F248
:1002260008F230141D782208E22401FFF218E234A5
:1002360000FEF2C3EF94D0EE94074006C214E4F237
:1002460008F2308208D217782EE4F208F230171D31
:10025600782E08E22401FFF218E23400FEF2C3EF22
:1002660094D0EE94074006C217E4F208F220840305
:10027600020388208303020388200503020388788B
:1002860000E21460331460782402600302035F30D6
:10029600800320871C200419781DE204F2C394020F
:1002A600500302035FE4F2780004F21210F4020332
:1002B6005F781DE4F202035F308003208716781012
:1002C600E204F2C394024010E4F278007402F212DF
:1002D600117F80047810E4F2781608E22401FFF218
:1002E60018E23400FEF2C3EF94A0EE940F406A7851
:1002F60000E4F27810F2781DF27816F208F28059CE
:100306003080032087147818E204F2C39401400E6B
:10031600E4F2D213D215D20780047818E4F2781BDF
:1003260008E22401FFF218E23400FEF2C3EF94A0C3
:10033600EE940F40247800E4F2781DF27810F278FB
:1003460016F208F2781BF208F2782C7403F208749D
:1003560020F27818E4F27826F22081187813E2C3A6
:1003660094335010E204F294324017D213D215742B
:1003760033F2800E30810B2007087813E4F2C213A3
:10038600C215301942208413781EE204F2B40A160C
:10039600D21AC20920030FD201800BC21A7834E4A4
:1003A600F2781EF2C201208313781FE204F2B40A27
:1003B60016D209C21A20030FD201800BC209780592
:1003C600E4F2781FF2C201300142783008E22401DB
:1003D600FFF218E23400FEF2C3EF94A0EE940F4051
:1003E6002BC201E4F208F2D2037800F2781DF2780B
:1003F60010F27816F208F2781BF208F2782C7403E1
:10040600F2087420F27818E4F27826F23087032096
:10041600801FD37803E2948818E2941340137F0375
:100426001210B3308703208008D2027802E4F20863
:10043600F2780208E22401FFF218E23400FEF2C369
:10044600EF9488EE941340097413F2087489F2C28B
:1004560002D007D006D005D004D003D002D001D0F8
:0C04660000D0D0D082D083D0F0D0E032A3
:030023000205D5FE
:1005D500C0E0C0F0C083C082C0D075D000C000C0EC
:1005E50001C002C003C004C005C006C007209803AF
:1005F5000206C8C298780FE2FF2408F8E599F230A0
:1006050011030206BAEF701390300093FF7808E2E9
:10061500B50708780F7401F20206C8780FE2B40135
:1006250014903001E493FF7809E2B50708780F7458
:1006350002F20206C8780FE2FFB40213903002E41A
:1006450093FE780AE2B50607780F7403F28074EF1B
:10065500B40313903003E493FF780BE2B5070778F2
:100665000F7404F2805D780FE2B40413903004E453
:1006750093FF780CE2B50707780F7405F28044788C
:100685000FE26405702990300593FF780DE2B507F8
:100695001E780FE4F2D2167827F2120D47D20B78A6
:1006A50019E2FF04F2EFC394014018D20A801478CE
:1006B5000FE4F2800E780FE204F2C394064004E4DE
:1006C500F2D212D007D006D005D004D003D002D084
:0E06D50001D000D0D0D082D083D0F0D0E0325F
:100A2900E4FAEF6405703343F620C2F8C2F9D2FA4A
:100A390043E180C2FCD2FBADF8EDC413135403FDAE
:100A4900AFE2AB07EB7E007802C333CE33CED8F9E1
:100A59007C002DFBEC3EAF03FE22EF6406703443AD
:100A6900F640D2F8C2F9D2FA43E180C2FCD2FBAD1A
:100A7900F8EDC413135403FDAFE27A00AB07EB7E24
:100A8900007802C333CE33CED8F97C002DFBEC3E7F
:030A9900FEAF03AA
:010A9C002237
:10086D00785FEEF208EFF2C39401EE9403400CD2E0
:10087D00947F1C120D907F3C020912785FE2FE08F6
:10088D00E2FFC39401EE94035014C3EF94F4EE947D
:10089D0002400BD2947F0A120D907F648067785FBF
:1008AD00E2FE08E2FFC394F4EE94025014C3EF94F9
:1008BD00E5EE9402400BD2947F09120D907F648077
:1008CD0044785FE2FE08E2FFC394E5EE9402501413
:1008DD00C3EF94DBEE9402400BD2947F08120D907F
:1008ED007F648021785FE2FE08E2FFC394DBEE9423
:1008FD00025018C3EF94D0EE9402400FD2947F07AC
:10090D00120D907F641210B3C29422C37860E294EA
:0B091D00D018E2940250031211612276
:09085E00874500000000000000C5
:100CAD00783774AAF2E418F2E47835F27837E2C2B4
:100CBD00907D157C007F17120E0FD2907837E225AC
:100CCD00E0F27D157C007F2B120E0F7835E204F2D9
:100CDD00E2C3940840D6783774AAF27D157C007F64
:100CED0017120E0F7836E204F2E2C3940340B9D224
:010CFD009066
:010CFE0022D3
:040C4D007838EFF212
:100C5100E408F2E4783AF27839E22445F8E230E740
:100C61000CC2907838E2FD7C007F24800AC2907823
:100C710038E2FD7C007F17120E0FD2907839E22402
:100C810045F8C000E225E0D000F27838E2FD7C00B2
:100C91007F0F120E0F783AE204F2E2C3940840B7D4
:0B0CA1007839E204F2E2C3940340A89B
:010CAC002225
:100EC000783BEFF208ECF208EDF2D2937F141210A7
:100ED000B3C2A7784574C8F20874E0F2783BE278B0
:100EE00047F2120CAD783C08E2FF120C4DD2A7C2BB
:020EF00093224B
:100E8C00783EEFF208ECF208EDF2D2937F141210D8
:100E9C00B3C2A7784574C8F20874E0F2783EE278E1
:100EAC0047F2120CAD783F08E2FF120C4DC2A7C2FC
:040EBC0093C290222B
:100F5400D2937F141210B3C2A7E47845F208F208C2
:100F6400F2087413F20874ECF2120CAD7BFE7A00F2
:0C0F740079457D06120F80D2A7C293229F
:100B830020910D7833E204F2B47802E4F2C2002239
:100B9300200041D2007833E2FFD394234010EFD3F7
:100BA3009450500A7804E225E0F254FE8010783322
:100BB300E2D3945040147804E225E0F24401F27841
:100BC3001AE204F2E47832F280057832E204F2E4C5
:100BD3007833F2227832E204F2C3943C4009E47899
:080BE3001AF2D200780FF22291
:100DCE00781AE264087039F27804E2FF780FE2FED6
:100DDE002408F8EFF2EE700C7808E2B4C806780F2B
:100DEE007401F222EEB4010C7809E2B4E006780F39
:100DFE007402F222EEB40204D2068000E4780FF2FE
:010E0E0022C1
:070A9D007863ECF208EDF2B2
:100AA400784574C8F20874E0F208EFF2E47865F26D
:100AB400E47866F27865E22445F8E230E70DC2A3F3
:100AC4007863E2FC08E2FD7F24800BC2A37863E232
:100AD400FC08E2FD7F17120E0FD2A37865E22445CD
:100AE400F8C000E225E0D000F27863E2FC08E2FD01
:100AF4007F0F120E0F7866E204F2E2C3940840B44A
:0B0B04007865E204F2E2C3940340A510
:010B0F0022C3
:070B10007841ECF208EDF260
:100B1700784574C8F20874E0F208EFF2E47843F21B
:100B2700E47844F27843E22445F8E230E70DC281E5
:100B37007841E2FC08E2FD7F24800BC2817841E224
:100B4700FC08E2FD7F17120E0FD2817843E224459D
:100B5700F8C000E225E0D000F27841E2FC08E2FDAF
:100B67007F0F120E0F7844E204F2E2C3940840B4F8
:0B0B77007843E204F2E2C3940340A5BF
:010B82002250
:1010B300AE071FEE60107C137D88ED1DAA0470013E
:0610C3001C4A60EC80F401
:0110C9002204
:070E0F007867ECF208EDF238
:100E1600E408F208F2EFFDC3786AE29D18E2940056
:100E26005025E4FEEEFDD37868E29D7480F5F01857
:100E3600E2648095F040030E80EA786AE22401F2CB
:070E460018E23400F280CE37
:010E4D002282
:100FF800E4FDFCC3ED9FEC9E5015E4FBFA0BBB002F
:0F100800010AEB64644A70F50DBD00010C80E431
:0110170022B6
:10105000E4FDFCC3ED9FEC9E500EE4FB0BEBB404EF
:08106000FB0DBD00010C80EB4B
:011068002265
:070E4E007863EEF208EFF2F9
:100E5500E4F9E4FAFBD37864E29B18E29A40070BC5
:100E6500BB00010A80EF09E9B432E7E4F9209216E4
:100E7500E4FAFBC3EB9DEA9C50070BBB00010A801B
:060E8500F209E9B432E7B6
:010E8B002244
:02086700C11BB3
:10113F00200A03121082D21BE47829F27F140210C6
:01114F00B3EC
:1010CA00200A1012119D7814E2FE08E2FF12086D40
:0610DA00120CFF020D479D
:100EF200785FEEF208EFF208ECF208EDF2EBFD7C1F
:100F0200007FC1120A9DD2A2C2A3785FE2FE08E26C
:100F1200FF08E2FC08E2FD120E4ED2A2D2A3C28565
:010F220022AC
:100F2300784CEEF208EFF208ECF208EDF2EBFD7C00
:100F3300007FC1120B10D2A2C2A3784CE2FE08E2DA
:100F4300FF08E2FC08E2FD120E4EC2A2C2A3C28554
:010F5300227B
:0E126000D285C2A2D2A3120E4ED2A2D2A322D7
:0E126E00D285C2A2D2A3120E4EC2A2C2A322E9
:100D4700C219C205C209C21AE47800F2781DF27806
:100D570010F27816F208F2781BF208F2782CF208F3
:100D6700F27818F27826F2C204C213782AF2C21572
:100D7700782BF2C2017813F2C208C21B7829F2C29B
:050D8700187801F222C2
:10115000D219D205E47800F2781DF2C21B7829F288
:01116000226C
:0A128700C2A47F051210B3D2A42206
:10109B0075DCC07850E4F208741DF218E2FC08E22B
:0810AB00FDECF5D1EDF5D922B1
:100BEB00EF14601F1460311460432403705378506A
:100BFB00E4F208740DF218E2FC08E2FDECF5D2ED1C
:100C0B00F5DA2278507401F208E4F218E2FC08E2FB
:100C1B00FDECF5D3EDF5DB227850E4F2087480F2AD
:100C2B0018E2FC08E2FDECF5D5EDF5DD227850E499
:100C3B00F2087440F218E2FC08E2FDECF5D6EDF593
:020C4B00DE22A7
:08000300E4FF120BEB02109B5D
:0709B4007852ECF208EDF2AD
:1009BB007E007C2B7D331205A8E47B0CFAF9F81230
:1009CB000516C3E49FFFE49E7854F27856EFF27855
:1009DB0052E2FE08E2FFEE3395E0FDFCE47B0BFAFE
:1009EB00F9F812048BE47B0CFAF9F8120516C3E440
:1009FB009FFFE49EAD07FF7855F2AE057857EEF2F8
:100A0B007589117854E2F58C7856E2F58A8F8D8EC4
:0D0A1B008BD2A9C28CD2ABD28ED2BBD2AF8F
:010A280022AB
:100FD3007E007C2B7D331205A8E47B0CFAF9F81212
:100FE3000516C3E49FFFE49E7854F27856EFF2753A
:040FF3008921C28C02
:010FF70022D7
:041299004387012264
:10112D0053A2BF75985A758920758BFD758DFDD2AB
:02113D008E2200
:081291008F993099FDC29922EA
:100F80007858EBF208EAF208E9F2AF051DEF601AB3
:100F90007858E2FB0808E2F92401F218E2FA34007A
:0B0FA000F2120472FF12129180E02296
:03086900815B01AF
:040D8C00D2947F0E70
:040D9000786BEFF29B
:100D9400C2A07F647E00120FF8D2A07F967E00125C
:100DA4000FF8E4786CF2786BE2FF08E2C39F501905
:100DB400D2A17F147E00121050C2A17F147E0012B3
:090DC4001050786CE204F280DDAD
:010DCD002203
:10106900C294C2A1C2A07F5E7E01121050D2A07F9D
:091079005E7E01121050D2942297
:100CFF00785BE224FE602704703D120D8C7F2D126D
:100D0F0010B37F12120D907F321210B37F0B120DA2
:100D1F00907F461210B3C294785B7402F222120DC8
:100D2F008C7F281210B37F0C120D907F3C1210B3E2
:080D3F00C294785B7401F222FA
:0F116100D2947F06120D907F501210B3C29422C9
:0F117000D2947F06120D907F021210B3C2942208
:1010F400D2947F02120D907F5A1210B3C2947F1EB5
:031104000210B323
:0F117F00D2947F1B120D907F8C1210B3C294225A
:0F118E00D2947F03120D907FB41210B3C294223B
:10110700D2947F16120D907FB41210B3C2947F143D
:031117000210B310
:0F119D00D2947F17120D907F3C1210B3C2942290
:10108200D2947F18120D907F3C1210B37F0D120D77
:09109200907F461210B3C29422B3
:0F11AC00D2947F13120D907F501210B3C2942271
:0F11BB00D2947F14120D907F781210B3C2942239
:0F11CA00D2947F13120D907F961210B3C294220D
:0F11D900D2947F09120D907F781210B3C2942226
:0B127C00120D8C7F781210B3C2942278
:0F11E800D2947F04120D907F961210B3C29422FE
:0F11F700D2947F03120D907F8C1210B3C29422FA
:0F120600D2947F02120D907F781210B3C29422FF
:0F121500D2947F07120D907F501210B3C2942213
:0F122400D2947F0B120D907F321210B3C294221E
:0F123300D2947F0F120D907F321210B3C294220B
:0F124200D2947F0C120D907F501210B3C29422E1
:0F125100D2947F0D120D907F501210B3C29422D1
:10111A0075AF30C2AF75C7AA75C755439F01D2AF25
:03112A000210426E
:1010E00075AF30121042C2AF75C7AA75C755539F6E
:0410F000FED2AF225B
:0C103600E2FC08E2FDECF5A7AF058FA678
:0E104200C2AF75C7AA75C75543A401D2AF222D
:10000E00785FEEF208EFF212111A75AF22785F12D6
:05001E0010360210E0A5
:100FAB00785FEEF208EFF208EDF212111A75AF212D
:100FBB00785FE2FC08E2FDECF5A7AF058FA608E22F
:080FCB00F5AE1210420210E025
:07101800785CEEF208EFF234
:10101F0012111AE4F5AF785C12103608E5AEF21231
:06102F0010E0785EE2FF14
:011035002298
:03000000020928CA
:0C092800787FE4F6D8FD75812302096F8A
:10047200BB010689828A83E0225002E722BBFE0288
:09048200E32289828A83E49322BB
:10048B00E88FF0A4CC8BF0A42CFCE98EF0A42CFC10
:10049B008AF0EDA42CFCEA8EF0A4CDA8F08BF0A48E
:1004AB002DCC3825F0FDE98FF0A42CCD35F0FCEBED
:1004BB008EF0A4FEA9F0EB8FF0A4CFC5F02ECD39B2
:0F04CB00FEE43CFCEAA42DCE35F0FDE43CFC221F
:1004DA0075F008758200EF2FFFEE33FECD33CDCCD9
:1004EA0033CCC58233C5829BED9AEC99E58298405C
:1004FA000CF582EE9BFEED9AFDEC99FC0FD5F0D639
:10050A00E4CEFBE4CDFAE4CCF9A88222B800C1B962
:10051A000059BA002DEC8BF084CFCECDFCE5F0CBA0
:10052A00F97818EF2FFFEE33FEED33FDEC33FCEBD9
:10053A0033FB10D703994004EB99FB0FD8E5E4F994
:10054A00FA227818EF2FFFEE33FEED33FDEC33FC81
:10055A00C933C910D7059BE99A4007EC9BFCE99A75
:10056A00F90FD8E0E4C9FAE4CCFB2275F010EF2FBA
:10057A00FFEE33FEED33FDCC33CCC833C810D707BA
:10058A009BEC9AE899400AED9BFDEC9AFCE899F8F5
:0E059A000FD5F0DAE4CDFBE4CCFAE4C8F92288
:1005A800EC8EF0A4CCC5F0CCCDF8EFA4CEC5F02DE0
:1005B800FDE43CFCE8A42EC8C5F03DFDE43CFCEF9E
:0D05C800A4FFE5F028FEE43DFDE43CFC222C
:100934000206E3E493A3F8E493A34003F68001F2F0
:1009440008DFF48029E493A3F85407240CC8C333C4
:10095400C4540F4420C8834004F456800146F6DF93
:10096400E4800B01020408102040809007ABE47E71
:10097400019360BCA3FF543F30E509541FFEE49388
:10098400A360010ECF54C025E060A840B8E493A34F
:10099400FAE493A3F8E493A3C8C582C8CAC583CA7A
:1009A400F0A3C8C582C8CAC583CADFE9DEE780BE32
:01086C00008B
:00000001FF
