:1006B400C104C11AC114C116812A00812B00C109C9
:1006C400C11B811000821B0000812600811800825A
:1006D4002C0000C10181000082160000811D0081F0
:1006E400280081340081050082240000870800006E
:1006F4000000000000C106810F00810400811A007F
:10070400C180813200813300811F00811E0082304C
:100714000000C10381210082140000811300C1196B
:10072400810100C10282020000C11582220000C1C1
:1007340008C117812700C105812900C107C118829A
:100744002E0000C10B8206000082110000C10CC102
:100754000DC10EC10FC110C111812000C112811938
:0507640000C10AC113F1
:10083A001212D11213A57F011211A0C299C298D225
:10084A00ACD2A9D2BCD2AFC205C21AD21CD284D2AF
:10085A0083D290D2A7C29378287406F2D2A2D2A3E6
:10086A00D2A6C294D285D28C120CC630142B782A06
:10087A00E2C394045023D20420A50C7E137FF7E42C
:10088A00FBFAFDFC120B2E782AE204F2C394044010
:10089A0008E4F2C214C204C2073016CC782BE2C3B1
:1008AA00940450C4D20420A50C7E137F6CE4FBFA96
:1008BA00FDFC120B2E782BE204F2C3940440A9E447
:0908CA00F2C216C204C207809FAD
:03000B00020026CA
:10002600C0E0C0F0C083C082C0D075D000C000C0A0
:1000360001C002C003C004C005C006C0077864E260
:10004600F58C7866E2F58A782408E22401FFF21836
:10005600E23400FEF2C3EF94D0EE94074068E4F277
:1000660008F220850B7E157F01FBFAFDFC120B2E94
:100076003017197827E204F2C39405400FE4F2C260
:10008600177819F27821E270031213B7301C142086
:10009600A5117829E204F2C394034007E4F2C21CD6
:1000A6001213B7300F207820E204F2D394054016DD
:1000B6007806E4F208F27811F208F2C20CC20DC218
:1000C6000EC20F7820F2300B13C20B1213467E13AA
:1000D6007FF7120DC97E137F6C120DC930A52D78DE
:1000E60011E4F208F2780608E22401FFF218E2347D
:1000F60000FEF2D3EF94A0EE940F4002803AD20CA9
:10010600300D02D20E300F41D210803D7806E4F257
:1001160008F2300C02D20D300E02D20F301002D28D
:1001260011781108E22401FFF218E23400FEF2D33E
:10013600EF94A0EE940F4011740FF20874A2F2C26D
:100146000CC20DC20EC20FC210301228C212D21338
:10015600C20CC20DC20EC20FC210C2117E0F7F6743
:10016600E4FBFAFDFC120B2E7E147FE5E4FBFAFDA0
:10017600FC120B2E30A5317821E2702C3017291293
:10018600120330A523120E5A7827E4F2C217781903
:10019600F27E137FC8FBFAFDFC120B2E7E127FB88F
:1001A600E4FBFAFDFC120B2E20A5227821E2640165
:1001B600701B20151820181512120320A50F782180
:1001C600E4F27E117F4AFBFAFDFC120B2E3080030F
:1001D600208708D2157822E4F208F230151D78221D
:1001E60008E22401FFF218E23400FEF2C3EF94D0D5
:1001F600EE94074006C215E4F208F2308208D218DF
:10020600782EE4F208F230181D782E08E22401FF59
:10021600F218E23400FEF2C3EF94D0EE94074006E3
:10022600C218E4F208F2308003208708D21578223B
:10023600E4F208F27814E2FE08E2FFC39496EE9424
:1002460000500720A504D219800FD3EF9400EE9436
:10025600014006C2197801E4F220840302037720E4
:1002660083030203772005030203777800E2146014
:100276003614607B2402600302034E30800320871D
:100286001F20041C201319781DE204F2C3940150A8
:100296000302034EE4F2780004F212135902034EED
:1002A600781DE4F202034E3080032087167810E2B0
:1002B60004F2C394014010E4F278007402F21213BF
:1002C600E880047810E4F2781608E22401FFF218B8
:1002D600E23400FEF2C3EF94A0EE940F406A780079
:1002E600E4F27810F2781DF27816F208F2805930AE
:1002F60080032087147818E204F2C39401400EE4C8
:10030600F2D214D216D20780047818E4F2781B08C9
:10031600E22401FFF218E23400FEF2C3EF94A0EEED
:10032600940F40247800E4F2781DF27810F27816E3
:10033600F208F2781BF208F2782C7403F2087420A3
:10034600F27818E4F27826F22081187813E2C39442
:10035600335010E204F294324017D214D21674339A
:10036600F2800E30810B2007087813E4F2C214C223
:1003760016301A42208413781EE204F2B40A16D20A
:100386001BC20920030FD201800BC21B7834E4F292
:10039600781EF2C201208313781FE204F2B40A1613
:1003A600D209C21B20030FD201800BC2097805E4D3
:1003B600F2781FF2C201300142783008E22401FFD0
:1003C600F218E23400FEF2C3EF94A0EE940F402B35
:1003D600C201E4F208F2D2037800F2781DF2781036
:1003E600F27816F208F2781BF208F2782C7403F20F
:1003F600087420F27818E4F27826F2308703208019
:100406001FD37803E2948818E2941340137F0312F3
:10041600131B308703208008D2027802E4F208F228
:10042600780208E22401FFF218E23400FEF2C3EF7C
:100436009488EE941340097413F2087489F2C20288
:10044600D007D006D005D004D003D002D001D0000A
:0B045600D0D0D082D083D0F0D0E032B4
:030023000205CA09
:1005CA00C0E0C0F0C083C082C0D075D000C000C0F7
:1005DA0001C002C003C004C005C006C007209803BA
:1005EA00020699C298780FE2FF2408F8E599F230DA
:1005FA00110302068BEF700E7808E2B41208780F26
:10060A007401F2020699780FE2B4010D7809E2B496
:10061A003407780F7402F28076780FE2FFB4020D85
:10062A00780AE2B45607780F7403F28062EFB403D3
:10063A000D780BE2B47807780F7404F28051780FC2
:10064A00E2B4040D780CE2B49007780F7405F280D6
:10065A003E780FE2B40524780DE2B4981E780FE4D0
:10066A00F2D2177827F2120E5AD20B7819E2FF0447
:10067A00F2EFC394014018D20A8014780FE4F28092
:10068A000E780FE204F2C394064004E4F2D212D0C8
:10069A0007D006D005D004D003D002D001D000D0B4
:0A06AA00D0D082D083D0F0D0E0322F
:1009D400E4FAEF6405703343F620C2F8C2F9D2FAA0
:1009E40043E180C2FCD2FBADF8EDC413135403FD04
:1009F400AFE2AB07EB7E007802C333CE33CED8F937
:100A04007C002DFBEC3EAF03FE22EF640670344302
:100A1400F640D2F8C2F9D2FA43E180C2FCD2FBAD6F
:100A2400F8EDC413135403FDAFE27A00AB07EB7E79
:100A3400007802C333CE33CED8F97C002DFBEC3ED4
:030A4400FEAF03FF
:010A4700228C
:0D1501007F061209D47814EEF208EFF222F2
:10077F007873EEF208EFF2C39401EE9403400CD2BB
:10078F00947F1C120EE87F3C0208247873E2FE0867
:10079F00E2FFC39401EE94035014C3EF94F4EE946C
:1007AF0002400BD2947F0A120EE87F648067787341
:1007BF00E2FE08E2FFC394F4EE94025014C3EF94E8
:1007CF00E5EE9402400BD2947F09120EE87F64800D
:1007DF00447873E2FE08E2FFC394E5EE94025014EE
:1007EF00C3EF94DBEE9402400BD2947F08120EE815
:1007FF007F6480217873E2FE08E2FFC394DBEE94FE
:10080F00025018C3EF94D0EE9402400FD2947F079A
:10081F00120EE87F6412131BC29422C37874E29401
:0B082F00D018E2940250031213D922EB
:09076900874900000000000000B7
:100D7700783774AAF2E418F2E47835F27837E2C2E9
:100D8700907D157C007F17120FA8D2907837E22547
:100D9700E0F27D157C007F2B120FA87835E204F274
:100DA700E2C3940840D6783774AAF27D157C007F99
:100DB70017120FA87836E204F2E2C3940340B9D2BF
:010DC700909B
:010DC8002208
:040C66007838EFF2F9
:100C6A00E408F2E4783AF27839E22449F8E230E723
:100C7A000CC2907838E2FD7C007F24800AC290780A
:100C8A0038E2FD7C007F17120FA8D2907839E2244F
:100C9A0049F8C000E225E0D000F27838E2FD7C0095
:100CAA007F0F120FA8783AE204F2E2C3940840B721
:0B0CBA007839E204F2E2C3940340A882
:010CC500220C
:10105900783BEFF208ECF208EDF2D2937F14121309
:101069001BC2A7784974C8F20874E0F2783BE278A9
:101079004BF2120D77783C08E2FF120C66D2A7C238
:021089009322B0
:10102500783EEFF208ECF208EDF2D2937F1412133A
:101035001BC2A7784974C8F20874E0F2783EE278DA
:101045004BF2120D77783F08E2FF120C66C2A7C279
:0410550093C2902290
:10108B00D2937F1412131BC2A778497412F20874FF
:10109B0034F2087456F2087478F2087490F2120D58
:1010AB00777BFE7A0079497D06121175D2A7C29320
:0110BB002212
:100B9C0020910D7833E204F2B47802E4F2C2002220
:100BAC00200041D2007833E2FFD394234010EFD3DE
:100BBC009450500A7804E225E0F254FE8010783309
:100BCC00E2D3945040147804E225E0F24401F27828
:100BDC001AE204F2E47832F280057832E204F2E4AC
:100BEC007833F2227832E204F2C3943C4009E47880
:080BFC001AF2D200780FF22278
:100F2600781AE264087039F27804E2FF780FE2FE7C
:100F36002408F8EFF2EE700C7808E2B4C806780FD1
:100F46007401F222EEB4010C7809E2B4E006780FDF
:100F56007402F222EEB40204D2068000E4780FF2A4
:010F66002268
:070A48007841ECF208EDF229
:100A4F00784974C8F20874E0F208EFF2E47843F2E0
:100A5F00E47844F27843E22449F8E230E70DC2A388
:100A6F007841E2FC08E2FD7F24800BC2A37841E2CB
:100A7F00FC08E2FD7F17120FA8D2A37843E22449A6
:100A8F00F8C000E225E0D000F27841E2FC08E2FD78
:100A9F007F0F120FA87844E204F2E2C3940840B427
:0B0AAF007843E204F2E2C3940340A588
:010ABA002219
:070ABB007845ECF208EDF2B2
:100AC200784974C8F20874E0F208EFF2E47847F269
:100AD200E47848F27847E22449F8E230E70DC2812F
:100AE2007845E2FC08E2FD7F24800BC2817845E272
:100AF200FC08E2FD7F17120FA8D2817847E2244951
:100B0200F8C000E225E0D000F27845E2FC08E2FD00
:100B12007F0F120FA87848E204F2E2C3940840B4AF
:0B0B22007847E204F2E2C3940340A510
:010B2D0022A5
:0407720082560000AB
:10120300785674FFF2087493F2785608E22401FFCB
:0A121300F218E23400F24F70F022EE
:10121D00785674FDF20874E3F2785608E22401FF63
:0A122D00F218E23400F24F70F022D4
:10123700785674FBF20874C7F2785608E22401FF67
:0A124700F218E23400F24F70F022BA
:10125100785674EAF20874E7F2785608E22401FF3E
:0A126100F218E23400F24F70F022A0
:10126B007856742DF208740FF2785608E22401FFB9
:0A127B00F218E23400F24F70F02286
:10131B00AE071FEE60107C137D88ED1DAA047001D3
:06132B001C4A60EC80F496
:011331002299
:070FA8007850ECF208EDF2B5
:100FAF00E408F208F2EFFDC37853E29D18E29400D3
:100FBF005025E4FEEEFDD37851E29D7480F5F018D4
:100FCF00E2648095F040030E80EA7853E22401F248
:070FDF0018E23400F280CE9D
:010FE60022E8
:1011C500E4FDFCC3ED9FEC9E5015E4FBFA0BBB0060
:0F11D500010AEB64644A70F50DBD00010C80E463
:0111E40022E8
:10129F00E4FDFCC3ED9FEC9E500EE4FB0BEBB4049E
:0812AF00FB0DBD00010C80EBFA
:0112B7002214
:070FE7007854EEF208EFF26E
:100FEE00E4F9E4FAFBD37855E29B18E29A40070B3A
:100FFE00BB00010A80EF09E9B432E7E4F92092164A
:10100E00E4FAFBC3EB9DEA9C50070BBB00010A8080
:06101E00F209E9B432E71B
:0110240022A9
:02077600C11CA4
:10114A00200A0A7814E2FE08E2FF12077F1214F35B
:10115A00200A031212EAD21CE47829F27F1412132D
:0B116A001BE47819F2300A02C20A22CE
:1012B800200A101214067814E2FE08E2FF12077FD3
:0912C800120E1278217401F222C9
:1010BC007858EEF208EFF208ECF208EDF2EBFD7C5A
:1010CC00007FC1120A48D2A2C2A37858E2FE08E2FD
:1010DC00FF08E2FC08E2FD120FE7D2A2D2A3C28500
:0110EC0022E1
:1010ED00785CEEF208EFF208ECF208EDF2EBFD7C25
:1010FD00007FC1120ABBD2A2C2A3785CE2FE08E255
:10110D00FF08E2FC08E2FD120FE7C2A2C2A3C285EE
:01111D0022AF
:0E14C900D285C2A2D2A3120FE7D2A2D2A322D2
:0E14D700D285C2A2D2A3120FE7C2A2C2A322E4
:100E5A00C21AC205C209C21BE47800F2781DF278F0
:100E6A0010F27816F208F2781BF208F2782CF208DF
:100E7A00F27818F27826F2C204C214782AF2C2165C
:100E8A00782BF2C2017813F2C208C21C7829F2C286
:050E9A00197801F222AD
:1013B700D21AD205E47800F2781DF2C21C7829F21D
:0113C7002203
:0A151900C2A47F0512131BD2A42206
:1013030075DCC07860E4F208741DF218E2FC08E2B0
:08131300FDECF5D1EDF5D92246
:100C0400EF14601F14603114604324037053786040
:100C1400E4F208740DF218E2FC08E2FDECF5D2ED02
:100C2400F5DA2278607401F208E4F218E2FC08E2D2
:100C3400FDECF5D3EDF5DB227860E4F2087480F284
:100C440018E2FC08E2FDECF5D5EDF5DD227860E470
:100C5400F2087440F218E2FC08E2FDECF5D6EDF57A
:020C6400DE228E
:08000300E4FF120C04021303D8
:07095F007862ECF208EDF2F2
:100966007E007C2B7D3312059DE47B0CFAF9F81290
:100976000505C3E49FFFE49E7864F27866EFF2789B
:1009860062E2FE08E2FFEE3395E0FDFCE47B0BFA43
:10099600F9F812047AE47B0CFAF9F8120505C3E4B7
:1009A6009FFFE49EAD07FF7865F2AE057867EEF22D
:1009B6007589117864E2F58C7866E2F58A8F8D8EFA
:0D09C6008BD2A9C28CD2ABD28ED2BBD2AFE5
:0109D3002201
:1011A0007E007C2B7D3312059DE47B0CFAF9F8124E
:1011B0000505C3E49FFFE49E7864F27866EFF2755C
:0411C0008921C28C33
:0111C4002208
:04152B0043870122CF
:1013A50053A2BF75985A758920758BFD758DFDD231
:0213B5008E2286
:081523008F993099FDC2992255
:101175007868EBF208EAF208E9F2AF051DEF601AAC
:101185007868E2FB0808E2F92401F218E2FA340073
:0B119500F2120461FF12152380E0221B
:03077800816B0191
:040EE400D2947F0E17
:040EE8007877EFF236
:100EEC00C2A07F647E001211C5D2A07F967E001234
:100EFC0011C5E47878F27877E2FF08E2C39F5019C5
:100F0C00D2A17F147E0012129FC2A17F147E001208
:090F1C00129F7878E204F280DDF6
:010F250022A9
:1012D100C294C2A1C2A07F5E7E0112129FD2A07FE2
:0912E1005E7E0112129FD29422DC
:100E1200786BE224FE602704703D120EE47F2D12EF
:100E2200131B7F12120EE87F3212131B7F0B120E5E
:100E3200E87F4612131BC294786B7402F222120EE0
:100E4200E47F2812131B7F0C120EE87F3C12131B47
:080E5200C294786B7401F222D6
:0F13D900D2947F06120EE87F5012131BC294228B
:10134600D2947F06120EE812123712123712123793
:03135600C294221C
:0E14E5001213467F0A12131B121346C2132263
:10135900D2947F02120EE87F5A12131BC2947F1E89
:0313690002131B51
:0F13E800D2947F1B120EE87F8C12131BC294222B
:0F13F700D2947F03120EE87FB412131BC294220C
:10136C00D2947F16120EE87FB412131BC2947F1412
:03137C0002131B3E
:0F140600D2947F17120EE87F3C12131BC2942260
:1012EA00D2947F18120EE87F3C12131B7F0D120E48
:0912FA00E87F4612131BC2942286
:0F141500D2947F13120EE87F5012131BC2942241
:0F142400D2947F14120EE87F7812131BC2942209
:0F143300D2947F13120EE87F9612131BC29422DD
:0F144200D2947F09120EE87F7812131BC29422F6
:0B150E00120EE47F7812131BC294221F
:0F145100D2947F04120EE87F9612131BC29422CE
:0F146000D2947F03120EE87F8C12131BC29422CA
:0F146F00D2947F02120EE87F7812131BC29422D0
:0F147E00D2947F07120EE87F5012131BC29422E4
:0F148D00D2947F0B120EE87F3212131BC29422EF
:0F149C00D2947F0F120EE87F3212131BC29422DC
:0F14AB00D2947F0C120EE87F5012131BC29422B2
:0F14BA00D2947F0D120EE87F5012131BC29422A2
:10137F0075AF30C2AF75C7AA75C755439F01D2AFBE
:03138F00021291B6
:1013320075AF30121291C2AF75C7AA75C755539FC8
:04134200FED2AF2206
:0C128500E2FC08E2FDECF5A7AF058FA627
:0E129100C2AF75C7AA75C75543A401D2AF22DC
:10000E007873EEF208EFF212137F75AF2278731247
:05001E001285021332FF
:04111E00E2FD7E3040
:101122007873EEF208EFF208EDF212137F75AF2139
:101132007873E2FC08E2FDECF5A7AF058FA608E2A2
:08114200F5AE12129102133206
:0711E500786CEEF208EFF256
:1011EC0012137FE4F5AF786C12128508E5AEF2129B
:0611FC001332786EE2FFE1
:0112020022C9
:100F67007F007E3012000E78087F0012111E78096C
:100F77007F0112111E780AE2FD7F027E30121122D4
:100F8700780BE2FD7F037E30121122780CE2FD7FA1
:100F9700047E30121122780DE2FD7F057E300211AA
:010FA7002227
:1013C800120D21D2A2C2A3121392D2A2D2A3C28515
:0113D80022F2
:0E14F300D285C2A2D2A3121392D2A2D2A322F9
:100D2100784974C8F20874E0F20874C1F2E4787387
:100D3100F2E47874F27873E22449F8E230E707C20A
:100D4100A31212378005C2A312121DD2A37873E237
:100D51002449F8C000E2FF25E0D000F212121D780C
:100D610074E204F2E2C3940840CB7873E204F2E245
:050D7100C3940340BC27
:010D7600225A
:1013920012126B12126B20920912126B12126B1242
:0313A200126B22A9
:03077B00816F008B
:100CC600E47877F27877E2FFC3940A5048EF75F03C
:100CD60007A4242AF8E6D3940040337877E2FF7518
:100CE600F007A4242AF816EF75F007A42424F8E6E2
:100CF600FE08E6AA06F91205977877E2FF75F0076F
:100D0600A42428F8E6FC08E64C7003120E9F7877B8
:0B0D1600E204F280AF12153302152F2B
:070B2E007877EEF208EFF208
:100B3500E4FFEF75F007A42424F8E6F58308E645FD
:100B4500836009EFC3940A50030F80E6EFB40A08E7
:100B5500786F7401F27F0A227877E2F58308E2F56F
:100B650082EF75F007A42424F8A68308A682EF7502
:100B7500F007A42426F8A60408A605AC02AD03EFE9
:100B850075F007A42428F8A60408A605EF75F00754
:060B9500A4242AF87601F9
:010B9B002237
:100E9F00EF75F007A42424F8E6FC08E64C700578FB
:100EAF006F7402F2EF75F007A42424F8E4F608F645
:100EBF00EF75F007A42426F8E4F608F6EF75F007AF
:100ECF00A42428F8E4F608F6EF75F007A4242AF80E
:040EDF00E4F6A21D76
:010EE30022EC
:100DC900E4FDED75F007A42424F8E6FA08E66F704F
:100DD90002EA6E702EED75F007A42424F8E4F608F3
:100DE900F6ED75F007A42426F8E4F608F6ED75F09B
:100DF90007A42428F8E4F608F6ED75F007A4242AD8
:080E0900F8E4F60DEDB40ABA9D
:010E110022BE
:011533002295
:04152F0043870122CB
:030000000208D320
:0C08D300787FE4F6D8FD75816902091AEF
:10046100BB010689828A83E0225002E722BBFE0299
:09047100E32289828A83E49322CC
:10047A00E88FF0A4CC8BF0A42CFCE98EF0A42CFC21
:10048A008AF0EDA42CFCEA8EF0A4CDA8F08BF0A49F
:10049A002DCC3825F0FDE98FF0A42CCD35F0FCEBFE
:1004AA008EF0A4FEA9F0EB8FF0A4CFC5F02ECD39C3
:0F04BA00FEE43CFCEAA42DCE35F0FDE43CFC2230
:1004C90075F008758200EF2FFFEE33FECD33CDCCEA
:1004D90033CCC58233C5829BED9AEC99E58298406D
:1004E9000CF582EE9BFEED9AFDEC99FC0FD5F0D64A
:1004F900E4CEFBE4CDFAE4CCF9A88222B800C1B974
:100509000059BA002DEC8BF084CFCECDFCE5F0CBB1
:10051900F97818EF2FFFEE33FEED33FDEC33FCEBEA
:1005290033FB10D703994004EB99FB0FD8E5E4F9A5
:10053900FA227818EF2FFFEE33FEED33FDEC33FC92
:10054900C933C910D7059BE99A4007EC9BFCE99A86
:10055900F90FD8E0E4C9FAE4CCFB2275F010EF2FCB
:10056900FFEE33FEED33FDCC33CCC833C810D707CB
:100579009BEC9AE899400AED9BFDEC9AFCE899F806
:0E0589000FD5F0DAE4CDFBE4CCFAE4C8F92299
:060597008A838982E473EF
:10059D00EC8EF0A4CCC5F0CCCDF8EFA4CEC5F02DEB
:1005AD00FDE43CFCE8A42EC8C5F03DFDE43CFCEFA9
:0D05BD00A4FFE5F028FEE43DFDE43CFC2237
:1008DF0002083AE493A3F8E493A34003F68001F2ED
:1008EF0008DFF48029E493A3F85407240CC8C3331A
:1008FF00C4540F4420C8834004F456800146F6DFE9
:10090F00E4800B01020408102040809006B4E47EBE
:10091F00019360BCA3FF543F30E509541FFEE493DD
:10092F00A360010ECF54C025E060A840B8E493A3A4
:10093F00FAE493A3F8E493A3C8C582C8CAC583CACF
:10094F00F0A3C8C582C8CAC583CADFE9DEE780BE87
:01077E00007A
:00000001FF
