:10026A00C105C118C110C112014D00014E00C10DD6
:10027A00C11A013400023C0000014900013A00029F
:10028A004F0000C10101240002380000013E0001B4
:10029A004B00015900012B0002470000072C000007
:1002AA000000000000C107013300012A00013B00E1
:1002BA00C18001570001580001410001400002536A
:1002CA000000C10401440002360000013500C117D4
:1002DA00012500C10302260000C11102450000C128
:1002EA000CC113014A00C106014C00C10BC1140222
:1002FA0051000002280000C11BC115C109C102C179
:10030A000802550000C116C10F02420000C18E0149
:06031A003F00C18AC11979
:1006AA0012001E7D647C007F321204E3D28CD28059
:1006BA00D28143EC0343EB0353EAFC43E903D2AF91
:1006CA00D2A4D290C2947F0612046F8E368F37E47A
:1006DA00F528F529C205C2A7C293D282300AFDD2F3
:0806EA00E9C20A43870280F413
:03000B000201A14E
:1001A100C0E0C0F0C083C082C0D075D000C000C024
:1001B10001C002C003C004C005C006C00785668C2B
:1001C10085688A0548E54870020547C3943CE547C0
:1001D1009400404D7F0612046F8E368F37301B120C
:1001E100D3E5379433E53694035007C21B120AE175
:1001F1008013201B10C3E537945AE536940340055C
:10020100D21B120B84301911C282D2917D1B7C004A
:100211007FC912091FD2828002D20A754700754830
:100221000020800FC282D2917D1B7C007FC7120902
:100231001FD28220810FC282D2917D1B7C007FE878
:1002410012091FD28220A604D2198002C219D00736
:10025100D006D005D004D003D002D001D000D0D038
:09026100D082D083D0F0D0E0324D
:03001B0002073A9F
:10073A00C0E0C0F0C083C082C0D075D000C000C085
:10074A0001C002C003C004C005C006C00785678D8A
:10075A0085698B120555120838D007D006D005D006
:10076A0004D003D002D001D000D0D0D082D083D020
:04077A00F0D0E032A9
:03003B00020003BD
:08000300C2E953EAFCD2E93224
:10046F00E4FAEF6405703343F620C2F8C2F9D2FA0A
:10047F0043E180C2FCD2FBADF8EDC413135403FD6E
:10048F00AFE2AB07EB7E007802C333CE33CED8F9A1
:10049F007C002DFBEC3EAF03FE22EF64067034436D
:1004AF00F640D2F8C2F9D2FA43E180C2FCD2FBADDA
:1004BF00F8EDC413135403FDAFE27A00AB07EB7EE4
:1004CF00007802C333CE33CED8F97C002DFBEC3E3F
:0304DF00FEAF036A
:0104E20022F7
:100332008E708F71C3E57194FBE5709401400BD20E
:10034200947F1C1207C57F3C61CEC3E57194FBE527
:100352007094015016C3E57194EFE5709401400B5F
:10036200D2947F0A1207C57F648061C3E57194EF5E
:10037200E57094015016C3E57194E3E57094014071
:100382000BD2947F091207C57F648040C3E5719444
:10039200E3E57094015016C3E57194D7E5709401BA
:1003A200400BD2947F081207C57F64801FC3E5719A
:1003B20094D7E5709401501AC3E57194C9E570941D
:1003C20001400FD2947F071207C57F64120A07C249
:1003D2009422C3E57194C9E57094015003120A781E
:0103E20022F8
:0C0320000719000000000000000118FF99
:1006F200750DAAE4F50CE4F50BE50DC2907D157CB1
:10070200007F171208F7D290E50D25E0F50D7D1553
:100712007C007F2B1208F7050BE50BC3940840D928
:10072200750DAA7D157C007F171208F7050CE50CE4
:07073200C3940340C1D29003
:01073900229D
:02060C008F0B52
:10060E00E4F50CE4F50D7419250CF8E630E70BC291
:10061E0090E50BFD7C007F248009C290E50BFD7CEC
:10062E00007F171208F7D2907419250CF8C000E657
:10063E0025E0D000F6E50BFD7C007F0F1208F705D4
:10064E000DE50DC3940840BE050CE50CC3940340A4
:01065E00B2E9
:01065F002278
:10096D008F6A8C6B8D6CD2937F14120A07C2A77598
:10097D0019C8751AE0856A1B1206F2AF6C12060CC7
:05098D00D2A7C2932275
:10091F008F088C098D0AD2937F14120A07C2A7750C
:10092F0019C8751AE085081B1206F2AF0A12060CD9
:07093F00C2A7C293C290227F
:1008A100D2937F14120A07C2A7E4F519F51AF51BB2
:1008B100751C13751DEC85181E1206F27B007A005B
:0C08C10079197D06120992D2A7C2932279
:1005550020910D0558E558B47803E4F558C20022FA
:10056500200038D200E558D394234012E558D3949F
:1005750050500BE52A25E0F52A532AFE8010E55850
:10058500D394504010E52A25E0F52A432A01053B7E
:10059500E4F55780020557E4F558220557E557C39A
:0C05A500943C4007E4F53BD200F5332203
:10083800E53B64087030F53B742C2533F8A62AE5AF
:10084800337009E52CB4C80475330122E533B401CB
:1008580009E52DB4E00475330222E533B40204D26D
:07086800078000E4F53322D4
:0405B1008C5A8D5B78
:1005B5007519C8751AE08F1BE4F55CE4F55D7419CF
:1005C500255CF8E630E70AC2A2AD5BAC5A7F248011
:1005D50008C2A2AD5BAC5A7F171208F7D2A27419F4
:1005E500255CF8C000E625E0D000F6AD5BAC5A7F8F
:1005F5000F1208F7055DE55DC3940840C1055CE58C
:060605005CC3940340B544
:01060B0022CC
:100A0700AE071FEE60107C137D88ED1DAA047001F0
:060A17001C4A60EC80F4B3
:010A1D0022B6
:1008F700E4FBFAEFF582C3EB9582EA94005018E423
:10090700FEEEC39DEC6480F874809850030E80F16E
:070917000BBB00010A80DCAC
:01091E0022B6
:1009B600E4FDFCC3ED9FEC9E5015E4FBFA0BBB0077
:0F09C600010AEB64644A70F50DBD00010C80E47A
:0109D50022FF
:1009EF00E4FDFCC3ED9FEC9E500DE4FB0BBB04FC40
:0709FF000DBD00010C80ECAE
:010A060022CD
:10086F00E4F9E4FAFBC3EB9FEA9E50070BBB0001D0
:10087F000A80F209B932EBE4F9209215E4FAFBC3CE
:10088F00EB9DEA9C50070BBB00010A80F209B932BD
:01089F00E870
:0108A0002235
:02032C00C11CF2
:0D000E001209D6D21CE4F54C7F14020A073B
:100A6800120AA5AF37AE3612033212077E0208000B
:100946008E5E8F5F8C608D61EBFD7C007FC1120532
:10095600B1C2A2D2A3AD61AC60AF5FAE5E12086F4A
:07096600D2A2D2A3C2852238
:0E0B6800D285D2A2C2A312086FD2A2D2A322BB
:10080000C218C206C20DC21AE4F524F53EF534F54D
:1008100038F539F53CF53DF54FF550F53AF549C257
:1008200005C210F54DC212F54EC201F535C20CC21B
:080830001CF54CC217F525224E
:0E0B7600D218D206E4F524F53EC21CF54C223E
:0A0B8F00C2A47F05120A07D2A422B7
:100A440075DCC075720075731DE572F5D1E573F53B
:020A5400D922A5
:10066000EF1460191460251460312403703B757217
:100670000075730DE572F5D2E573F5DA2275720136
:10068000757300E572F5D3E573F5DB2275720075BD
:100690007380E572F5D5E573F5DD2275720075732B
:0A06A00040E572F5D6E573F5DE22A1
:080B9900E4FF120660020A44A9
:0404E3008C0E8D0FDF
:1004E7007E007C2B7D33120174E47B0CFAF9F81241
:1004F70000E28F138E128D118C10C3E49FFFE49ED0
:10050700F5668F68AE0EAF0FEE3395E0FDFCE47B2A
:100517000BFAF9F8120057E47B0CFAF9F81200E22B
:100527008F178E168D158C14C3E49FFFE49EF56715
:100537008F6975891185668C85688A85678D856958
:0D0547008BD2A9C28CD2ABD28ED2BBD2AF68
:010554002284
:1008CD007E007C2B7D33120174E47B0CFAF9F81257
:1008DD0000E28F658E648D638C62C3E49FFFE49E9E
:0908ED00F5668F68758921C28C43
:0108F60022DF
:0400370043870122D8
:100A560053A2BF75985A758920758BFD758DFDD289
:020A66008E22DE
:080BA1008F993099FDC29922E1
:100992008B6D8A6E896FAF051DEF6017AB6D056FAA
:1009A200E56FAA6E7002056E14F912003EFF120B7B
:0409B200A180E3221B
:03032E0001740156
:0407C100D2947F0E41
:0207C5008F089B
:1007C700C2A07F647E001209B6D2A07F967E001277
:1007D70009B6E4F509E509C395085016D2A17F14B7
:1007E7007E001209EFC2A17F147E001209EF0509EE
:0207F70080E39D
:0107F90022DD
:10001E00C294C2A1C2A07F5E7E011209EFD2A07F60
:09002E005E7E011209EFD294225A
:10077E00E57424FE60250470391207C17F2D120A1C
:10078E00077F121207C57F32120A077F0B1207C5A9
:10079E007F46120A07C294757402221207C17F287F
:1007AE00120A077F0C1207C57F3C120A07C2947506
:0307BE00740122A1
:0F0A7800D2947F061207C57F50120A07C294223C
:100A1E00D2947F021207C57F5A120A07C2947F1E14
:030A2E00020A07B2
:0F0A8700D2947F1B1207C57F8C120A07C29422DC
:0F0A9600D2947F031207C57FB4120A07C29422BD
:100A3100D2947F161207C57FB4120A07C2947F149D
:030A4100020A079F
:0F0AA500D2947F171207C57F3C120A07C2942212
:1009D600D2947F181207C57F3C120A077F0D1207B3
:0909E600C57F46120A07C29422E3
:0F0AB400D2947F131207C57F50120A07C29422F3
:0F0AC300D2947F141207C57F78120A07C29422BB
:0F0AD200D2947F131207C57F96120A07C294228F
:0F0AE100D2947F091207C57F78120A07C29422A8
:0B0B84001207C17F78120A07C29422FA
:0F0AF000D2947F041207C57F96120A07C2942280
:0F0AFF00D2947F031207C57F8C120A07C294227C
:0F0B0E00D2947F021207C57F78120A07C2942281
:0F0B1D00D2947F071207C57F50120A07C2942295
:0F0B2C00D2947F0B1207C57F32120A07C29422A0
:0F0B3B00D2947F0F1207C57F32120A07C294228D
:0F0B4A00D2947F0C1207C57F50120A07C2942263
:0F0B5900D2947F0D1207C57F50120A07C2942253
:030000000203E315
:0C03E300787FE4F6D8FD75817402042ACE
:10003E00BB010689828A83E0225002E722BBFE02C0
:09004E00E32289828A83E49322F3
:10005700E88FF0A4CC8BF0A42CFCE98EF0A42CFC48
:100067008AF0EDA42CFCEA8EF0A4CDA8F08BF0A4C6
:100077002DCC3825F0FDE98FF0A42CCD35F0FCEB25
:100087008EF0A4FEA9F0EB8FF0A4CFC5F02ECD39EA
:0F009700FEE43CFCEAA42DCE35F0FDE43CFC2257
:1000A60075F008758200EF2FFFEE33FECD33CDCC11
:1000B60033CCC58233C5829BED9AEC99E582984094
:1000C6000CF582EE9BFEED9AFDEC99FC0FD5F0D671
:1000D600E4CEFBE4CDFAE4CCF9A88222B800C1B99B
:1000E6000059BA002DEC8BF084CFCECDFCE5F0CBD9
:1000F600F97818EF2FFFEE33FEED33FDEC33FCEB12
:1001060033FB10D703994004EB99FB0FD8E5E4F9CC
:10011600FA227818EF2FFFEE33FEED33FDEC33FCB9
:10012600C933C910D7059BE99A4007EC9BFCE99AAD
:10013600F90FD8E0E4C9FAE4CCFB2275F010EF2FF2
:10014600FFEE33FEED33FDCC33CCC833C810D707F2
:100156009BEC9AE899400AED9BFDEC9AFCE899F82D
:0E0166000FD5F0DAE4CDFBE4CCFAE4C8F922C0
:10017400EC8EF0A4CCC5F0CCCDF8EFA4CEC5F02D18
:10018400FDE43CFCE8A42EC8C5F03DFDE43CFCEFD6
:0D019400A4FFE5F028FEE43DFDE43CFC2264
:1003EF000206AAE493A3F8E493A34003F68001F274
:1003FF0008DFF48029E493A3F85407240CC8C3330F
:10040F00C4540F4420C8834004F456800146F6DFDD
:10041F00E4800B010204081020408090026AE47E01
:10042F00019360BCA3FF543F30E509541FFEE493D2
:10043F00A360010ECF54C025E060A840B8E493A399
:10044F00FAE493A3F8E493A3C8C582C8CAC583CAC4
:10045F00F0A3C8C582C8CAC583CADFE9DEE780BE7C
:0103310000CB
:00000001FF
