:10068D00C104C110C10AC10C014700014800C109D4
:10069D00C111013100023900000143000137000290
:1006AD00490000C10101230002350000013B00019A
:1006BD0045000151000128000241000007290000FA
:1006CD000000000000C106013000012700013800C4
:1006DD00C180014F00015000013D00013C00024D61
:1006ED000000C103013E0102330000013200C10FC1
:1006FD00012400C10202250000C10B023F0000C110
:10070D0008C10D014400C105014600C107C10E021B
:03071D004B00008E
:10047B00120C93120D197F01120B8AC299C298D2DA
:10048B00ACD2A9D2BCD2AFC205C210D284D283D215
:10049B0090D287D2A7C293754506D2A2D2A3D2A679
:1004AB00C294D285D28C3080032087127F02120C2B
:1004BB00DD308003208707D20BE4F53FF540300A8F
:1004CB0021E547C39404501AD20420A503120D59F9
:1004DB000547E547C394044009E4F547C20AC20443
:1004EB00C207300C21E548C39404501AD20420A54E
:1004FB0003120CF40548E548C394044009E4F5489D
:10050B00C20CC204C207C3E5349496E53394005081
:10051B000720A504D20F808ED3E5349400E53394E5
:0B052B00014083C20FE4F5240204B17C
:03000B00020026CA
:10002600C0E0C0F0C083C082C0D075D000C000C0A0
:1000360001C002C003C004C005C006C007855A8CB3
:10004600855C8A0542E54270020541C394D0E541CC
:100056009407403E7541007542007F061207BE8E2A
:10006600338F34300D150544E544C3940F400C75A9
:100076004400C20DE53E7003120E3930121420A55D
:10008600110546E546C3940F4008754600C2121294
:100096000E3930A527E53E7023300D207F05120C62
:1000A600DD30A5187B2A7D347C087F707E17120C04
:1000B60003120D2B753E01754400C20D20A52CE5DB
:1000C6003E64017026200B23200E207F05120CDDD6
:1000D60020A518AF34AE33120536753E007DBC7CC4
:1000E6001B7FD07E07120E2B120E4730800320870F
:1000F60008D20B753F00754000300B190540E540EE
:100106007002053FC394D0E53F94074008C20B75C3
:100116003F00754000308208D20E754B00754C00CA
:10012600300E19054CE54C7002054BC394D0E54BD7
:1001360094074008C20E754B00754C0020840302DC
:100146000240208303020240200503020240E52309
:1001560014603114606D24026003020218308003BB
:1001660020871B200418053BE53BC394025003027D
:100176000218753B0075230112000E020218753B2A
:10018600000202183080032087140531E531C3943C
:1001960002400E753100752302120D4A8003753137
:1001A600000536E53670020535C394A0E535940F93
:1001B6004060752300753100753B00753500753656
:1001C60000804F3080032087140537E537C394013C
:1001D600400E753700D20AD20CD20780037537005D
:1001E600053AE53A70020539C394A0E539940F4003
:1001F60021752300753B0075310075350075360095
:10020600753900753A00754903754A2075370075CA
:100216004300208118E532C3943350110532E5328C
:1002260094324016D20AD20C753233800D30810AD0
:10023600200707753200C20AC20C30103E20841215
:10024600053CE53CB40A15D211C20920030ED201C1
:10025600800AC211755100753C00C2012083120547
:100266003DE53DB40A15D209C21120030ED2018024
:100276000AC209752800753D00C20130013C054ED1
:10028600E54E7002054DC394A0E54D940F402BC278
:1002960001754D00754E00D203752300753B007540
:1002A6003100753500753600753900753A007549A7
:1002B60003754A2075370075430030870320801E7A
:1002C600D3E5269488E525941340137F03120CDDAD
:1002D600308703208008D202752500752600052682
:1002E600E52670020525C39488E525941340087514
:1002F6002513752689C202D007D006D005D004D0B2
:1003060003D002D001D000D0D0D082D083D0F0D09C
:02031600E032D3
:030023000205E8EB
:1005E800C0E0C0F0C083C082C0D075D000C000C0D9
:1005F80001C002C003C004C005C006C00730986A25
:10060800C29874292530F8A699E5307009E5297053
:10061800057530018054E530B40109E52A70057587
:1006280030028046E530B40209E52B7005753003C9
:100638008038E530B4030AE52CB41305753004801E
:1006480029E530B4040AE52DB4EC05753005801AA7
:10065800E530B40512E52EB5520D753000D20D7592
:100668004400120ABD8003753000D007D006D005BB
:10067800D004D003D002D001D000D0D0D082D08313
:05068800D0F0D0E032CB
:1007BE00E4FAEF6405703343F620C2F8C2F9D2FAB8
:1007CE0043E180C2FCD2FBADF8EDC413135403FD1C
:1007DE00AFE2AB07EB7E007802C333CE33CED8F94F
:1007EE007C002DFBEC3EAF03FE22EF64067034431B
:1007FE00F640D2F8C2F9D2FA43E180C2FCD2FBAD88
:10080E00F8EDC413135403FDAFE27A00AB07EB7E91
:10081E00007802C333CE33CED8F97C002DFBEC3EEC
:03082E00FEAF0317
:0108310022A4
:100536008E088F09C3E5099401E5089403400CD29F
:10054600947F1C120A887F3C0205D3C3E5099401F7
:10055600E50894035016C3E50994F4E508940240AF
:100566000BD2947F0A120A887F648061C3E50994DE
:10057600F4E50894025016C3E50994E5E5089402EB
:10058600400BD2947F09120A887F648040C3E50934
:1005960094E5E50894025016C3E50994D5E5089458
:1005A60002400BD2947F08120A887F64801FC3E53D
:1005B6000994D5E5089402501AC3E50994C8E508DC
:1005C6009402400FD2947F07120A887F64120CDDD2
:1005D600C29422C3E50994C8E50894025003120D9B
:0205E6003B22B6
:0C0720000753000000000000000152FF21
:1009F9007560AAE4F55FE4F55EE560C2907D157C5B
:100A0900007F17120BB4D290E56025E0F5607D15E3
:100A19007C007F2B120BB4055EE55EC3940840D9B8
:100A29007560AA7D157C007F17120BB4055FE55F21
:070A3900C3940340C1D290F9
:010A40002293
:02095B008F61AA
:10095D00E4F562E4F56374532562F8E630E70BC203
:10096D0090E561FD7C007F248009C290E561FD7CEE
:10097D00007F17120BB4D29074532562F8C000E6B5
:10098D0025E0D000F6E561FD7C007F0F120BB4056C
:10099D0063E563C3940840BE0562E562C3940340FA
:0109AD00B297
:0109AE002226
:100C2A008F648C658D66D2937F14120CDDC2A77512
:100C3A0053C87554E08564551209F9AF6612095B09
:050C4A00D2A7C29322B5
:100BDC008F678C688D69D2937F14120CDDC2A77558
:100BEC0053C87554E08567551209F9AF6912095B52
:070BFC00C2A7C293C29022C0
:100B5E00D2937F14120CDDC2A7E4F553F554F5556C
:100B6E007556137557EC8552581209F97B007A00A9
:0C0B7E0079537D06120C4FD2A7C29322BF
:1008A40020910D0550E550B47803E4F550C20022C0
:1008B400200038D200E550D394234012E550D3945D
:1008C40050500BE52725E0F5275327FE8010E5500F
:1008D400D394504010E52725E0F527432701053838
:1008E400E4F54F8002054FE4F55022054FE54FC370
:0C08F400943C4007E4F538D200F53022B7
:100AF500E53864087030F53874292530F8A627E5FF
:100B0500307009E529B4C80475300122E530B40117
:100B150009E52AB4E00475300222E530B40204D2B6
:070B2500068000E4F5302218
:040900008C0C8D0DC1
:100904007553C87554E08F55E4F50EE4F50F745330
:10091400250EF8E630E70AC2A2AD0DAC0C7F2480A8
:1009240008C2A2AD0DAC0C7F17120BB4D2A2745343
:10093400250EF8C000E625E0D000F6AD0DAC0C7F26
:100944000F120BB4050FE50FC3940840C1050EE563
:060954000EC3940340B540
:01095A00227A
:100CDD00AE071FEE60107C137D88ED1DAA04700118
:060CED001C4A60EC80F4DB
:010CF30022DE
:100BB400E4FBFAEFF582C3EB9582EA94005018E463
:100BC400FEEEC39DEC6480F874809850030E80F1AF
:070BD4000BBB00010A80DCED
:010BDB0022F7
:100C7300E4FDFCC3ED9FEC9E5015E4FBFA0BBB00B7
:0F0C8300010AEB64644A70F50DBD00010C80E4BA
:010C9200223F
:100CC500E4FDFCC3ED9FEC9E500DE4FB0BBB04FC67
:070CD5000DBD00010C80ECD5
:010CDC0022F5
:100B2C00E4F9E4FAFBC3EB9FEA9E50070BBB000110
:100B3C000A80F209B932EBE4F9209215E4FAFBC30E
:100B4C00EB9DEA9C50070BBB00010A80F209B932FD
:010B5C00E8B0
:010B5D002275
:02072C00C112F8
:0D0E4700120CACD212E4F5467F14020CDD53
:100D2B00120D68AF34AE33120536120A41020ABDFA
:100C03008E088F098C0A8D0BEBFD7C007FC11209C6
:100C130000C2A2D2A3AD0BAC0AAF09AE08120B2CD3
:070C2300D2A2D2A3C2852278
:0E0E2B00D285D2A2C2A3120B2CD2A2D2A32235
:100ABD00C210C205C209C211E4F523F53BF531F5AB
:100ACD0035F536F539F53AF549F54AF537F543C2B9
:100ADD0004C20AF547C20CF548C201F532C208C27C
:080AED0012F546C20FF52422A8
:0E0E3900D210D205E4F523F53BC212F5462295
:0A0E5F00C2A47F05120CDDD2A4220C
:100D070075DCC0751E00751F1DE51EF5D1E51FF5C5
:020D1700D922DF
:1009AF00EF1460191460251460312403703B751E19
:1009BF0000751F0DE51EF5D2E51FF5DA22751E0134
:1009CF00751F00E51EF5D3E51FF5DB22751E0075BB
:1009DF001F80E51EF5D5E51FF5DD22751E00751F7D
:0A09EF0040E51EF5D6E51FF5DE22F7
:08000300E4FF1209AF020D0732
:040832008C148D1580
:100836007E007C2B7D3312044EE47B0CFAF9F81211
:1008460003BC8F198E188D178C16C3E49FFFE49E88
:10085600F55A8F5CAE14AF15EE3395E0FDFCE47BE4
:100866000BFAF9F8120331E47B0CFAF9F81203BC1F
:100876008F1D8E1C8D1B8C1AC3E49FFFE49EF55BB7
:100886008F5D758911855A8C855C8A855B8D855D42
:0D0896008BD2A9C28CD2ABD28ED2BBD2AF16
:0108A3002232
:100B8A007E007C2B7D3312044EE47B0CFAF9F812BA
:100B9A0003BC8F138E128D118C10C3E49FFFE49E49
:090BAA00F55A8F5C758921C28C9B
:010BB300221F
:040E71004387012290
:100D190053A2BF75985A758920758BFD758DFDD2C3
:020D29008E2218
:080E69008F993099FDC2992216
:100C4F008B6A8A6B896CAF051DEF6017AB6A056CF9
:100C5F00E56CAA6B7002056B14F9120318FF120EE4
:040C6F006980E32293
:03072E00016D0159
:040A8400D2947F0E7B
:020A88008F10CD
:100A8A00C2A07F647E00120C73D2A07F967E0012F1
:100A9A000C73E4F511E511C395105016D2A17F1419
:100AAA007E00120CC5C2A17F147E00120CC505116E
:020ABA0080E3D7
:010ABC002217
:100C9300C294C2A1C2A07F5E7E01120CC5D2A07F06
:090CA3005E7E01120CC5D2942200
:100A4100E56D24FE6025047039120A847F2D120C95
:100A5100DD7F12120A887F32120CDD7F0B120A88A9
:100A61007F46120CDDC294756D0222120A847F2822
:100A7100120CDD7F0C120A887F3C120CDDC29475CA
:030A81006D0122E2
:0F0D3B00D2947F06120A887F50120CDDC29422D8
:10000E00D2947F02120A887F5A120CDDC2947F1E90
:03001E00020CDDF4
:0F0D4A00D2947F1B120A887F8C120CDDC2942278
:0F0D5900D2947F03120A887FB4120CDDC2942259
:100CF400D2947F16120A887FB4120CDDC2947F143A
:030D0400020CDD01
:0F0D6800D2947F17120A887F3C120CDDC29422AE
:100CAC00D2947F18120A887F3C120CDD7F0D120A39
:090CBC00887F46120CDDC294226F
:0F0D7700D2947F13120A887F50120CDDC294228F
:0F0D8600D2947F14120A887F78120CDDC2942257
:0F0D9500D2947F13120A887F96120CDDC294222B
:0F0DA400D2947F09120A887F78120CDDC2942244
:0B0E5400120A847F78120CDDC2942289
:0F0DB300D2947F04120A887F96120CDDC294221C
:0F0DC200D2947F03120A887F8C120CDDC2942218
:0F0DD100D2947F02120A887F78120CDDC294221E
:0F0DE000D2947F07120A887F50120CDDC2942232
:0F0DEF00D2947F0B120A887F32120CDDC294223D
:0F0DFE00D2947F0F120A887F32120CDDC294222A
:0F0E0D00D2947F0C120A887F50120CDDC29422FF
:0F0E1C00D2947F0D120A887F50120CDDC29422EF
:03000000020732C2
:0C073200787FE4F6D8FD75816D02077930
:10031800BB010689828A83E0225002E722BBFE02E3
:09032800E32289828A83E4932216
:10033100E88FF0A4CC8BF0A42CFCE98EF0A42CFC6B
:100341008AF0EDA42CFCEA8EF0A4CDA8F08BF0A4E9
:100351002DCC3825F0FDE98FF0A42CCD35F0FCEB48
:100361008EF0A4FEA9F0EB8FF0A4CFC5F02ECD390D
:0F037100FEE43CFCEAA42DCE35F0FDE43CFC227A
:1003800075F008758200EF2FFFEE33FECD33CDCC34
:1003900033CCC58233C5829BED9AEC99E5829840B7
:1003A0000CF582EE9BFEED9AFDEC99FC0FD5F0D694
:1003B000E4CEFBE4CDFAE4CCF9A88222B800C1B9BE
:1003C0000059BA002DEC8BF084CFCECDFCE5F0CBFC
:1003D000F97818EF2FFFEE33FEED33FDEC33FCEB35
:1003E00033FB10D703994004EB99FB0FD8E5E4F9F0
:1003F000FA227818EF2FFFEE33FEED33FDEC33FCDD
:10040000C933C910D7059BE99A4007EC9BFCE99AD0
:10041000F90FD8E0E4C9FAE4CCFB2275F010EF2F15
:10042000FFEE33FEED33FDCC33CCC833C810D70715
:100430009BEC9AE899400AED9BFDEC9AFCE899F850
:0E0440000FD5F0DAE4CDFBE4CCFAE4C8F922E3
:10044E00EC8EF0A4CCC5F0CCCDF8EFA4CEC5F02D3B
:10045E00FDE43CFCE8A42EC8C5F03DFDE43CFCEFF9
:0D046E00A4FFE5F028FEE43DFDE43CFC2287
:10073E0002047BE493A3F8E493A34003F68001F252
:10074E0008DFF48029E493A3F85407240CC8C333BC
:10075E00C4540F4420C8834004F456800146F6DF8B
:10076E00E4800B010204081020408090068DE47E88
:10077E00019360BCA3FF543F30E509541FFEE49380
:10078E00A360010ECF54C025E060A840B8E493A347
:10079E00FAE493A3F8E493A3C8C582C8CAC583CA72
:1007AE00F0A3C8C582C8CAC583CADFE9DEE780BE2A
:0107310000C7
:00000001FF
