:10079900E4FAEF6405703343F620C2F8C2F9D2FADD
:1007A90043E180C2FCD2FBADF8EDC413135403FD41
:1007B900AFE2AB07EB7E007802C333CE33CED8F974
:1007C9007C002DFBEC3EAF03FE22EF640670344340
:1007D900F640D2F8C2F9D2FA43E180C2FCD2FBADAD
:1007E900F8EDC413135403FDAFE27A00AB07EB7EB7
:1007F900007802C333CE33CED8F97C002DFBEC3E12
:03080900FEAF033C
:01080C0022C9
:100511008E088F09C3E5099401E5089403400CD2C4
:10052100947F1C120ABE7F3C0205AEC3E50994010B
:10053100E50894035016C3E50994F4E508940240D4
:100541000BD2947F0A120ABE7F648061C3E50994CD
:10055100F4E50894025016C3E50994E5E508940210
:10056100400BD2947F09120ABE7F648040C3E50923
:1005710094E5E50894025016C3E50994D5E508947D
:1005810002400BD2947F08120ABE7F64801FC3E52C
:100591000994D5E5089402501AC3E50994C8E50801
:1005A1009402400FD2947F07120ABE7F64120D3A63
:1005B100C29422C3E50994C8E50894025003120DC0
:0205C10098227E
:0C05C3000753000000000000000152FF80
:100A2F007568AAE4F567E4F566E568C2907D157C04
:100A3F00007F17120BEAD290E56825E0F5687D1567
:100A4F007C007F2B120BEA0566E566C3940840D93C
:100A5F007568AA7D157C007F17120BEA0567E5679D
:070A6F00C3940340C1D290C3
:010A7600225D
:020991008F696C
:10099300E4F56AE4F56B7453256AF8E630E70BC2B5
:1009A30090E569FD7C007F248009C290E569FD7CA8
:1009B300007F17120BEAD2907453256AF8C000E641
:1009C30025E0D000F6E569FD7C007F0F120BEA05F8
:1009D3006BE56BC3940840BE056AE56AC3940340A4
:0109E300B261
:0109E40022F0
:100C87008F6C8C6D8D6ED2937F14120D3AC2A7753F
:100C970053C87554E0856C55120A2FAF6E1209912F
:050CA700D2A7C2932258
:100C12008F6F8C708D71D2937F14120D3AC2A775AB
:100C220053C87554E0856F55120A2FAF711209919E
:070C3200C2A7C293C2902289
:100B9400D2937F14120D3AC2A7E4F553F554F555D8
:100BA4007556137557EC855258120A2F7B007A003C
:0C0BB40079537D06120CACD2A7C293222C
:10087F0020910D0550E550B47803E4F550C20022E5
:10088F00200038D200E550D394234012E550D39482
:10089F0050500BE52725E0F5275327FE8010E55034
:1008AF00D394504010E52725E0F52743270105385D
:1008BF00E4F54F8002054FE4F55022054FE54FC395
:0C08CF00943C4007E4F538D200F53022DC
:100B2B00E53864087030F53874292530F8A627E5C8
:100B3B00307009E529B4C80475300122E530B401E1
:100B4B0009E52AB4E00475300222E530B40204D280
:070B5B00068000E4F53022E2
:0408DB008C5A8D5B4B
:1008DF007553C87554E08F55E4F55CE4F55D7453BA
:1008EF00255CF8E630E70AC2A2AD5BAC5A7F2480E4
:1008FF0008C2A2AD5BAC5A7F17120BEAD2A2745397
:10090F00255CF8C000E625E0D000F6AD5BAC5A7F61
:10091F000F120BEA055DE55DC3940840C1055CE568
:06092F005CC3940340B517
:01093500229F
:040936008C0C8D0D8B
:10093A007553C87554E08F55E4F50EE4F50F7453FA
:10094A00250EF8E630E70AC281AD0DAC0C7F248093
:10095A0008C281AD0DAC0C7F17120BEAD281745319
:10096A00250EF8C000E625E0D000F6AD0DAC0C7FF0
:10097A000F120BEA050FE50FC3940840C1050EE5F7
:06098A000EC3940340B50A
:010990002244
:100D3A00AE071FEE60107C137D88ED1DAA047001BA
:060D4A001C4A60EC80F47D
:010D50002280
:100BEA00E4FBFAEFF582C3EB9582EA94005018E42D
:100BFA00FEEEC39DEC6480F874809850030E80F179
:070C0A000BBB00010A80DCB6
:010C110022C0
:100CD000E4FDFCC3ED9FEC9E5015E4FBFA0BBB005A
:0F0CE000010AEB64644A70F50DBD00010C80E45D
:010CEF0022E2
:100D2200E4FDFCC3ED9FEC9E500DE4FB0BBB04FC09
:070D32000DBD00010C80EC77
:010D39002297
:100B6200E4F9E4FAFBC3EB9FEA9E50070BBB0001DA
:100B72000A80F209B932EBE4F9209215E4FAFBC3D8
:100B8200EB9DEA9C50070BBB00010A80F209B932C7
:010B9200E87A
:010B9300223F
:0205CF00C11257
:0D0EB200120D09D212E4F5467F14020D3A2C
:100D8800120DC5AF34AE33120511120A77020AF3F9
:100C39008E5E8F5F8C608D61EBFD7C007FC1120839
:100C4900DBC2A2D2A3AD61AC60AF5FAE5E120B6234
:070C5900D2A2D2A3C2852242
:100C60008E088F098C0A8D0BEBFD7C007FC1120969
:100C700036D2A2C2A3AD0BAC0AAF09AE08120B620A
:070C8000C2A2C2A3C285223B
:0E0E8800D285D2A2C2A3120B62D2A2D2A322A2
:0E0E9600D285C2A2D2A3120B62C2A2C2A322B4
:100AF300C210C205C209C211E4F523F53BF531F575
:100B030035F536F539F53AF549F54AF537F543C282
:100B130004C20AF547C20CF548C201F532C208C245
:080B230012F546C20FF5242271
:0E0EA400D210D205E4F523F53BC212F546222A
:0A0ECA00C2A47F05120D3AD2A42243
:100D640075DCC0751E00751F1DE51EF5D1E51FF568
:020D7400D92282
:1009E500EF1460191460251460312403703B751EE3
:1009F50000751F0DE51EF5D2E51FF5DA22751E01FE
:100A0500751F00E51EF5D3E51FF5DB22751E007584
:100A15001F80E51EF5D5E51FF5DD22751E00751F46
:0A0A250040E51EF5D6E51FF5DE22C0
:08000300E4FF1209E5020D649F
:04080D008C148D15A5
:100811007E007C2B7D33120429E47B0CFAF9F8125B
:1008210003978F198E188D178C16C3E49FFFE49ED2
:10083100F5628F64AE14AF15EE3395E0FDFCE47BF9
:100841000BFAF9F812030CE47B0CFAF9F81203978E
:100851008F1D8E1C8D1B8C1AC3E49FFFE49EF563D4
:100861008F6575891185628C85648A85638D85653F
:0D0871008BD2A9C28CD2ABD28ED2BBD2AF3B
:01087E002257
:100BC0007E007C2B7D33120429E47B0CFAF9F812A9
:100BD00003978F138E128D118C10C3E49FFFE49E38
:090BE000F5628F64758921C28C55
:010BE90022E9
:040EDC004387012225
:100D760053A2BF75985A758920758BFD758DFDD266
:020D86008E22BB
:080ED4008F993099FDC29922AB
:100CAC008B728A738974AF051DEF6017AB72057474
:100CBC00E574AA737002057314F91202F3FF120E95
:040CCC00D480E322CB
:0305D100017501B0
:040ABA00D2947F0E45
:020ABE008F1097
:100AC000C2A07F647E00120CD0D2A07F967E00125E
:100AD0000CD0E4F511E511C395105016D2A17F1486
:100AE0007E00120D22C2A17F147E00120D2205117C
:020AF00080E3A1
:010AF20022E1
:100CF000C294C2A1C2A07F5E7E01120D22D2A07F4B
:090D00005E7E01120D22D2942244
:100A7700E57524FE6025047039120ABA7F2D120D20
:100A87003A7F12120ABE7F32120D3A7F0B120ABE4C
:100A97007F46120D3AC29475750222120ABA7F2850
:100AA700120D3A7F0C120ABE7F3C120D3AC29475A2
:030AB700750122A4
:0F0D9800D2947F06120ABE7F50120D3AC29422E7
:10000E00D2947F02120ABE7F5A120D3AC2947F1EFC
:03001E00020D3A96
:0F0DA700D2947F1B120ABE7F8C120D3AC2942287
:0F0DB600D2947F03120ABE7FB4120D3AC2942268
:100D5100D2947F16120ABE7FB4120D3AC2947F1448
:030D6100020D3A46
:0F0DC500D2947F17120ABE7F3C120D3AC29422BD
:100D0900D2947F18120ABE7F3C120D3A7F0D120A47
:090D1900BE7F46120D3AC294227D
:0F0DD400D2947F13120ABE7F50120D3AC294229E
:0F0DE300D2947F14120ABE7F78120D3AC2942266
:0F0DF200D2947F13120ABE7F96120D3AC294223A
:0F0E0100D2947F09120ABE7F78120D3AC2942252
:0B0EBF00120ABA7F78120D3AC294228A
:0F0E1000D2947F04120ABE7F96120D3AC294222A
:0F0E1F00D2947F03120ABE7F8C120D3AC2942226
:0F0E2E00D2947F02120ABE7F78120D3AC294222C
:0F0E3D00D2947F07120ABE7F50120D3AC2942240
:0F0E4C00D2947F0B120ABE7F32120D3AC294224B
:0F0E5B00D2947F0F120ABE7F32120D3AC2942238
:0F0E6A00D2947F0C120ABE7F50120D3AC294220E
:0F0E7900D2947F0D120ABE7F50120D3AC29422FE
:1005D400C104C110C10AC10C014700014800C1098E
:1005E400C11101310002390000014300013700024A
:1005F400490000C10101230002350000013B000154
:1006040045000151000128000241000007290000B3
:100614000000000000C1060130000127000138007D
:10062400C180014F00015000013D00013C00024D1A
:100634000000C103013E0102330000013200C10F7A
:10064400012400C10202250000C10B023F0000C1C9
:1006540008C10D014400C105014600C107C10E02D5
:030664004B000048
:10045600120CF0120D767F01120BC0C299C298D20F
:10046600ACD2A9D2BCD2AFC205C210D284D283D23A
:1004760090D287D2A7C293754506C2A2C2A3D2A6BE
:10048600C294D285D28C3080032087127F02120D4F
:100496003A308003208707D20BE4F53FF540300A57
:1004A60021E547C39404501AD20420A503120DB6C1
:1004B6000547E547C394044009E4F547C20AC20468
:1004C600C207300C21E548C39404501AD20420A573
:1004D60003120D510548E548C394044009E4F54864
:1004E600C20CC204C207C3E5349496E533940050A7
:1004F6000720A504D20F808ED3E5349400E533940B
:0B050600014083C20FE4F52402048CC6
:03000B00020026CA
:10002600C0E0C0F0C083C082C0D075D000C000C0A0
:1000360001C002C003C004C005C006C00785628CAB
:1000460085648A0542E54270020541C394D0E541C4
:100056009407404175410075420030A5097F06129C
:1000660007998E338F34300D150544E544C3940F3C
:10007600400C754400C20DE53E7003120EA430120A
:100086001420A5110546E546C3940F4008754600A1
:10009600C212120EA430A527E53E7023300D207F34
:1000A60005120D3A30A5187B2A7DC47C097FB07EE7
:1000B60004120C60120D88753E01754400C20D20B5
:1000C600A52CE53E64017026200B23200E207F051B
:1000D600120D3A20A518AF34AE33120511753E0045
:1000E6007D087C077FA47E06120E96120EB2308023
:1000F60003208708D20B753F00754000300B1905A9
:1001060040E5407002053FC394D0E53F94074008A0
:10011600C20B753F00754000308208D20E754B0049
:10012600754C00300E19054CE54C7002054BC39416
:10013600D0E54B94074008C20E754B00754C002065
:10014600840302021B20830302021B200503020212
:100156001BE52314603114606D2402600302021B48
:1001660030800320871B200418053BE53BC394021F
:10017600500302021B753B0075230112000E02029A
:100186001B753B0002021B3080032087140531E5F6
:1001960031C39402400E753100752302120DA780FB
:1001A600037531000536E53670020535C394A0E5C2
:1001B60035940F4060752300753100753B00753529
:1001C60000753600804F3080032087140537E537E9
:1001D600C39401400E753700D20AD20CD2078003B1
:1001E600753700053AE53A70020539C394A0E5393A
:1001F600940F4021752300753B007531007535005D
:10020600753600753900753A00754903754A2075CB
:10021600370075430030103E208412053CE53CB49F
:100226000A15D211C20920030ED201800AC2117525
:100236005100753C00C201208312053DE53DB40A1C
:1002460015D209C21120030ED201800AC2097528EF
:1002560000753D00C20130013C054EE54E700205B9
:100266004DC394A0E54D940F402BC201754D00750A
:100276004E00D203752300753B00753100753500BD
:10028600753600753900753A00754903754A20754B
:10029600370075430030870320801ED3E5269488F7
:1002A600E525941340137F03120D3A30870320800F
:1002B60008D2027525007526000526E5267002057A
:1002C60025C39488E525941340087525137526895A
:1002D600C202D007D006D005D004D003D002D00188
:0D02E600D000D0D0D082D083D0F0D0E03254
:030023000206686A
:10066800C0E0C0F0C083C082C0D075D000C000C058
:1006780001C002C003C004C005C006C00730986AA4
:10068800C29874292530F8A699E5307009E52970D3
:10069800057530018054E530B40109E52A70057507
:1006A80030028046E530B40209E52B700575300349
:1006B8008038E530B4030AE52CB41305753004809E
:1006C80029E530B4040AE52DB4EC05753005801A27
:1006D800E530B40512E52EB5520D753000D20D7512
:1006E8004400120AF38003753000D007D006D00505
:1006F800D004D003D002D001D000D0D0D082D08393
:05070800D0F0D0E0324A
:0300000002070DE7
:0C070D00787FE4F6D8FD75817502075472
:1002F300BB010689828A83E0225002E722BBFE0209
:09030300E32289828A83E493223B
:10030C00E88FF0A4CC8BF0A42CFCE98EF0A42CFC90
:10031C008AF0EDA42CFCEA8EF0A4CDA8F08BF0A40E
:10032C002DCC3825F0FDE98FF0A42CCD35F0FCEB6D
:10033C008EF0A4FEA9F0EB8FF0A4CFC5F02ECD3932
:0F034C00FEE43CFCEAA42DCE35F0FDE43CFC229F
:10035B0075F008758200EF2FFFEE33FECD33CDCC59
:10036B0033CCC58233C5829BED9AEC99E5829840DC
:10037B000CF582EE9BFEED9AFDEC99FC0FD5F0D6B9
:10038B00E4CEFBE4CDFAE4CCF9A88222B800C1B9E3
:10039B000059BA002DEC8BF084CFCECDFCE5F0CB21
:1003AB00F97818EF2FFFEE33FEED33FDEC33FCEB5A
:1003BB0033FB10D703994004EB99FB0FD8E5E4F915
:1003CB00FA227818EF2FFFEE33FEED33FDEC33FC02
:1003DB00C933C910D7059BE99A4007EC9BFCE99AF6
:1003EB00F90FD8E0E4C9FAE4CCFB2275F010EF2F3B
:1003FB00FFEE33FEED33FDCC33CCC833C810D7073B
:10040B009BEC9AE899400AED9BFDEC9AFCE899F875
:0E041B000FD5F0DAE4CDFBE4CCFAE4C8F92208
:10042900EC8EF0A4CCC5F0CCCDF8EFA4CEC5F02D60
:10043900FDE43CFCE8A42EC8C5F03DFDE43CFCEF1E
:0D044900A4FFE5F028FEE43DFDE43CFC22AC
:10071900020456E493A3F8E493A34003F68001F29C
:1007290008DFF48029E493A3F85407240CC8C333E1
:10073900C4540F4420C8834004F456800146F6DFB0
:10074900E4800B01020408102040809005C3E47E78
:10075900019360BCA3FF543F30E509541FFEE493A5
:10076900A360010ECF54C025E060A840B8E493A36C
:10077900FAE493A3F8E493A3C8C582C8CAC583CA97
:10078900F0A3C8C582C8CAC583CADFE9DEE780BE4F
:010667000092
:00000001FF
