:10023B00C104C111C10BC10D014700014800C10927
:10024B00C1120131000239000001430001370002E5
:10025B00490000C10101230002350000013B0001F0
:10026B004500015100012800024100000729000050
:10027B000000000000C1060130000127000138001A
:10028B00C180014F00015000013D00013C00024DB7
:10029B000000C103013E0002330000013200C11017
:1002AB00012400C10202250000C10C023F0000C165
:1002BB0008C10E014400C105014600C107C10F0270
:0502CB004B0000C10A18
:1008AC007533037534FFC2A2C2A3D281120AA97F89
:1008BC0001120905C299C298D2ACD2A9D2BCD2AF4E
:0D08CC00D290D281D20AD28C120C2180FB76
:03000B0002038766
:10038700C0E0C0F0C083C082C0D075D000C000C03C
:1003970001C002C003C004C005C006C00785628C47
:1003A70085648A0542E54270020541C394B8E54178
:1003B700940B404F754100754200300A467B2A7DF9
:1003C700087C077F887E131209577F28120A7F7DD2
:1003D7001C7C007FC31209CC7F061204B18E338FB9
:1003E700347D1C7C007FC31209CC7D087C077F8885
:1003F7007E13120BCD7F28120A7F7D1C7C007FC3E2
:100407001209CCD007D006D005D004D003D002D033
:0E04170001D000D0D0D082D083D0F0D0E0321F
:030023000202E2F4
:1002E200C0E0C0F0C083C082C0D075D000C000C0E2
:1002F20001C002C003C004C005C006C00730986A2E
:10030200C29874292530F8A699E5307009E529705C
:10031200057530018054E530B40109E52A70057590
:1003220030028046E530B40209E52B7005753003D2
:100332008038E530B4030AE52CB413057530048027
:1003420029E530B4040AE52DB4EC05753005801AB0
:10035200E530B40512E52EB5520D753000D20E759A
:10036200440012080B8003753000D007D006D00578
:10037200D004D003D002D001D000D0D0D082D0831C
:05038200D0F0D0E032D4
:0302D000017001B9
:0407D200D2947F0E30
:0207D6008F1E74
:1007D800C2A07F647E00120A15D2A07F967E001206
:1007E8000A15E4F51FE51FC3951E5016D2A17F1404
:1007F8007E00120A67C2A17F147E00120A67051FD5
:0208080080E38B
:01080A0022CB
:100A3500C294C2A1C2A07F5E7E01120A67D2A07FC6
:090A45005E7E01120A67D29422C0
:10078F00E57024FE60250470391207D27F2D120AFE
:10079F007F7F121207D67F32120A7F7F0B1207D686
:1007AF007F46120A7FC294757002221207D27F28E9
:1007BF00120A7F7F0C1207D67F3C120A7FC29475F4
:0307CF0070012294
:0F0ADD00D2947F061207D67F50120A7FC294224E
:10000E00D2947F021207D67F5A120A7FC2947F1EA5
:03001E00020A7F54
:0F0AEC00D2947F1B1207D67F8C120A7FC29422EE
:0F0AFB00D2947F031207D67FB4120A7FC29422CF
:100A9600D2947F161207D67FB4120A7FC2947F14AF
:030AA600020A7FC2
:0F0B0A00D2947F171207D67F3C120A7FC2942223
:100A4E00D2947F181207D67F3C120A7F7F0D1207B1
:090A5E00D67F46120A7FC29422E1
:0F0B1900D2947F131207D67F50120A7FC2942204
:0F0B2800D2947F141207D67F78120A7FC29422CC
:0F0B3700D2947F131207D67F96120A7FC29422A0
:0F0B4600D2947F091207D67F78120A7FC29422B9
:0B0C04001207D27F78120A7FC29422F0
:0F0B5500D2947F041207D67F96120A7FC2942291
:0F0B6400D2947F031207D67F8C120A7FC294228D
:0F0B7300D2947F021207D67F78120A7FC2942293
:0F0B8200D2947F071207D67F50120A7FC29422A7
:0F0B9100D2947F0B1207D67F32120A7FC29422B2
:0F0BA000D2947F0F1207D67F32120A7FC294229F
:0F0BAF00D2947F0C1207D67F50120A7FC2942275
:0F0BBE00D2947F0D1207D67F50120A7FC2942265
:100AA90053A2BF75985A758920758BFD758DFDD236
:020AB9008E228B
:080003008F993099FDC299228A
:1009F1008B668A678968AF051DEF6017AB6605686E
:100A0100E568AA677002056714F9120026FF120053
:040A11000380E32259
:100ABB0075DCC0756C00756D1DE56CF5D1E56DF5DC
:020ACB00D9222E
:1006FD00EF1460191460251460312403703B756C80
:10070D0000756D0DE56CF5D2E56DF5DA22756C01B0
:10071D00756D00E56CF5D3E56DF5DB22756C007537
:10072D006D80E56CF5D5E56DF5DD22756C00756DAB
:0A073D0040E56CF5D6E56DF5DE220F
:080C1900E4FF1206FD020ABB14
:100957008E088F098C0A8D0BEBFD7C007FC1120579
:10096700F3C2A2D2A3AD0BAC0AAF09AE0812087A44
:07097700D2A2D2A3C2852227
:10097E008E5A8F5B8C5C8D5DEBFD7C007FC1120609
:10098E004ED2A2C2A3AD5DAC5CAF5BAE5A12087A7A
:07099E00C2A2C2A3C2852220
:0E0BCD00D285D2A2C2A312087AD2A2D2A3224B
:0E0BDB00D285C2A2D2A312087AC2A2C2A3225D
:10080B00C211C205C209C212E4F523F53BF531F55D
:10081B0035F536F539F53AF549F54AF537F543C26D
:10082B0004C20BF547C20DF548C201F532C208C22E
:08083B0013F546C210F524225A
:0E0BE900D211D205E4F523F53BC213F54622E6
:0A0C0F00C2A47F05120A7FD2A422BE
:100A7F00AE071FEE60107C137D88ED1DAA04700178
:060A8F001C4A60EC80F43B
:010A9500223E
:10092F00E4FBFAEFF582C3EB9582EA94005018E4EA
:10093F00FEEEC39DEC6480F874809850030E80F136
:07094F000BBB00010A80DC74
:01095600227E
:100A1500E4FDFCC3ED9FEC9E5015E4FBFA0BBB0017
:0F0A2500010AEB64644A70F50DBD00010C80E41A
:010A3400229F
:100A6700E4FDFCC3ED9FEC9E500DE4FB0BBB04FCC7
:070A77000DBD00010C80EC35
:010A7E002255
:10087A00E4F9E4FAFBC3EB9FEA9E50070BBB0001C5
:10088A000A80F209B932EBE4F9209215E4FAFBC3C3
:10089A00EB9DEA9C50070BBB00010A80F209B932B2
:0108AA00E865
:0108AB00222A
:0202D300C11355
:0D0BF700120A4ED213E4F5467F14020A7F65
:100ACD00120B0AAF34AE3312018912078F02080BD5
:0C02D5000753000000000000000152FF71
:10074700750DAAE4F50CE4F50BE50DC2907D157C5B
:10075700007F1712092FD290E50D25E0F50D7D15C5
:100767007C007F2B12092F050BE50BC3940840D99A
:10077700750DAA7D157C007F1712092F050CE50C56
:07078700C3940340C1D290AE
:01078E002248
:0206A9008F0BB5
:1006AB00E4F50CE4F50D7453250CF8E630E70BC2BA
:1006BB0090E50BFD7C007F248009C290E50BFD7C4F
:1006CB00007F1712092FD2907453250CF8C000E647
:1006DB0025E0D000F6E50BFD7C007F0F12092F05FE
:1006EB000DE50DC3940840BE050CE50CC394034007
:0106FB00B24C
:0106FC0022DB
:1009CC008F088C098D0AD2937F14120A7FC2A775E7
:1009DC0053C87554E0850855120747AF0A1206A98B
:0509EC00D2A7C2932216
:1009A5008F698C6A8D6BD2937F14120A7FC2A775EB
:1009B50053C87554E0856955120747AF6B1206A9F0
:0709C500C2A7C293C29022F9
:1008D900D2937F14120A7FC2A7E4F553F554F55554
:1008E9007556137557EC8552581207477B007A00E5
:0C08F90079537D061209F1D2A7C29322A8
:1005970020910D0550E550B47803E4F550C20022D0
:1005A700200038D200E550D394234012E550D3946D
:1005B70050500BE52725E0F5275327FE8010E5501F
:1005C700D394504010E52725E0F527432701053848
:1005D700E4F54F8002054FE4F55022054FE54FC380
:0C05E700943C4007E4F538D200F53022C7
:10084300E53864087030F53874292530F8A627E5B3
:10085300307009E529B4C80475300122E530B401CC
:1008630009E52AB4E00475300222E530B40204D26B
:07087300068000E4F53022CD
:0405F3008C0C8D0DD2
:1005F7007553C87554E08F55E4F50EE4F50F745341
:10060700250EF8E630E70AC2A2AD0DAC0C7F2480B8
:1006170008C2A2AD0DAC0C7F1712092FD2A27453DA
:10062700250EF8C000E625E0D000F6AD0DAC0C7F36
:100637000F12092F050FE50FC3940840C1050EE5FA
:060647000EC3940340B550
:01064D00228A
:04064E008C5E8D5FD2
:100652007553C87554E08F55E4F560E4F561745341
:100662002560F8E630E70AC281AD5FAC5E7F248088
:1006720008C281AD5FAC5E7F1712092FD28174531D
:100682002560F8C000E625E0D000F6AD5FAC5E7FE5
:100692000F12092F0561E561C3940840C10560E5A9
:0606A20060C3940340B5A3
:0106A800222F
:100189008E6E8F6FC3E56F9401E56E9403400CD2B8
:10019900947F1C1207D67F3C020226C3E56F9401A7
:1001A900E56E94035016C3E56F94F4E56E9402402E
:1001B9000BD2947F0A1207D67F648061C3E56F94DE
:1001C900F4E56E94025016C3E56F94E5E56E94026A
:1001D900400BD2947F091207D67F648040C3E56F34
:1001E90094E5E56E94025016C3E56F94D5E56E94D7
:1001F90002400BD2947F081207D67F64801FC3E5A3
:100209006F94D5E56E9402501AC3E56F94C8E56EF4
:100219009402400FD2947F071207D67F64120A7F97
:10022900C29422C3E56F94C8E56E94025003120A82
:02023900DD22C4
:1004B100E4FAEF6405703343F620C2F8C2F9D2FAC8
:1004C10043E180C2FCD2FBADF8EDC413135403FD2C
:1004D100AFE2AB07EB7E007802C333CE33CED8F95F
:1004E1007C002DFBEC3EAF03FE22EF64067034432B
:1004F100F640D2F8C2F9D2FA43E180C2FCD2FBAD98
:10050100F8EDC413135403FDAFE27A00AB07EB7EA1
:10051100007802C333CE33CED8F97C002DFBEC3EFC
:03052100FEAF0327
:0105240022B4
:040525008C148D1590
:100529007E007C2B7D3312015CE47B0CFAF9F81216
:1005390000CA8F198E188D178C16C3E49FFFE49E8D
:10054900F5628F64AE14AF15EE3395E0FDFCE47BE4
:100559000BFAF9F812003FE47B0CFAF9F81200CA19
:100569008F1D8E1C8D1B8C1AC3E49FFFE49EF563BF
:100579008F6575891185628C85648A85638D85652A
:0D0589008BD2A9C28CD2ABD28ED2BBD2AF26
:010596002242
:100905007E007C2B7D3312015CE47B0CFAF9F81236
:1009150000CA8F138E128D118C10C3E49FFFE49EC5
:09092500F5628F64758921C28C12
:01092E0022A6
:040C210043870122E2
:03000000020425D2
:0C042500787FE4F6D8FD75817002046C4D
:10002600BB010689828A83E0225002E722BBFE02D8
:09003600E32289828A83E493220B
:10003F00E88FF0A4CC8BF0A42CFCE98EF0A42CFC60
:10004F008AF0EDA42CFCEA8EF0A4CDA8F08BF0A4DE
:10005F002DCC3825F0FDE98FF0A42CCD35F0FCEB3D
:10006F008EF0A4FEA9F0EB8FF0A4CFC5F02ECD3902
:0F007F00FEE43CFCEAA42DCE35F0FDE43CFC226F
:10008E0075F008758200EF2FFFEE33FECD33CDCC29
:10009E0033CCC58233C5829BED9AEC99E5829840AC
:1000AE000CF582EE9BFEED9AFDEC99FC0FD5F0D689
:1000BE00E4CEFBE4CDFAE4CCF9A88222B800C1B9B3
:1000CE000059BA002DEC8BF084CFCECDFCE5F0CBF1
:1000DE00F97818EF2FFFEE33FEED33FDEC33FCEB2A
:1000EE0033FB10D703994004EB99FB0FD8E5E4F9E5
:1000FE00FA227818EF2FFFEE33FEED33FDEC33FCD2
:10010E00C933C910D7059BE99A4007EC9BFCE99AC5
:10011E00F90FD8E0E4C9FAE4CCFB2275F010EF2F0A
:10012E00FFEE33FEED33FDCC33CCC833C810D7070A
:10013E009BEC9AE899400AED9BFDEC9AFCE899F845
:0E014E000FD5F0DAE4CDFBE4CCFAE4C8F922D8
:10015C00EC8EF0A4CCC5F0CCCDF8EFA4CEC5F02D30
:10016C00FDE43CFCE8A42EC8C5F03DFDE43CFCEFEE
:0D017C00A4FFE5F028FEE43DFDE43CFC227C
:100431000208ACE493A3F8E493A34003F68001F22D
:1004410008DFF48029E493A3F85407240CC8C333CC
:10045100C4540F4420C8834004F456800146F6DF9B
:10046100E4800B010204081020408090023BE47EEE
:10047100019360BCA3FF543F30E509541FFEE49390
:10048100A360010ECF54C025E060A840B8E493A357
:10049100FAE493A3F8E493A3C8C582C8CAC583CA82
:1004A100F0A3C8C582C8CAC583CADFE9DEE780BE3A
:0102E100001C
:00000001FF
