:10033C00C104C111C10BC10D014800014900C10923
:10034C00C112013200023A000001440001380002DF
:10035C004A0000C10101230002360000013C0001EB
:10036C00460001520001290002420000072A000049
:10037C000000000000C10601310001280001390015
:10038C00C180015000015100013E00013D00024EB0
:10039C000000C103013F0002340000013300C11012
:1003AC00012400C10202260000C10C02400000C161
:1003BC00080125FFC10E014500C105014700C10719
:0803CC00C10F024C0000C10A40
:100BFF007534037535FFD2A2D2A3D281120D607F57
:100C0F0001120BD5C299C298D2ACD2A9D2BCD2AF25
:090C1F00D290D20A120ED180FB22
:03000B0002018966
:10018900C0E0C0F0C083C082C0D075D000C000C03C
:1001990001C002C003C004C005C006C007851B8C8E
:1001A900851D8A0543E54370020542C394D0E542A3
:1001B90094074029754200754300300A20120659F8
:1001C9007F061205148E348F357F287E00120C8924
:1001D9001206597F287E00120C8912065930A51B78
:1001E900E53F7017300E147F05FE120C8930A50B00
:1001F900120DA6753F01754500C20E20A51BE53FEE
:10020900B40116200C13200F107F057E00120C89F3
:1002190020A506753F00120C6C308208D20F754C70
:1002290000754D00300F19054DE54D7002054CC3A1
:1002390094D0E54C94074008C20F754C00754D00E9
:1002490030800320870F053CE53CC39402400675C6
:100259003C00120D05208103120DB7308403208361
:1002690003120D33D007D006D005D004D003D00235
:0F027900D001D000D0D0D082D083D0F0D0E032EE
:030023000203E3F2
:1003E300C0E0C0F0C083C082C0D075D000C000C0E0
:1003F30001C002C003C004C005C006C00730986A2C
:10040300C298742A2531F8A699E5317009E52A7056
:10041300057531018054E531B40109E52B7005758B
:1004230031028046E531B40209E52C7005753103CC
:100433008038E531B4030AE52DB413057531048022
:1004430029E531B4040AE52EB4EC05753105801AAB
:10045300E531B40512E52FB5250D753100D20E75C2
:100463004500120B498003753100D007D006D00533
:10047300D004D003D002D001D000D0D0D082D0831A
:05048300D0F0D0E032D2
:0303D400011F0105
:040AD900D2947F0E26
:020ADD008F1276
:100ADF00C2A07F647E00120C4CD2A07F967E0012C3
:100AEF000C4CE4F513E513C395125016D2A17F14E5
:100AFF007E00120CEDC2A17F147E00120CED0513C7
:020B0F0080E381
:010B110022C1
:100CA400C294C2A1C2A07F5E7E01120CEDD2A07FCD
:090CB4005E7E01120CEDD29422C7
:10092500E51F24FE602B047043120AD97F3C7E002C
:10093500120C897F12120ADD7F327E00120C897F2C
:100945000B120ADD7F467E00120C89C294751F02C8
:1009550022120AD97F237E00120C897F0C120ADD30
:0D0965007F3C7E00120C89C294751F012298
:100D8400D2947F06120ADD7F507E00120C89C29431
:010D9400223C
:100D0500D2947F02120ADD7F5A7E00120C89C294AA
:070D15007F0A7E00020C8939
:100D1C00D2947F1B120ADD7F8C7E00120C89C29448
:070D2C007F1E7E00020C890E
:100D9500D2947F03120ADD7FB47E00120C89C294BF
:010DA500222B
:100D3300D2947F16120ADD7FB47E00120C89C2940E
:070D43007F147E00020C8901
:100DA600D2947F17120ADD7F3C7E00120C89C29412
:010DB600221A
:100C6C00D2947F18120ADD7F3C7E00120C897F0D16
:0D0C7C00120ADD7F507E00120C89C2942206
:100DB700D2947F13120ADD7F507E00120C89C294F1
:010DC7002209
:100DC800D2947F14120ADD7F787E00120C89C294B7
:010DD80022F8
:100DD900D2947F13120ADD7F967E00120C89C29489
:010DE90022E7
:100DEA00D2947F09120ADD7F787E00120C89C294A0
:010DFA0022D6
:0D0EB000120AD97F787E00120C89C29422AC
:100DFB00D2947F04120ADD7F967E00120C89C29476
:010E0B0022C4
:100E0C00D2947F03120ADD7F8C7E00120C89C2946F
:010E1C0022B3
:100E1D00D2947F02120ADD7F787E00120C89C29473
:010E2D0022A2
:100E2E00D2947F07120ADD7F507E00120C89C29485
:010E3E002291
:100E3F00D2947F0B120ADD7F327E00120C89C2948E
:010E4F002280
:100E5000D2947F0F120ADD7F327E00120C89C29479
:010E6000226F
:100D600053A2BF75985A758920758BFD758DFDD27C
:020D70008E22D1
:080003008F993099FDC299228A
:100C28008B5A8A5B895CAF051DEF6017AB5A055C70
:100C3800E55CAA5B7002055B14F9120026FF12003E
:040C48000380E32220
:100D720075DCC075630075641DE563F5D1E564F546
:020D8200D92274
:100A0B00EF1460191460251460312403703B756377
:100A1B000075640DE563F5D2E564F5DA22756301C3
:100A2B00756400E563F5D3E564F5DB22756300754A
:100A3B006480E563F5D5E564F5DD227563007564C7
:0A0A4B0040E563F5D6E564F5DE2210
:080EC900E4FF120A0B020D7296
:100E6100120885C2A2D2A3120B7DD2A2D2A3C2853F
:010E7100225E
:100E72001208D5D2A2C2A312000ED2A2D2A3C28558
:010E8200224D
:0E0E9400D285D2A2C2A3120BA9D2A2D2A3224F
:100B4900C211C205C209C212E4F523F53CF532F51A
:100B590036F537F53AF53BF54AF54BF538F544C224
:100B690004C20BF548C20DF549C201F533C208C2EA
:040B790010F524222D
:0E0EA200D211D205E4F523F53CC213F5472228
:0C0EBD00C2A47F0A7E00120C89D2A4227D
:100C8900EF1FAA0670011E4A60107C137D88ED1DB6
:0A0C9900AA0470011C4A60E880F410
:010CA300222E
:100CBD00E4FDFCC3ED9FEC9E500DE4FB0BBB15FC5E
:070CCD000DBD00010C80ECDD
:010CD40022FD
:100CD500E4FDFCC3ED9FEC9E500DE4FB0BBB2AFC31
:070CE5000DBD00010C80ECC5
:010CEC0022E5
:100C4C00E4FDFCC3ED9FEC9E5015E4FBFA0BBB00DE
:0F0C5C00010AEB64644A70F50DBD00010C80E4E1
:010C6B002266
:100CED00E4FDFCC3ED9FEC9E500DE4FB0BBB04FC3F
:070CFD000DBD00010C80ECAD
:010D040022CC
:100B7D00E4FDE4FEFF0FBF00010EBE0FF8BFA0F5B0
:100B8D000DBD32EEE4FD209212E4FEFF0FBF000119
:0B0B9D000EBE27F8BF10F50DBD32EBB7
:010BA800222A
:100BA900E4FDE4FEFF0FBF00010EBE13F8BF88F598
:100BB9000DBD32EEE4FD209212E4FEFF0FBF0001ED
:0B0BC9000EBE27F8BF10F50DBD32EB8B
:010BD40022FE
:10000E00E4FFE4FDFC0DBD00010CBC3EF8BD80F527
:04001E000FBF32EEF0
:0100220022BB
:0203D700C11350
:100E8300120E94120C6CD213E4F5477F14FE020C7D
:010E930089D5
:100D4A00120E61120DA6AF35AE34120288120925B1
:060D5A00E4F546020B491E
:0903D900075300000000000000C1
:100A55007516AAE4F515E4F514E516C2907F507EE7
:100A650000120CBDD290E51625E0F5167F967E00A6
:100A7500120CBD0514E514C3940840DD7516AA7F54
:100A8500507E00120CBD0515E515C3940340C7D271
:010A950090D0
:010A9600223D
:0B097200C2A77553C87554E07555C14D
:10097D00755FAAE4F55EE4F55DE55FC2907F507E9C
:10098D0000120CBDD290E55F25E0F55F7F967E00ED
:10099D00120CBD055DE55DC3940840DD755FAA7F52
:1009AD00507E00120CBD055EE55EC3940340C7D2B8
:0109BD0090A9
:0109BE002216
:100A97007562AAE4F561E4F560E562C2907F507E75
:100AA70000120CBDD290E56225E0F5627F967E00CC
:100AB700120CBD0560E560C3940840DD7562AA7F2E
:100AC700507E00120CBD0561E561C3940340C7D297
:010AD700908E
:010AD80022FB
:10083100D293D2A6120972E4F565E4F566745325E4
:1008410065F8E630E706C2907F788004C2907F5059
:100851007E00120CD5D29074532565F8C000E625B0
:10086100E0D000F67F327E00120CD50566E566C346
:10087100940840C90565E565C3940340BDD2A7C28C
:0308810093D2A669
:010884002251
:1009BF00120972E4F567E4F56874532567F8E630B9
:1009CF00E706C2907F788004C2907F507E00120CA1
:1009DF00D5D29074532567F8C000E625E0D000F615
:1009EF007F327E00120CD50568E568C3940840C9B4
:0B09FF000567E567C3940340BDC2A775
:010A0A0022C9
:1005FA00D293C2A6C2A77553C87554E07555C212E4
:10060A00097DE4F569E4F56A74532569F8E630E78B
:10061A0006C2907F788004C2907F507E00120CD56B
:10062A00D29074532569F8C000E625E0D000F67F21
:10063A00327E00120CD5056AE56AC3940840C905E2
:0E064A0069E569C3940340BDD2A7D2A6C2934E
:01065800227F
:10065900D293C2A6C2A77553C87554E07555C31283
:100669000A55E4F512E4F51374532512F8E630E758
:1006790006C2907F788004C2907F507E00120CD50C
:10068900D29074532512F8C000E625E0D000F67F19
:10069900327E00120CD50513E513C3940840C90531
:0E06A90012E512C3940340BDD2A7D2A6C2939D
:0106B7002220
:1006B800D293C2A6C2A77553C87554E07555C41223
:1006C8000A97E4F56BE4F56C7453256BF8E630E7AC
:1006D80006C2907F788004C2907F507E00120CD5AD
:1006E800D2907453256BF8C000E625E0D000F67F61
:1006F800327E00120CD5056CE56CC3940840C90520
:0E0708006BE56BC3940340BDD2A7D2A6C2938B
:0107160022C0
:10071700D293C2A6C2A77553C87554E07555C512C2
:100727000A97E4F56DE4F56E7453256DF8E630E746
:1007370006C2907F788004C2907F507E00120CD54D
:10074700D2907453256DF8C000E625E0D000F67FFF
:10075700327E00120CD5056EE56EC3940840C905BC
:0E0767006DE56DC3940340BDD2A7D2A6C29328
:010775002261
:10077600D293C2A6C2A77553C87554E07555C61262
:100786000A97E4F56FE4F5707453256FF8E630E7E1
:1007960006C2907F788004C2907F507E00120CD5EE
:1007A600D2907453256FF8C000E625E0D000F67F9E
:1007B600327E00120CD50570E570C3940840C90559
:0E07C6006FE56FC3940340BDD2A7D2A6C293C5
:0107D4002202
:1007D50020910D0551E551B47803E4F551C200228D
:1007E500200038D200E551D394234012E551D3942B
:1007F50050500BE52825E0F5285328FE8010E551DB
:10080500D394504010E52825E0F528432801053903
:10081500E4F55080020550E4F551220550E550C33A
:0C082500943C4007E4F539D200F5312284
:100B1200E53964087030F539742A2531F8A628E5DC
:100B2200317009E52AB4C80475310122E531B401F6
:100B320009E52BB4E00475310222E531B40204D296
:070B4200068000E4F53122FA
:100885007553C87554E07555C1E4F571E4F5727496
:10089500532571F8E630E706C2A27F788004C2A22C
:1008A5007F507E00120CD5D2A274532571F8C0007A
:1008B500E625E0D000F67F327E00120CD50572E504
:0F08C50072C3940840C90571E571C3940340BD27
:0108D4002201
:1008D5007553C87554E07555C1E4F573E4F5747442
:1008E500532573F8E630E706C2A37F788004C2A3D8
:1008F5007F507E00120CD5D2A374532573F8C00027
:10090500E625E0D000F67F327E00120CD50574E5B1
:0F09150074C3940840C90573E573C3940340BDD0
:0109240022B0
:100288008E758F76C3E5769404E5759403400CD299
:10029800947F1C120ADD7F3C020325C3E576940295
:1002A800E57594035016C3E57694F8E57594024015
:1002B8000BD2947F0A120ADD7F648061C3E57694CD
:1002C800F6E57594025016C3E57694E7E575940251
:1002D800400BD2947F09120ADD7F648040C3E57623
:1002E80094E5E57594025016C3E57694D5E57594C2
:1002F80002400BD2947F08120ADD7F64801FC3E599
:100308007694D3E5759402501CC3E57694C6E575DA
:1003180094024011D2947F07120ADD7F647E001296
:100328000C89C29422C3E57694C4E57594025003FF
:04033800120D8422FC
:10051400E4FAEF6405703343F620C2F8C2F9D2FA64
:1005240043E180C2FCD2FBADF8EDC413135403FDC8
:10053400AFE2AB07EB7E007802C333CE33CED8F9FB
:100544007C002DFBEC3EAF03FE22EF6406703443C7
:10055400F640D2F8C2F9D2FA43E180C2FCD2FBAD34
:10056400F8EDC413135403FDAFE27A00AB07EB7E3E
:10057400007802C333CE33CED8F97C002DFBEC3E99
:03058400FEAF03C4
:010587002251
:040588008C088D0945
:10058C007E007C2B7D3312015CE47B0CFAF9F812B3
:10059C0000CA8F0D8E0C8D0B8C0AC3E49FFFE49E5A
:1005AC00F51B8F1DAE08AF09EE3395E0FDFCE47B27
:1005BC000BFAF9F812003FE47B0CFAF9F81200CAB6
:1005CC008F118E108D0F8C0EC3E49FFFE49EF51CD3
:1005DC008F1E758911851B8C851D8A851C8D851E2A
:0D05EC008BD2A9D28CD2ABD28ED2BBD2AFB3
:0105F90022DF
:100BD5007E007C2B7D3312015CE47B0CFAF9F81264
:100BE50000CA8F1A8E198D188C17C3E49FFFE49ED7
:090BF500F51B8F1D758921D28CBE
:010BFE0022D4
:040ED1004387012230
:030000000204886F
:0C048800787FE4F6D8FD7581760204CF81
:10002600BB010689828A83E0225002E722BBFE02D8
:09003600E32289828A83E493220B
:10003F00E88FF0A4CC8BF0A42CFCE98EF0A42CFC60
:10004F008AF0EDA42CFCEA8EF0A4CDA8F08BF0A4DE
:10005F002DCC3825F0FDE98FF0A42CCD35F0FCEB3D
:10006F008EF0A4FEA9F0EB8FF0A4CFC5F02ECD3902
:0F007F00FEE43CFCEAA42DCE35F0FDE43CFC226F
:10008E0075F008758200EF2FFFEE33FECD33CDCC29
:10009E0033CCC58233C5829BED9AEC99E5829840AC
:1000AE000CF582EE9BFEED9AFDEC99FC0FD5F0D689
:1000BE00E4CEFBE4CDFAE4CCF9A88222B800C1B9B3
:1000CE000059BA002DEC8BF084CFCECDFCE5F0CBF1
:1000DE00F97818EF2FFFEE33FEED33FDEC33FCEB2A
:1000EE0033FB10D703994004EB99FB0FD8E5E4F9E5
:1000FE00FA227818EF2FFFEE33FEED33FDEC33FCD2
:10010E00C933C910D7059BE99A4007EC9BFCE99AC5
:10011E00F90FD8E0E4C9FAE4CCFB2275F010EF2F0A
:10012E00FFEE33FEED33FDCC33CCC833C810D7070A
:10013E009BEC9AE899400AED9BFDEC9AFCE899F845
:0E014E000FD5F0DAE4CDFBE4CCFAE4C8F922D8
:10015C00EC8EF0A4CCC5F0CCCDF8EFA4CEC5F02D30
:10016C00FDE43CFCE8A42EC8C5F03DFDE43CFCEFEE
:0D017C00A4FFE5F028FEE43DFDE43CFC227C
:10049400020BFFE493A3F8E493A34003F68001F274
:1004A40008DFF48029E493A3F85407240CC8C33369
:1004B400C4540F4420C8834004F456800146F6DF38
:1004C400E4800B010204081020408090033CE47E89
:1004D400019360BCA3FF543F30E509541FFEE4932D
:1004E400A360010ECF54C025E060A840B8E493A3F4
:1004F400FAE493A3F8E493A3C8C582C8CAC583CA1F
:10050400F0A3C8C582C8CAC583CADFE9DEE780BED6
:0103E200001A
:00000001FF
