:10033600C104C111C10BC10D014800014900C10929
:10034600C112013200023A000001440001380002E5
:100356004A0000C10101230002360000013C0001F1
:10036600460001520001290002420000072A00004F
:100376000000000000C1060131000128000139001B
:10038600C180015000015100013E00013D00024EB6
:100396000000C103013F0002340000013300C11018
:1003A600012400C10202260000C10C02400000C167
:1003B600080125FFC10E014500C105014700C1071F
:0803C600C10F024C0000C10A46
:100BAB00C294120C4C7D647C007F011204DDD29048
:100BBB00D2A2D2A3D281D20A7534037535FFC29368
:050BCB00120E8180FB09
:03000B000201816E
:10018100C0E0C0F0C083C082C0D075D000C000C044
:1001910001C002C003C004C005C006C00785578C5A
:1001A10085598A0543E54370020542C39410E5422F
:1001B1009427402B754200754300300A22120E1E0F
:1001C1001205AE120D967F061204698E348F351218
:1001D10005AEAF35AE34120282120E511205AE30A9
:1001E100A51BE53F7017300E147F05FE120C313050
:1001F100A50B120D63753F01754500C20E20A51BAD
:10020100E53FB40116200C13200F107F057E00126C
:100211000C3120A506753F00120C14308208D20F54
:10022100754C00754D00300F19054DE54D700205F7
:100231004CC394D0E54C94074008C20F754C00752F
:100241004D0030800320870F053CE53CC3940240FC
:1002510006753C00120CAD208103120D743084032D
:10026100208303120CDBD007D006D005D004D003C5
:10027100D002D001D000D0D0D082D083D0F0D0E055
:01028100324A
:03001B0002078653
:10078600C0E0C0F0C083C082C0D075D000C000C039
:1007960001C002C003C004C005C006C00785588D4D
:1007A600855A8B12072A120ABE300610C206E52C9D
:1007B600243F7008D20E754500120AF5D007D00600
:1007C600D005D004D003D002D001D000D0D0D08242
:0707D600D083D0F0D0E03227
:0303CE00017201B8
:040A8500D2947F0E7A
:020A89008F0AD2
:100A8B00C2A07F647E00120BF4D2A07F967E001270
:100A9B000BF4E4F50BE50BC3950A5016D2A17F14AA
:100AAB007E00120C95C2A17F147E00120C95050BD3
:020ABB0080E3D6
:010ABD002216
:100C4C00C294C2A1C2A07F5E7E01120C95D2A07F7D
:090C5C005E7E01120C95D2942277
:1008D100E57224FE602B047043120A857F3C7E0082
:1008E100120C317F12120A897F327E00120C317F85
:1008F1000B120A897F467E00120C31C29475720276
:1009010022120A857F237E00120C317F0C120A8984
:0D0911007F3C7E00120C31C29475720122F1
:100D4100D2947F06120A897F507E00120C31C29420
:010D5100227F
:100CAD00D2947F02120A897F5A7E00120C31C294AF
:070CBD007F0A7E00020C31EA
:100CC400D2947F1B120A897F8C7E00120C31C2944D
:070CD4007F1E7E00020C31BF
:100D5200D2947F03120A897FB47E00120C31C294AE
:010D6200226E
:100CDB00D2947F16120A897FB47E00120C31C29413
:070CEB007F147E00020C31B2
:100D6300D2947F17120A897F3C7E00120C31C29401
:010D7300225D
:100C1400D2947F18120A897F3C7E00120C317F0D1A
:0D0C2400120A897F507E00120C31C294220A
:100D7400D2947F13120A897F507E00120C31C294E0
:010D8400224C
:100D8500D2947F14120A897F787E00120C31C294A6
:010D9500223B
:100D9600D2947F13120A897F967E00120C31C29478
:010DA600222A
:100DA700D2947F09120A897F787E00120C31C2948F
:010DB7002219
:0D000E00120A857F787E00120C31C2942208
:100DB800D2947F04120A897F967E00120C31C29465
:010DC8002208
:100DC900D2947F03120A897F8C7E00120C31C2945F
:010DD90022F7
:100DDA00D2947F02120A897F787E00120C31C29463
:010DEA0022E6
:100DEB00D2947F07120A897F507E00120C31C29475
:010DFB0022D5
:100DFC00D2947F0B120A897F327E00120C31C2947E
:010E0C0022C3
:100E0D00D2947F0F120A897F327E00120C31C29468
:010E1D0022B2
:100D1D0053A2BF75985A758920758BFD758DFDD2BF
:020D2D008E2214
:080003008F993099FDC299228A
:100BD0008B5B8A5C895DAF051DEF6017AB5B055DC4
:100BE000E55DAA5C7002055C14F912001EFF12009C
:040BF0000380E32279
:100D2F0075DCC0751E00751F1DE51EF5D1E51FF59D
:020D3F00D922B7
:1009B700EF1460191460251460312403703B751E11
:1009C70000751F0DE51EF5D2E51FF5DA22751E012C
:1009D700751F00E51EF5D3E51FF5DB22751E0075B3
:1009E7001F80E51EF5D5E51FF5DD22751E00751F75
:0A09F70040E51EF5D6E51FF5DE22EF
:080E7900E4FF1209B7020D2F7E
:100E1E00120831C2A2D2A3120B29D2A2D2A3C2852A
:010E2E0022A1
:100E2F00120881D2A2C2A3120D08D2A2D2A3C285E8
:010E3F002290
:0E0E5100D285D2A2C2A3120B55D2A2D2A322E6
:100AF500C211C205C209C212E4F523F53CF532F56F
:100B050036F537F53AF53BF54AF54BF538F544C278
:100B150004C20BF548C20DF549C201F533C208C23E
:040B250010F5242281
:0E0E5F00D211D205E4F523F53CC213F547226B
:0C0E6D00C2A47F0A7E00120C31D2A42225
:100C3100EF1FAA0670011E4A60107C137D88ED1D0E
:0A0C4100AA0470011C4A60E880F468
:010C4B002286
:100C6500E4FDFCC3ED9FEC9E500DE4FB0BBB15FCB6
:070C75000DBD00010C80EC35
:010C7C002255
:100C7D00E4FDFCC3ED9FEC9E500DE4FB0BBB2AFC89
:070C8D000DBD00010C80EC1D
:010C9400223D
:100BF400E4FDFCC3ED9FEC9E5015E4FBFA0BBB0037
:0F0C0400010AEB64644A70F50DBD00010C80E439
:010C130022BE
:100C9500E4FDFCC3ED9FEC9E500DE4FB0BBB04FC97
:070CA5000DBD00010C80EC05
:010CAC002225
:100B2900E4FDE4FEFF0FBF00010EBE0FF8BFA0F504
:100B39000DBD32EEE4FD209212E4FEFF0FBF00016D
:0B0B49000EBE27F8BF10F50DBD32EB0B
:010B5400227E
:100B5500E4FDE4FEFF0FBF00010EBE17F8BF70F500
:100B65000DBD32EEE4FD209212E4FEFF0FBF000141
:0B0B75000EBE2EF8BFE0F50DBD32EB08
:010B80002252
:100D0800E4FFE4FDFC0DBD00010CBC3EF8BD80F520
:040D18000FBF32EEE9
:010D1C0022B4
:0203D100C11356
:100E4000120E51120C14D213E4F5477F14FE020C5B
:010E50003170
:100CF200120E1E120D63AF35AE341202821208D1EB
:060D0200E4F546020AF5CB
:0903D30007170000000000000003
:100A0100750CAAE4F50BE4F50AE50CC2907F507E63
:100A110000120C65D290E50C25E0F50C7F967E0066
:100A2100120C65050AE50AC3940840DD750CAA7F1E
:100A3100507E00120C65050BE50BC3940340C7D231
:010A41009024
:010A42002291
:0B091E00C2A77517C87518E07519C155
:100929007560AAE4F55FE4F55EE560C2907F507EEC
:1009390000120C65D290E56025E0F5607F967E0097
:10094900120C65055EE55EC3940840DD7560AA7FFB
:10095900507E00120C65055FE55FC3940340C7D262
:0109690090FD
:01096A00226A
:100A43007563AAE4F562E4F561E563C2907F507EC5
:100A530000120C65D290E56325E0F5637F967E0076
:100A6300120C650561E561C3940840DD7563AA7FD7
:100A7300507E00120C650562E562C3940340C7D241
:010A830090E2
:010A8400224F
:1007DD00D293D2A612091EE4F564E4F565741725CB
:1007ED0064F8E630E706C2907F788004C2907F50AF
:1007FD007E00120C7DD29074172564F8C000E6259A
:10080D00E0D000F67F327E00120C7D0565E565C3F4
:10081D00940840C90564E564C3940340BDD2A7C2E2
:03082D0093D2A6BD
:0108300022A5
:10096B0012091EE4F566E4F56774172566F8E630A0
:10097B00E706C2907F788004C2907F507E00120CF5
:10098B007DD29074172566F8C000E625E0D000F6FE
:10099B007F327E00120C7D0567E567C3940840C962
:0B09AB000566E566C3940340BDC2A7CB
:0109B600221E
:10054F00D293C2A6C2A77517C87518E07519C21243
:10055F000929E4F568E4F56974172568F8E630E7CA
:10056F0006C2907F788004C2907F507E00120C7D6F
:10057F00D29074172568F8C000E625E0D000F67F0A
:10058F00327E00120C7D0569E569C3940840C905E8
:0E059F0068E568C3940340BDD2A7D2A6C293FC
:0105AD00222B
:1005AE00D293C2A6C2A77517C87518E07519C312E3
:1005BE000A01E4F508E4F50974172508F8E630E7B2
:1005CE0006C2907F788004C2907F507E00120C7D10
:1005DE00D29074172508F8C000E625E0D000F67F0B
:1005EE00327E00120C7D0509E509C3940840C90549
:0E05FE0008E508C3940340BDD2A7D2A6C2935D
:01060C0022CB
:10060D00D293C2A6C2A77517C87518E07519C41282
:10061D000A43E4F56AE4F56B7417256AF8E630E7EA
:10062D0006C2907F788004C2907F507E00120C7DB0
:10063D00D2907417256AF8C000E625E0D000F67F49
:10064D00327E00120C7D056BE56BC3940840C90525
:0E065D006AE56AC3940340BDD2A7D2A6C29339
:01066B00226C
:10066C00D293C2A6C2A77517C87518E07519C51222
:10067C000A43E4F56CE4F56D7417256CF8E630E785
:10068C0006C2907F788004C2907F507E00120C7D51
:10069C00D2907417256CF8C000E625E0D000F67FE8
:1006AC00327E00120C7D056DE56DC3940840C905C2
:0E06BC006CE56CC3940340BDD2A7D2A6C293D6
:0106CA00220D
:1006CB00D293C2A6C2A77517C87518E07519C612C2
:1006DB000A43E4F56EE4F56F7417256EF8E630E720
:1006EB0006C2907F788004C2907F507E00120C7DF2
:1006FB00D2907417256EF8C000E625E0D000F67F87
:10070B00327E00120C7D056FE56FC3940840C9055E
:0E071B006EE56EC3940340BDD2A7D2A6C29372
:0107290022AD
:10072A0020910D0551E551B47803E4F551C2002238
:10073A00200038D200E551D394234012E551D394D6
:10074A0050500BE52825E0F5285328FE8010E55186
:10075A00D394504010E52825E0F5284328010539AF
:10076A00E4F55080020550E4F551220550E550C3E6
:0C077A00943C4007E4F539D200F5312230
:100ABE00E53964087030F539742A2531F8A628E531
:100ACE00317009E52AB4C80475310122E531B4014B
:100ADE0009E52BB4E00475310222E531B40204D2EB
:070AEE00068000E4F531224F
:100831007517C87518E07519C1E4F508E4F5097470
:10084100172508F8E630E706C2A27F788004C2A225
:100851007F507E00120C7DD2A274172508F8C000CB
:10086100E625E0D000F67F327E00120C7D0509E519
:0F08710009C3940840C90508E508C3940340BDB6
:010880002255
:100881007517C87518E07519C1E4F570E4F5717450
:10089100172570F8E630E706C2A37F788004C2A36B
:1008A1007F507E00120C7DD2A374172570F8C00012
:1008B100E625E0D000F67F327E00120C7D0571E561
:0F08C10071C3940840C90570E570C3940340BD2E
:0108D0002205
:100282008E088F09C3E50994F3E5089403400CD264
:10029200947F1C120A897F3C02031FC3E50994F272
:1002A200E50894035016C3E50994DAE5089403407F
:1002B2000BD2947F0A120A897F648061C3E5099494
:1002C200D9E50894035016C3E50994CBE5089403D5
:1002D200400BD2947F09120A897F648040C3E509EA
:1002E20094CAE50894035016C3E50994B0E508944E
:1002F20003400BD2947F08120A897F64801FC3E5F2
:100302000994AFE5089403501CC3E5099497E508E6
:1003120094034011D2947F07120A897F647E0012EF
:100322000C31C29422C3E5099495E5089403500365
:04033200120D412245
:10046900E4FAEF6405703343F620C2F8C2F9D2FA10
:1004790043E180C2FCD2FBADF8EDC413135403FD74
:10048900AFE2AB07EB7E007802C333CE33CED8F9A7
:100499007C002DFBEC3EAF03FE22EF640670344373
:1004A900F640D2F8C2F9D2FA43E180C2FCD2FBADE0
:1004B900F8EDC413135403FDAFE27A00AB07EB7EEA
:1004C900007802C333CE33CED8F97C002DFBEC3E45
:0304D900FEAF0370
:0104DC0022FD
:0404DD008C0D8D0EE7
:1004E1007E007C2B7D33120154E47B0CFAF9F81267
:1004F10000C28F128E118D108C0FC3E49FFFE49EFA
:10050100F5578F59AE0DAF0EEE3395E0FDFCE47B50
:100511000BFAF9F8120037E47B0CFAF9F81200C271
:100521008F168E158D148C13C3E49FFFE49EF5582E
:100531008F5A75891185578C85598A85588D855AA9
:0D0541008BD2A9D28CD2ABD28ED2BBD2AF5E
:01054E00228A
:100B81007E007C2B7D33120154E47B0CFAF9F812C0
:100B910000C28F568E558D548C53C3E49FFFE49E43
:090BA100F5578F59758921D28C9A
:010BAA002228
:040E81004387012280
:030000000203DD1B
:0C03DD00787FE4F6D8FD758172020424DC
:10001E00BB010689828A83E0225002E722BBFE02E0
:09002E00E32289828A83E4932213
:10003700E88FF0A4CC8BF0A42CFCE98EF0A42CFC68
:100047008AF0EDA42CFCEA8EF0A4CDA8F08BF0A4E6
:100057002DCC3825F0FDE98FF0A42CCD35F0FCEB45
:100067008EF0A4FEA9F0EB8FF0A4CFC5F02ECD390A
:0F007700FEE43CFCEAA42DCE35F0FDE43CFC2277
:1000860075F008758200EF2FFFEE33FECD33CDCC31
:1000960033CCC58233C5829BED9AEC99E5829840B4
:1000A6000CF582EE9BFEED9AFDEC99FC0FD5F0D691
:1000B600E4CEFBE4CDFAE4CCF9A88222B800C1B9BB
:1000C6000059BA002DEC8BF084CFCECDFCE5F0CBF9
:1000D600F97818EF2FFFEE33FEED33FDEC33FCEB32
:1000E60033FB10D703994004EB99FB0FD8E5E4F9ED
:1000F600FA227818EF2FFFEE33FEED33FDEC33FCDA
:10010600C933C910D7059BE99A4007EC9BFCE99ACD
:10011600F90FD8E0E4C9FAE4CCFB2275F010EF2F12
:10012600FFEE33FEED33FDCC33CCC833C810D70712
:100136009BEC9AE899400AED9BFDEC9AFCE899F84D
:0E0146000FD5F0DAE4CDFBE4CCFAE4C8F922E0
:10015400EC8EF0A4CCC5F0CCCDF8EFA4CEC5F02D38
:10016400FDE43CFCE8A42EC8C5F03DFDE43CFCEFF6
:0D017400A4FFE5F028FEE43DFDE43CFC2284
:1003E900020BABE493A3F8E493A34003F68001F274
:1003F90008DFF48029E493A3F85407240CC8C33315
:10040900C4540F4420C8834004F456800146F6DFE3
:10041900E4800B0102040810204080900336E47E3A
:10042900019360BCA3FF543F30E509541FFEE493D8
:10043900A360010ECF54C025E060A840B8E493A39F
:10044900FAE493A3F8E493A3C8C582C8CAC583CACA
:10045900F0A3C8C582C8CAC583CADFE9DEE780BE82
:0103DC000020
:00000001FF
