:1009860012000E7F01120A93C299C298D2ACD2A964
:10099600D2BCD2AFC207C21A120B62C294D284D2A0
:1009A60083D290C211D287D20BD2A7C293755406B6
:1009B600D2A2D2A3D2A6D281D285C213120CCB80E8
:0109C600FB35
:10013A00C105C106C118C11AC102C11BC10FC10B39
:10014A00022E0000C115C112C11401560001570048
:10015A00C10EC190012B00C11D01410001380001EF
:10016A00460002420000015200013E00025800000F
:10017A00C10AC10DC101012400023C00000149006D
:10018A00015400C111014000012700016100012D45
:10019A000002500000073000000000000000C10803
:1001AA00013700012C00013F00C180015F0001609E
:1001BA0000014C00014A00025D0000C104014D002B
:1001CA00015A00012A00023A0000C11C014B000139
:1001DA003900C119012500C10302280000C1130218
:1001EA004E0000C10C0126FFC116015300C10701D0
:0A01FA005500C109C117025B0000A7
:03000B00020213DB
:10021300C0E0C0F0C083C082C0D075D000C000C0B1
:1002230001C002C003C004C005C006C00785448CDA
:1002330085478A30A51BE54D70173016147F05FEE0
:10024300120B4730A50B120C52754D01755300C2AA
:100253001620A51BE54DB401162013132017107F9C
:10026300057E00120B4720A506754D00120B2A30A0
:100273008208D217755B00755C00301719055CE5C1
:100283005C7002055BC394D0E55B94074008C2171A
:10029300755B00755C0030800320870F0549E549D5
:1002A300C394024006754900120BC3208103120C4C
:1002B30063C3E53A94015003120C63308403208333
:1002C30003120BF1D007D006D005D004D003D0021F
:0F02D300D001D000D0D0D082D083D0F0D0E03294
:030023000203963F
:10039600C0E0C0F0C083C082C0D075D000C000C02D
:1003A60001C002C003C004C005C006C00730986A79
:1003B600C29874302537F8A699E5377009E530708C
:1003C600057537018054E537B40109E531700575C7
:1003D60037028046E537B40209E532700575370302
:1003E6008038E537B4030AE533B41305753704805E
:1003F60029E537B4040AE534B4EC05753705801AE7
:10040600E537B40512E535B5260D753700D21675F4
:100416005300120A338003753700D007D006D00583
:10042600D004D003D002D001D000D0D0D082D08367
:05043600D0F0D0E0321F
:100A93007E007C2B7D3312010DE47B0CFAF9F812F6
:100AA300007B8F148E138D128C11C3E49FFFE49E81
:090AB300F5448F47758921D28CAE
:010ABC002217
:040CCB004387012238
:0302040001750180
:0209FE008F0F59
:100A0000C2A07F647E00120B0AD2A07F967E0012E5
:100A10000B0AE4F510E510C3950F5016D2A17F1410
:100A20007E00120BABC2A17F147E00120BAB05102F
:020A300080E361
:010A320022A1
:100B6200C294C2A1C2A07F5E7E01120BABD2A07F53
:090B72005E7E01120BABD294224D
:1007D100E57524FE602F04704BD2947F0E1209FE42
:1007E1007F3C7E00120B477F121209FE7F327E0092
:1007F100120B477F0B1209FE7F467E00120B47C288
:100801009475750222D2947F0E1209FE7F237E0019
:10081100120B477F0C1209FE7F3C7E00120B47C270
:05082100947575012231
:100C3000D2947F061209FE7F507E00120B47C294A9
:010C40002291
:100BC300D2947F021209FE7F5A7E00120B47C29411
:070BD3007F0A7E00020B47C0
:100BDA00D2947F1B1209FE7F8C7E00120B47C294AF
:070BEA007F1E7E00020B4795
:100C4100D2947F031209FE7FB47E00120B47C29437
:010C51002280
:100BF100D2947F161209FE7FB47E00120B47C29475
:070C01007F147E00020B4787
:100C5200D2947F171209FE7F3C7E00120B47C2948A
:010C6200226F
:100B2A00D2947F181209FE7F3C7E00120B477F0D7C
:0D0B3A001209FE7F507E00120B47C294226C
:100C6300D2947F131209FE7F507E00120B47C29469
:010C7300225E
:100C7400D2947F141209FE7F787E00120B47C2942F
:010C8400224D
:100ABD00D2947F131209FE7F507E00120B477F18D0
:100ACD001209FE7F3C7E00120B477F0D1209FE7F3F
:090ADD00507E00120B47C2942266
:10000E0053A2BF75985A758920758BFD758DFDD2DB
:02001E008E2230
:080003008F993099FDC299228A
:100AE6008B158A168917AF051DEF6017AB1505170D
:100AF600E517AA167002051614F9120026FF120051
:040B06000380E32263
:100C1E0075DCC0751E00751F1DE51EF5D1E51FF5AF
:020C2E00D922C9
:10087600EF1460191460251460312403703B751E53
:1008860000751F0DE51EF5D2E51FF5DA22751E016E
:10089600751F00E51EF5D3E51FF5DB22751E0075F5
:1008A6001F80E51EF5D5E51FF5DD22751E00751FB7
:0A08B60040E51EF5D6E51FF5DE2231
:080CC300E4FF120876020C1E8A
:100C8500120826C2A2D2A3120A67D2A2D2A3C28593
:010C9500223C
:0E0CA700D285D2A2C2A3120A67D2A2D2A32281
:100A3300C21AC207C20EC21DE4F524F549F538F502
:100A43003CF53DF542F543F558F559F53EF552C2EF
:100A530005C212F556C214F557C201F539C20CC2CC
:040A630019F525223A
:0E0CB500D21AD207E4F524F549C21EF55522E5
:100B4700EF1FAA0670011E4A60107C137D88ED1DF9
:0A0B5700AA0470011C4A60E880F453
:010B61002271
:100B7B00E4FDFCC3ED9FEC9E500DE4FB0BBB15FCA1
:070B8B000DBD00010C80EC20
:010B92002240
:100B9300E4FDFCC3ED9FEC9E500DE4FB0BBB2AFC74
:070BA3000DBD00010C80EC08
:010BAA002228
:100B0A00E4FDFCC3ED9FEC9E5015E4FBFA0BBB0021
:0F0B1A00010AEB64644A70F50DBD00010C80E424
:010B290022A9
:100BAB00E4FDFCC3ED9FEC9E500DE4FB0BBB04FC82
:070BBB000DBD00010C80ECF0
:010BC2002210
:100A6700E4FDE4FEFF0FBF00010EBE17F8BF70F5EF
:100A77000DBD32EEE4FD209212E4FEFF0FBF000130
:0B0A87000EBE2EF8BFE0F50DBD32EBF7
:010A92002241
:02020700C11E16
:100C9600120CA7120B2AD21EE4F5557F14FE020B86
:010CA6004706
:100C0800120C85120C52AF3BAE3A1202E21207D117
:060C1800E4F554020A336A
:09020900070800000000000000DD
:1008C000751AAAE4F519E4F518E51AC2907F507E6E
:1008D00000120B7BD290E51A25E0F51A7F967E0078
:1008E000120B7B0518E518C3940840DD751AAA7F22
:1008F000507E00120B7B0519E519C3940340C7D243
:010900009066
:0109010022D3
:10090200751DAAE4F51CE4F51BE51DC2907F507E1F
:1009120000120B7BD290E51D25E0F51D7F967E002F
:10092200120B7B051BE51BC3940840DD751DAA7FD6
:10093200507E00120B7B051CE51CC3940340C7D2FA
:010942009024
:010943002291
:100944007564AAE4F563E4F562E564C2907F507EC1
:1009540000120B7BD290E56425E0F5647F967E005F
:10096400120B7B0562E562C3940840DD7564AA7FBF
:10097400507E00120B7B0563E563C3940340C7D22A
:0109840090E2
:01098500224F
:10053B00D293D2A6C2A77508C87509E0750AC11275
:10054B000902E4F565E4F56674082565F8E630E71D
:10055B0006C2907F788004C2907F507E00120B936E
:10056B00D29074082565F8C000E625E0D000F67F30
:10057B00327E00120B930566E566C3940840C905ED
:0E058B0065E565C3940340BDD2A7C293D2A616
:01059900223F
:10059A00D293C2A6C2A77508C87509E0750AC21225
:1005AA000902E4F567E4F56874082567F8E630E7B8
:1005BA0006C2907F788004C2907F507E00120B930F
:1005CA00D29074082567F8C000E625E0D000F67FCF
:1005DA00327E00120B930568E568C3940840C9058A
:0E05EA0067E567C3940340BDD2A7D2A6C293B3
:0105F80022E0
:1005F900D293C2A6C2A77508C87509E0750AC312C5
:1006090008C0E4F569E4F56A74082569F8E630E795
:1006190006C2907F788004C2907F507E00120B93AF
:10062900D29074082569F8C000E625E0D000F67F6D
:10063900327E00120B93056AE56AC3940840C90526
:0E06490069E569C3940340BDD2A7D2A6C2934F
:010657002280
:10065800D293C2A6C2A77508C87509E0750AC41264
:100668000944E4F56BE4F56C7408256BF8E630E7AB
:1006780006C2907F788004C2907F507E00120B9350
:10068800D2907408256BF8C000E625E0D000F67F0C
:10069800327E00120B93056CE56CC3940840C905C3
:0E06A8006BE56BC3940340BDD2A7D2A6C293EC
:0106B6002221
:1006B700D293C2A6C2A77508C87509E0750AC51204
:1006C7000944E4F56DE4F56E7408256DF8E630E746
:1006D70006C2907F788004C2907F507E00120B93F1
:1006E700D2907408256DF8C000E625E0D000F67FAB
:1006F700327E00120B93056EE56EC3940840C90560
:0E0707006DE56DC3940340BDD2A7D2A6C29388
:0107150022C1
:10071600D293C2A6C2A77508C87509E0750AC612A3
:100726000944E4F56FE4F5707408256FF8E630E7E0
:1007360006C2907F788004C2907F507E00120B9391
:10074600D2907408256FF8C000E625E0D000F67F49
:10075600327E00120B930570E570C3940840C905FC
:0E0766006FE56FC3940340BDD2A7D2A6C29325
:010774002262
:1007750020910D0560E560B47803E4F560C20022C0
:10078500200038D200E560D394234012E560D3946D
:1007950050500BE52C25E0F52C532CFE8010E56020
:1007A500D394504010E52C25E0F52C432C01053F52
:1007B500E4F55F8002055FE4F56022055FE55FC350
:0C07C500943C4007E4F53FD200F53722D9
:1009C700E53F64087030F53F74302537F8A62CE50D
:1009D700377009E530B4C80475370122E537B4012B
:1009E70009E531B4E00475370222E537B40204D2D1
:0709F700088000E4F537223F
:100826007508C87509E0750AC1E4F571E4F57274D6
:10083600082571F8E630E706C2A27F788004C2A2D6
:100846007F507E00120B93D2A274082571F8C00067
:10085600E625E0D000F67F327E00120B930572E5A6
:0F08660072C3940840C90571E571C3940340BD86
:010875002260
:1002E2008E738F74C3E57494F3E5739403400CD258
:1002F200947F1C1209FE7F3C02037FC3E57494F2D3
:10030200E57394035016C3E57494DAE573940340DD
:100312000BD2947F0A1209FE7F648061C3E5749454
:10032200D9E57394035016C3E57494CBE573940333
:10033200400BD2947F091209FE7F648040C3E574AA
:1003420094CAE57394035016C3E57494B0E57394AC
:1003520003400BD2947F081209FE7F64801FC3E51D
:100362007494AFE5739403501CC3E5749497E573DA
:1003720094034011D2947F071209FE7F647E00121B
:100382000B47C29422C3E5749495E573940350031A
:04039200120C3022F7
:1004C700E4FAEF6405703343F620C2F8C2F9D2FAB2
:1004D70043E180C2FCD2FBADF8EDC413135403FD16
:1004E700AFE2AB07EB7E007802C333CE33CED8F949
:1004F7007C002DFBEC3EAF03FE22EF640670344315
:10050700F640D2F8C2F9D2FA43E180C2FCD2FBAD81
:10051700F8EDC413135403FDAFE27A00AB07EB7E8B
:10052700007802C333CE33CED8F97C002DFBEC3EE6
:03053700FEAF0311
:01053A00229E
:0300000002043BBC
:0C043B00787FE4F6D8FD7581750204821C
:10002600BB010689828A83E0225002E722BBFE02D8
:09003600E32289828A83E493220B
:10003F0075F008758200EF2FFFEE33FECD33CDCC78
:10004F0033CCC58233C5829BED9AEC99E5829840FB
:10005F000CF582EE9BFEED9AFDEC99FC0FD5F0D6D8
:10006F00E4CEFBE4CDFAE4CCF9A88222B800C1B902
:10007F000059BA002DEC8BF084CFCECDFCE5F0CB40
:10008F00F97818EF2FFFEE33FEED33FDEC33FCEB79
:10009F0033FB10D703994004EB99FB0FD8E5E4F934
:1000AF00FA227818EF2FFFEE33FEED33FDEC33FC21
:1000BF00C933C910D7059BE99A4007EC9BFCE99A15
:1000CF00F90FD8E0E4C9FAE4CCFB2275F010EF2F5A
:1000DF00FFEE33FEED33FDCC33CCC833C810D7075A
:1000EF009BEC9AE899400AED9BFDEC9AFCE899F895
:0E00FF000FD5F0DAE4CDFBE4CCFAE4C8F92228
:10010D00EC8EF0A4CCC5F0CCCDF8EFA4CEC5F02D7F
:10011D00FDE43CFCE8A42EC8C5F03DFDE43CFCEF3D
:0D012D00A4FFE5F028FEE43DFDE43CFC22CB
:10044700020986E493A3F8E493A34003F68001F23C
:1004570008DFF48029E493A3F85407240CC8C333B6
:10046700C4540F4420C8834004F456800146F6DF85
:10047700E4800B010204081020408090013AE47EDA
:10048700019360BCA3FF543F30E509541FFEE4937A
:10049700A360010ECF54C025E060A840B8E493A341
:1004A700FAE493A3F8E493A3C8C582C8CAC583CA6C
:1004B700F0A3C8C582C8CAC583CADFE9DEE780BE24
:0102120000EB
:00000001FF
