:1002E300C104C111C10BC10D014700014800C1097F
:1002F300C11201310002390000014300013700023D
:10030300490000C10101230002350000013B000147
:1003130045000151000128000241000007290000A7
:100323000000000000C10601300001270001380071
:10033300C180014F00015000013D00013C00024D0E
:100343000000C103013E0002330000013200C1106E
:10035300012400C10202250000C10C023F0000C1BC
:1003630008C10E014400C105014600C107C10F02C7
:050373004B0000C10A6F
:1008B0007533037534FFC2A2C2A3D281120B577FD6
:1008C00001120908C299C298D2ACD2A9D2BCD2AF47
:0D08D000D290D281D20AD28C120CCA80FBC9
:03000B0002038B62
:10038B00C0E0C0F0C083C082C0D075D000C000C038
:10039B0001C002C003C004C005C006C00785618C44
:1003AB0085638A0542E54270020541C394B8E54175
:1003BB00940B404F754100754200300A467B2A7DF5
:1003CB00087C077F887E1312095A7F28120AA87DA2
:1003DB001C7C007FC31209F57F061204B58E338F88
:1003EB00347D1C7C007FC31209F57D087C077F8858
:1003FB007E13120C797F28120AA87D1C7C007FC308
:10040B001209F5D007D006D005D004D003D002D006
:0E041B0001D000D0D0D082D083D0F0D0E0321B
:0300230002023B9B
:10023B00C0E0C0F0C083C082C0D075D000C000C089
:10024B0001C002C003C004C005C006C00730986DD2
:10025B00C29874292530F8A699E530700AE529B4BF
:10026B0012057530018056E530B4010AE52AB43425
:10027B00057530028047E530B4020AE52BB456050C
:10028B007530038038E530B4030AE52CB478057576
:10029B0030048029E530B4040AE52DB4900575309F
:1002AB0005801AE530B40512E52EB4980D753000B3
:1002BB00D20E75440012080F8003753000D007D0A2
:1002CB0006D005D004D003D002D001D000D0D0D0BE
:0802DB0082D083D0F0D0E032A4
:030378000171010F
:0407D600D2947F0E2C
:0207DA008F1E70
:1007DC00C2A07F647E00120A3ED2A07F967E0012D9
:1007EC000A3EE4F51FE51FC3951E5016D2A17F14D7
:1007FC007E00120A90C2A17F147E00120A90051F7F
:02080C0080E387
:01080E0022C7
:100A5E00C294C2A1C2A07F5E7E01120A90D2A07F74
:090A6E005E7E01120A90D294226E
:10079300E57124FE60250470391207D67F2D120AF5
:1007A300A87F121207DA7F32120AA87F0B1207DA28
:1007B3007F46120AA8C294757102221207D67F28B7
:1007C300120AA87F0C1207DA7F3C120AA8C294759A
:0307D3007101228F
:0F0B7B00D2947F061207DA7F50120AA8C2942282
:100ABF00D2947F061207DA120B1E120B1E120B1E98
:030ACF00C29422AC
:0E0C6B00120ABF7F0A120AA8120ABFC2002294
:100AD200D2947F021207DA7F5A120AA8C2947F1EAA
:030AE200020AA85D
:0F0B8A00D2947F1B1207DA7F8C120AA8C2942222
:0F0B9900D2947F031207DA7FB4120AA8C2942203
:100AE500D2947F161207DA7FB4120AA8C2947F1433
:030AF500020AA84A
:0F0BA800D2947F171207DA7F3C120AA8C2942258
:100A7700D2947F181207DA7F3C120AA87F0D12075B
:090A8700DA7F46120AA8C294228B
:0F0BB700D2947F131207DA7F50120AA8C2942239
:0F0BC600D2947F141207DA7F78120AA8C2942201
:0F0BD500D2947F131207DA7F96120AA8C29422D5
:0F0BE400D2947F091207DA7F78120AA8C29422EE
:0B0CA3001207D67F78120AA8C2942224
:0F0BF300D2947F041207DA7F96120AA8C29422C6
:0F0C0200D2947F031207DA7F8C120AA8C29422C1
:0F0C1100D2947F021207DA7F78120AA8C29422C7
:0F0C2000D2947F071207DA7F50120AA8C29422DB
:0F0C2F00D2947F0B1207DA7F32120AA8C29422E6
:0F0C3E00D2947F0F1207DA7F32120AA8C29422D3
:0F0C4D00D2947F0C1207DA7F50120AA8C29422A9
:0F0C5C00D2947F0D1207DA7F50120AA8C2942299
:100B570053A2BF75985A758920758BFD758DFDD287
:020B67008E22DC
:080003008F993099FDC299228A
:100A1A008B658A668967AF051DEF6017AB65056749
:100A2A00E567AA667002056614F9120026FF12002D
:040A3A000380E32230
:100B690075DCC0756B00756C1DE56BF5D1E56CF531
:020B7900D9227F
:10070100EF1460191460251460312403703B756B7C
:1007110000756C0DE56BF5D2E56CF5DA22756B01B0
:10072100756C00E56BF5D3E56CF5DB22756B007537
:100731006C80E56BF5D5E56CF5DD22756B00756CAC
:0A07410040E56BF5D6E56CF5DE220D
:080CC200E4FF120701020B69B7
:10095A008E088F098C0A8D0BEBFD7C007FC1120576
:10096A00F7D2A2C2A3AD0BAC0AAF09AE0812087E39
:07097A00D2A2D2A3C2852224
:100981008E598F5A8C5B8D5CEBFD7C007FC112060A
:1009910052D2A2C2A3AD5CAC5BAF5AAE5912087E73
:0709A100C2A2C2A3C285221D
:0E0C7900D285C2A2D2A312087ED2A2D2A3229A
:0E0C8700D285C2A2D2A312087EC2A2C2A322AC
:10080F00C211C205C209C212E4F523F53BF531F559
:10081F0035F536F539F53AF549F54AF537F543C269
:10082F0004C20BF547C20DF548C201F532C208C22A
:08083F0013F546C210F5242256
:0E0C9500D211D205E4F523F53BC213F5462239
:0A0CAE00C2A47F05120AA8D2A422F6
:04037B00026D00000F
:100AF800756DFF756E93056EE56E7002056D456D3B
:030B080070F42264
:100B0B00756DFD756EE3056EE56E7002056D456DD9
:030B1B0070F42251
:100B1E00756DFB756EC7056EE56E7002056D456DE4
:030B2E0070F4223E
:100B3100756DEA756EE7056EE56E7002056D456DC2
:030B410070F4222B
:100B4400756D2D756E0F056EE56E7002056D456D44
:030B540070F42218
:100AA800AE071FEE60107C137D88ED1DAA0470014F
:060AB8001C4A60EC80F412
:010ABE002215
:10093200E4FBFAEFF582C3EB9582EA94005018E4E7
:10094200FEEEC39DEC6480F874809850030E80F133
:070952000BBB00010A80DC71
:01095900227B
:100A3E00E4FDFCC3ED9FEC9E5015E4FBFA0BBB00EE
:0F0A4E00010AEB64644A70F50DBD00010C80E4F1
:010A5D002276
:100A9000E4FDFCC3ED9FEC9E500DE4FB0BBB04FC9E
:070AA0000DBD00010C80EC0C
:010AA700222C
:10087E00E4F9E4FAFBC3EB9FEA9E50070BBB0001C1
:10088E000A80F209B932EBE4F9209215E4FAFBC3BF
:10089E00EB9DEA9C50070BBB00010A80F209B932AE
:0108AE00E861
:0108AF002226
:02037F00C113A8
:1009CF00200007AF34AE331201891200002000035C
:1009DF00120A77D213E4F5467F14120AA8E4F50041
:0609EF00300002C20022EC
:10000E0020000D120BA8AF34AE33120189120793E4
:04001E00753E012208
:090381000752000000000000001A
:10074B00750DAAE4F50CE4F50BE50DC2907D157C57
:10075B00007F17120932D290E50D25E0F50D7D15BE
:10076B007C007F2B120932050BE50BC3940840D993
:10077B00750DAA7D157C007F17120932050CE50C4F
:07078B00C3940340C1D290AA
:010792002244
:0206AD008F0BB1
:1006AF00E4F50CE4F50D7452250CF8E630E70BC2B7
:1006BF0090E50BFD7C007F248009C290E50BFD7C4B
:1006CF00007F17120932D2907452250CF8C000E641
:1006DF0025E0D000F6E50BFD7C007F0F12093205F7
:1006EF000DE50DC3940840BE050CE50CC394034003
:0106FF00B248
:0107000022D6
:1009F5008F088C098D0AD2937F14120AA8C2A77595
:100A050052C87553E085085412074BAF0A1206AD5C
:050A1500D2A7C29322EC
:1009A8008F688C698D6AD2937F14120AA8C2A775C2
:1009B80052C87553E085685412074BAF6A1206ADEA
:0709C800C2A7C293C29022F6
:1008DD00D2937F14120AA8C2A7755212755334759C
:1008ED00545675557875569012074B7B007A0079E2
:0B08FD00527D06120A1AD2A7C29322F5
:10059B0020910D0550E550B47803E4F550C20022CC
:1005AB00200038D200E550D394234012E550D39469
:1005BB0050500BE52725E0F5275327FE8010E5501B
:1005CB00D394504010E52725E0F527432701053844
:1005DB00E4F54F8002054FE4F55022054FE54FC37C
:0C05EB00943C4007E4F538D200F53022C3
:10084700E53864087030F53874292530F8A627E5AF
:10085700307009E529B4C80475300122E530B401C8
:1008670009E52AB4E00475300222E530B40204D267
:07087700068000E4F53022C9
:0405F7008C0C8D0DCE
:1005FB007552C87553E08F54E4F50EE4F50F745241
:10060B00250EF8E630E70AC2A3AD0DAC0C7F2480B3
:10061B0008C2A3AD0DAC0C7F17120932D2A37452D2
:10062B00250EF8C000E625E0D000F6AD0DAC0C7F32
:10063B000F120932050FE50FC3940840C1050EE5F3
:06064B000EC3940340B54C
:010651002286
:040652008C5D8D5ED0
:100656007552C87553E08F54E4F55FE4F560745243
:10066600255FF8E630E70AC281AD5EAC5D7F248087
:1006760008C281AD5EAC5D7F17120932D281745219
:10068600255FF8C000E625E0D000F6AD5EAC5D7FE4
:100696000F1209320560E560C3940840C1055FE5A5
:0606A6005FC3940340B5A0
:0106AC00222B
:0A0CB8007F061204B58E338F34223C
:100189008E6F8F70C3E5709401E56F9403400CD2B4
:10019900947F1C1207DA7F3C020226C3E5709401A2
:1001A900E56F94035016C3E57094F4E56F9402402B
:1001B9000BD2947F0A1207DA7F648061C3E57094D9
:1001C900F4E56F94025016C3E57094E5E56F940267
:1001D900400BD2947F091207DA7F648040C3E5702F
:1001E90094E5E56F94025016C3E57094DBE56F94CE
:1001F90002400BD2947F081207DA7F64801FC3E59F
:100209007094DBE56F9402501AC3E57094D0E56FE2
:100219009402400FD2947F071207DA7F64120AA86A
:10022900C29422C3E57094D0E56F94025003120B77
:020239007B2226
:1004B500E4FAEF6405703343F620C2F8C2F9D2FAC4
:1004C50043E180C2FCD2FBADF8EDC413135403FD28
:1004D500AFE2AB07EB7E007802C333CE33CED8F95B
:1004E5007C002DFBEC3EAF03FE22EF640670344327
:1004F500F640D2F8C2F9D2FA43E180C2FCD2FBAD94
:10050500F8EDC413135403FDAFE27A00AB07EB7E9D
:10051500007802C333CE33CED8F97C002DFBEC3EF8
:03052500FEAF0323
:0105280022B0
:040529008C148D158C
:10052D007E007C2B7D3312015CE47B0CFAF9F81212
:10053D0000CA8F198E188D178C16C3E49FFFE49E89
:10054D00F5618F63AE14AF15EE3395E0FDFCE47BE2
:10055D000BFAF9F812003FE47B0CFAF9F81200CA15
:10056D008F1D8E1C8D1B8C1AC3E49FFFE49EF562BC
:10057D008F6475891185618C85638A85628D85642B
:0D058D008BD2A9C28CD2ABD28ED2BBD2AF22
:01059A00223E
:100908007E007C2B7D3312015CE47B0CFAF9F81233
:1009180000CA8F138E128D118C10C3E49FFFE49EC2
:09092800F5618F63758921C28C11
:0109310022A3
:040CCA004387012239
:03000000020429CE
:0C042900787FE4F6D8FD75817102047044
:10002600BB010689828A83E0225002E722BBFE02D8
:09003600E32289828A83E493220B
:10003F00E88FF0A4CC8BF0A42CFCE98EF0A42CFC60
:10004F008AF0EDA42CFCEA8EF0A4CDA8F08BF0A4DE
:10005F002DCC3825F0FDE98FF0A42CCD35F0FCEB3D
:10006F008EF0A4FEA9F0EB8FF0A4CFC5F02ECD3902
:0F007F00FEE43CFCEAA42DCE35F0FDE43CFC226F
:10008E0075F008758200EF2FFFEE33FECD33CDCC29
:10009E0033CCC58233C5829BED9AEC99E5829840AC
:1000AE000CF582EE9BFEED9AFDEC99FC0FD5F0D689
:1000BE00E4CEFBE4CDFAE4CCF9A88222B800C1B9B3
:1000CE000059BA002DEC8BF084CFCECDFCE5F0CBF1
:1000DE00F97818EF2FFFEE33FEED33FDEC33FCEB2A
:1000EE0033FB10D703994004EB99FB0FD8E5E4F9E5
:1000FE00FA227818EF2FFFEE33FEED33FDEC33FCD2
:10010E00C933C910D7059BE99A4007EC9BFCE99AC5
:10011E00F90FD8E0E4C9FAE4CCFB2275F010EF2F0A
:10012E00FFEE33FEED33FDCC33CCC833C810D7070A
:10013E009BEC9AE899400AED9BFDEC9AFCE899F845
:0E014E000FD5F0DAE4CDFBE4CCFAE4C8F922D8
:10015C00EC8EF0A4CCC5F0CCCDF8EFA4CEC5F02D30
:10016C00FDE43CFCE8A42EC8C5F03DFDE43CFCEFEE
:0D017C00A4FFE5F028FEE43DFDE43CFC227C
:100435000208B0E493A3F8E493A34003F68001F225
:1004450008DFF48029E493A3F85407240CC8C333C8
:10045500C4540F4420C8834004F456800146F6DF97
:10046500E4800B01020408102040809002E3E47E42
:10047500019360BCA3FF543F30E509541FFEE4938C
:10048500A360010ECF54C025E060A840B8E493A353
:10049500FAE493A3F8E493A3C8C582C8CAC583CA7E
:1004A500F0A3C8C582C8CAC583CADFE9DEE780BE36
:01038A000072
:00000001FF
