:10023B00C104C111C10BC10D014800014900C10925
:10024B00C112013200023A000001440001380002E1
:10025B004A0000C10101230002360000013C0001ED
:10026B00460001520001290002420000072A00004B
:10027B000000000000C10601310001280001390017
:10028B00C180015000015100013E00013D00024EB2
:10029B000000C103013F0002340000013300C11014
:1002AB00012400C10202260000C10C02400000C163
:1002BB00080125FFC10E014500C105014700C1071B
:0802CB00C10F024C0000C10A42
:10088D0012098F7F01120814C299C298D2ACD2A955
:10089D00D2BCD2AFD290C2A7D20A7534037535FF40
:0508AD00120AF980FBB6
:03000B000204F9F3
:1004F900C0E0C0F0C083C082C0D075D000C000C0C9
:1005090001C002C003C004C005C006C007855E8CD7
:1005190085608A0543E54370020542C394B8E54204
:10052900940B4012754200754300300A097D2A7CFC
:10053900007FC11208B2D007D006D005D004D0037D
:10054900D002D001D000D0D0D082D083D0F0D0E07A
:01055900326F
:030023000202E2F4
:1002E200C0E0C0F0C083C082C0D075D000C000C0E2
:1002F20001C002C003C004C005C006C00730986A2E
:10030200C298742A2531F8A699E5317009E52A7058
:10031200057531018054E531B40109E52B7005758D
:1003220031028046E531B40209E52C7005753103CE
:100332008038E531B4030AE52DB413057531048024
:1003420029E531B4040AE52EB4EC05753105801AAD
:10035200E531B40512E52FB5250D753100D20E75C4
:1003620045001207738003753100D007D006D0050F
:10037200D004D003D002D001D000D0D0D082D0831C
:05038200D0F0D0E032D4
:0302D300016B01BB
:04073A00D2947F0EC8
:02073E008F65C5
:10074000C2A07F647E001208FBD2A07F967E0012BA
:1007500008FBE4F566E566C395655016D2A17F14E3
:100760007E0012094DC2A17F147E0012094D05665C
:0207700080E324
:010772002264
:10091B00C294C2A1C2A07F5E7E0112094DD2A07FFC
:09092B005E7E0112094DD29422F6
:1006F700E56B24FE602504703912073A7F2D120935
:10070700657F1212073E7F321209657F0B12073E83
:100717007F46120965C294756B022212073A7F2839
:100727001209657F0C12073E7F3C120965C294755A
:030737006B012231
:0F09C300D2947F0612073E7F50120965C294221C
:10000E00D2947F0212073E7F5A120965C2947F1E58
:03001E000209656F
:0F09D200D2947F1B12073E7F8C120965C29422BC
:0F09E100D2947F0312073E7FB4120965C294229D
:10097C00D2947F1612073E7FB4120965C2947F147D
:03098C00020965F8
:0F09F000D2947F1712073E7F3C120965C29422F2
:10093400D2947F1812073E7F3C1209657F0D12077F
:090944003E7F46120965C29422AF
:0F09FF00D2947F1312073E7F50120965C29422D3
:0F0A0E00D2947F1412073E7F78120965C294229A
:0F0A1D00D2947F1312073E7F96120965C294226E
:0F0A2C00D2947F0912073E7F78120965C2942287
:0B0ADC0012073A7F78120965C29422CD
:0F0A3B00D2947F0412073E7F96120965C294225F
:0F0A4A00D2947F0312073E7F8C120965C294225B
:0F0A5900D2947F0212073E7F78120965C2942261
:0F0A6800D2947F0712073E7F50120965C2942275
:0F0A7700D2947F0B12073E7F32120965C2942280
:0F0A8600D2947F0F12073E7F32120965C294226D
:0F0A9500D2947F0C12073E7F50120965C2942243
:0F0AA400D2947F0D12073E7F50120965C2942233
:10098F0053A2BF75985A758920758BFD758DFDD251
:02099F008E22A6
:080003008F993099FDC299228A
:1008D7008B628A638964AF051DEF6017AB6205649D
:1008E700E564AA637002056314F9120026FF12007B
:0408F7000380E32275
:1009A10075DCC075670075681DE567F5D1E568F50B
:0209B100D92249
:10066500EF1460191460251460312403703B75671D
:100675000075680DE567F5D2E568F5DA227567015D
:10068500756800E567F5D3E568F5DB2275670075E4
:100695006880E567F5D5E568F5DD2275670075685D
:0A06A50040E567F5D6E568F5DE22B2
:080AF100E4FF1206650209A1F1
:100866008E1C8F1D8C1E8D1FEBFD7C007FC112051B
:10087600B6C2A2D2A3AD1FAC1EAF1DAE1C1207E2BC
:07088600D2A2D2A3C2852219
:0E0AB300D285D2A2C2A31207E2D2A2D2A322FF
:10077300C211C205C209C212E4F523F53CF532F5F4
:1007830036F537F53AF53BF54AF54BF538F544C2FE
:1007930004C20BF548C20DF549C201F533C208C2C4
:0807A30013F547C210F52422F2
:0E0AC100D211D205E4F523F53CC213F547220D
:0A0AE700C2A47F05120965D2A42203
:10096500AE071FEE60107C137D88ED1DAA04700193
:060975001C4A60EC80F456
:01097B002259
:10083E00E4FBFAEFF582C3EB9582EA94005018E4DC
:10084E00FEEEC39DEC6480F874809850030E80F128
:07085E000BBB00010A80DC66
:010865002270
:1008FB00E4FDFCC3ED9FEC9E5015E4FBFA0BBB0033
:0F090B00010AEB64644A70F50DBD00010C80E435
:01091A0022BA
:10094D00E4FDFCC3ED9FEC9E500DE4FB0BBB04FCE2
:07095D000DBD00010C80EC50
:010964002270
:1007E200E4F9E4FAFBC3EB9FEA9E50070BBB00015E
:1007F2000A80F209B932EBE4F9209215E4FAFBC35C
:10080200EB9DEA9C50070BBB00010A80F209B9324A
:01081200E8FD
:0108130022C2
:0202D600C11352
:0D0ACF00120934D213E4F5477F14020965C3
:1009B3001209F0AF35AE341201891206F70207733C
:0902D800075300000000000000C3
:1006AF007517AAE4F516E4F515E517C2907D157CCC
:1006BF00007F1712083ED290E51725E0F5177D153C
:1006CF007C007F2B12083E0515E515C3940840D911
:1006DF007517AA7D157C007F1712083E0516E516C3
:0706EF00C3940340C1D29047
:0106F60022E1
:020611008F1543
:10061300E4F516E4F51774532516F8E630E70BC234
:1006230090E515FD7C007F248009C290E515FD7CD3
:10063300007F1712083ED29074532516F8C000E6C7
:1006430025E0D000F6E515FD7C007F0F12083E057E
:1006530017E517C3940840BE0516E516C394034077
:01066300B2E4
:010664002273
:1008B2008F128C138D14D2937F14120965C2A775FF
:1008C20053C87554E08512551206AFAF14120611C3
:0508D200D2A7C2932231
:10055A0020910D0551E551B47803E4F551C200220A
:10056A00200038D200E551D394234012E551D394A8
:10057A0050500BE52825E0F5285328FE8010E55158
:10058A00D394504010E52825E0F528432801053981
:10059A00E4F55080020550E4F551220550E550C3B8
:0C05AA00943C4007E4F539D200F5312202
:1007AB00E53964087030F539742A2531F8A628E547
:1007BB00317009E52AB4C80475310122E531B40161
:1007CB0009E52BB4E00475310222E531B40204D201
:0707DB00068000E4F5312265
:0405B6008C5A8D5B73
:1005BA007553C87554E08F55E4F55CE4F55D7453E2
:1005CA00255CF8E630E70AC2A2AD5BAC5A7F24800C
:1005DA0008C2A2AD5BAC5A7F1712083ED2A274536E
:1005EA00255CF8C000E625E0D000F6AD5BAC5A7F8A
:1005FA000F12083E055DE55DC3940840C1055CE540
:06060A005CC3940340B53F
:0106100022C7
:100189008E698F6AC3E56A9401E5699403400CD2CC
:10019900947F1C12073E7F3C020226C3E56A940144
:1001A900E56994035016C3E56A94F4E5699402403D
:1001B9000BD2947F0A12073E7F648061C3E56A947B
:1001C900F4E56994025016C3E56A94E5E569940279
:1001D900400BD2947F0912073E7F648040C3E56AD1
:1001E90094E5E56994025016C3E56A94D5E56994E6
:1001F90002400BD2947F0812073E7F64801FC3E53B
:100209006A94D5E5699402501AC3E56A94C8E56908
:100219009402400FD2947F0712073E7F641209654A
:10022900C29422C3E56A94C8E5699402500312098D
:02023900C322DE
:10041300E4FAEF6405703343F620C2F8C2F9D2FA66
:1004230043E180C2FCD2FBADF8EDC413135403FDCA
:10043300AFE2AB07EB7E007802C333CE33CED8F9FD
:100443007C002DFBEC3EAF03FE22EF6406703443C9
:10045300F640D2F8C2F9D2FA43E180C2FCD2FBAD36
:10046300F8EDC413135403FDAFE27A00AB07EB7E40
:10047300007802C333CE33CED8F97C002DFBEC3E9B
:03048300FEAF03C6
:010486002253
:040487008C088D0947
:10048B007E007C2B7D3312015CE47B0CFAF9F812B5
:10049B0000CA8F0D8E0C8D0B8C0AC3E49FFFE49E5C
:1004AB00F55E8F60AE08AF09EE3395E0FDFCE47BA3
:1004BB000BFAF9F812003FE47B0CFAF9F81200CAB8
:1004CB008F118E108D0F8C0EC3E49FFFE49EF55F92
:1004DB008F61758911855E8C85608A855F8D8561DD
:0D04EB008BD2A9C28CD2ABD28ED2BBD2AFC5
:0104F80022E1
:100814007E007C2B7D3312015CE47B0CFAF9F81228
:1008240000CA8F1B8E1A8D198C18C3E49FFFE49E97
:09083400F55E8F60758921C28C0C
:01083D002298
:040AF900438701220C
:0300000002038771
:0C038700787FE4F6D8FD75816B0203CE90
:10002600BB010689828A83E0225002E722BBFE02D8
:09003600E32289828A83E493220B
:10003F00E88FF0A4CC8BF0A42CFCE98EF0A42CFC60
:10004F008AF0EDA42CFCEA8EF0A4CDA8F08BF0A4DE
:10005F002DCC3825F0FDE98FF0A42CCD35F0FCEB3D
:10006F008EF0A4FEA9F0EB8FF0A4CFC5F02ECD3902
:0F007F00FEE43CFCEAA42DCE35F0FDE43CFC226F
:10008E0075F008758200EF2FFFEE33FECD33CDCC29
:10009E0033CCC58233C5829BED9AEC99E5829840AC
:1000AE000CF582EE9BFEED9AFDEC99FC0FD5F0D689
:1000BE00E4CEFBE4CDFAE4CCF9A88222B800C1B9B3
:1000CE000059BA002DEC8BF084CFCECDFCE5F0CBF1
:1000DE00F97818EF2FFFEE33FEED33FDEC33FCEB2A
:1000EE0033FB10D703994004EB99FB0FD8E5E4F9E5
:1000FE00FA227818EF2FFFEE33FEED33FDEC33FCD2
:10010E00C933C910D7059BE99A4007EC9BFCE99AC5
:10011E00F90FD8E0E4C9FAE4CCFB2275F010EF2F0A
:10012E00FFEE33FEED33FDCC33CCC833C810D7070A
:10013E009BEC9AE899400AED9BFDEC9AFCE899F845
:0E014E000FD5F0DAE4CDFBE4CCFAE4C8F922D8
:10015C00EC8EF0A4CCC5F0CCCDF8EFA4CEC5F02D30
:10016C00FDE43CFCE8A42EC8C5F03DFDE43CFCEFEE
:0D017C00A4FFE5F028FEE43DFDE43CFC227C
:1003930002088DE493A3F8E493A34003F68001F2EB
:1003A30008DFF48029E493A3F85407240CC8C3336B
:1003B300C4540F4420C8834004F456800146F6DF3A
:1003C300E4800B010204081020408090023BE47E8D
:1003D300019360BCA3FF543F30E509541FFEE4932F
:1003E300A360010ECF54C025E060A840B8E493A3F6
:1003F300FAE493A3F8E493A3C8C582C8CAC583CA21
:10040300F0A3C8C582C8CAC583CADFE9DEE780BED8
:0102E100001C
:00000001FF
